{
  "_format": "hh-sol-artifact-1",
  "contractName": "Thief",
  "sourceName": "contracts/Thief.sol",
  "abi": [
    {
      "inputs": [
        {
          "internalType": "string[]",
          "name": "playerClan",
          "type": "string[]"
        },
        {
          "internalType": "string[]",
          "name": "playerColors",
          "type": "string[]"
        },
        {
          "internalType": "string[]",
          "name": "playerImageURIs",
          "type": "string[]"
        }
      ],
      "stateMutability": "nonpayable",
      "type": "constructor"
    },
    {
      "anonymous": false,
      "inputs": [
        {
          "indexed": true,
          "internalType": "address",
          "name": "owner",
          "type": "address"
        },
        {
          "indexed": true,
          "internalType": "address",
          "name": "approved",
          "type": "address"
        },
        {
          "indexed": true,
          "internalType": "uint256",
          "name": "tokenId",
          "type": "uint256"
        }
      ],
      "name": "Approval",
      "type": "event"
    },
    {
      "anonymous": false,
      "inputs": [
        {
          "indexed": true,
          "internalType": "address",
          "name": "owner",
          "type": "address"
        },
        {
          "indexed": true,
          "internalType": "address",
          "name": "operator",
          "type": "address"
        },
        {
          "indexed": false,
          "internalType": "bool",
          "name": "approved",
          "type": "bool"
        }
      ],
      "name": "ApprovalForAll",
      "type": "event"
    },
    {
      "anonymous": false,
      "inputs": [
        {
          "indexed": false,
          "internalType": "address",
          "name": "sender",
          "type": "address"
        },
        {
          "indexed": false,
          "internalType": "uint256",
          "name": "tokenId",
          "type": "uint256"
        },
        {
          "indexed": false,
          "internalType": "uint256",
          "name": "playerIndex",
          "type": "uint256"
        }
      ],
      "name": "PlayerNFTMinted",
      "type": "event"
    },
    {
      "anonymous": false,
      "inputs": [
        {
          "indexed": true,
          "internalType": "address",
          "name": "from",
          "type": "address"
        },
        {
          "indexed": true,
          "internalType": "address",
          "name": "to",
          "type": "address"
        },
        {
          "indexed": true,
          "internalType": "uint256",
          "name": "tokenId",
          "type": "uint256"
        }
      ],
      "name": "Transfer",
      "type": "event"
    },
    {
      "inputs": [
        {
          "internalType": "address",
          "name": "to",
          "type": "address"
        },
        {
          "internalType": "uint256",
          "name": "tokenId",
          "type": "uint256"
        }
      ],
      "name": "approve",
      "outputs": [],
      "stateMutability": "nonpayable",
      "type": "function"
    },
    {
      "inputs": [
        {
          "internalType": "address",
          "name": "owner",
          "type": "address"
        }
      ],
      "name": "balanceOf",
      "outputs": [
        {
          "internalType": "uint256",
          "name": "",
          "type": "uint256"
        }
      ],
      "stateMutability": "view",
      "type": "function"
    },
    {
      "inputs": [],
      "name": "checkIfUserHasNFT",
      "outputs": [
        {
          "components": [
            {
              "internalType": "uint256",
              "name": "playerIndex",
              "type": "uint256"
            },
            {
              "internalType": "string",
              "name": "clan",
              "type": "string"
            },
            {
              "internalType": "string",
              "name": "color",
              "type": "string"
            },
            {
              "internalType": "string",
              "name": "imageURI",
              "type": "string"
            },
            {
              "internalType": "uint256",
              "name": "class",
              "type": "uint256"
            },
            {
              "internalType": "uint256",
              "name": "stealsLeft",
              "type": "uint256"
            },
            {
              "internalType": "uint256",
              "name": "maxSteals",
              "type": "uint256"
            },
            {
              "internalType": "uint256",
              "name": "totalStealsAttempted",
              "type": "uint256"
            },
            {
              "internalType": "uint256",
              "name": "daggerCount",
              "type": "uint256"
            },
            {
              "internalType": "uint256",
              "name": "shieldCount",
              "type": "uint256"
            },
            {
              "internalType": "uint256",
              "name": "level",
              "type": "uint256"
            }
          ],
          "internalType": "struct Thief.PlayerAttributes",
          "name": "",
          "type": "tuple"
        }
      ],
      "stateMutability": "view",
      "type": "function"
    },
    {
      "inputs": [
        {
          "internalType": "address",
          "name": "playerAdd",
          "type": "address"
        }
      ],
      "name": "getAPlayerNftDetails",
      "outputs": [
        {
          "components": [
            {
              "internalType": "uint256",
              "name": "playerIndex",
              "type": "uint256"
            },
            {
              "internalType": "string",
              "name": "clan",
              "type": "string"
            },
            {
              "internalType": "string",
              "name": "color",
              "type": "string"
            },
            {
              "internalType": "string",
              "name": "imageURI",
              "type": "string"
            },
            {
              "internalType": "uint256",
              "name": "class",
              "type": "uint256"
            },
            {
              "internalType": "uint256",
              "name": "stealsLeft",
              "type": "uint256"
            },
            {
              "internalType": "uint256",
              "name": "maxSteals",
              "type": "uint256"
            },
            {
              "internalType": "uint256",
              "name": "totalStealsAttempted",
              "type": "uint256"
            },
            {
              "internalType": "uint256",
              "name": "daggerCount",
              "type": "uint256"
            },
            {
              "internalType": "uint256",
              "name": "shieldCount",
              "type": "uint256"
            },
            {
              "internalType": "uint256",
              "name": "level",
              "type": "uint256"
            }
          ],
          "internalType": "struct Thief.PlayerAttributes",
          "name": "",
          "type": "tuple"
        }
      ],
      "stateMutability": "view",
      "type": "function"
    },
    {
      "inputs": [],
      "name": "getAllDefaultThiefs",
      "outputs": [
        {
          "components": [
            {
              "internalType": "uint256",
              "name": "playerIndex",
              "type": "uint256"
            },
            {
              "internalType": "string",
              "name": "clan",
              "type": "string"
            },
            {
              "internalType": "string",
              "name": "color",
              "type": "string"
            },
            {
              "internalType": "string",
              "name": "imageURI",
              "type": "string"
            },
            {
              "internalType": "uint256",
              "name": "class",
              "type": "uint256"
            },
            {
              "internalType": "uint256",
              "name": "stealsLeft",
              "type": "uint256"
            },
            {
              "internalType": "uint256",
              "name": "maxSteals",
              "type": "uint256"
            },
            {
              "internalType": "uint256",
              "name": "totalStealsAttempted",
              "type": "uint256"
            },
            {
              "internalType": "uint256",
              "name": "daggerCount",
              "type": "uint256"
            },
            {
              "internalType": "uint256",
              "name": "shieldCount",
              "type": "uint256"
            },
            {
              "internalType": "uint256",
              "name": "level",
              "type": "uint256"
            }
          ],
          "internalType": "struct Thief.PlayerAttributes[]",
          "name": "",
          "type": "tuple[]"
        }
      ],
      "stateMutability": "view",
      "type": "function"
    },
    {
      "inputs": [
        {
          "internalType": "uint256",
          "name": "tokenId",
          "type": "uint256"
        }
      ],
      "name": "getApproved",
      "outputs": [
        {
          "internalType": "address",
          "name": "",
          "type": "address"
        }
      ],
      "stateMutability": "view",
      "type": "function"
    },
    {
      "inputs": [],
      "name": "getPlayerAddresses",
      "outputs": [
        {
          "internalType": "address[]",
          "name": "",
          "type": "address[]"
        }
      ],
      "stateMutability": "view",
      "type": "function"
    },
    {
      "inputs": [
        {
          "internalType": "address",
          "name": "owner",
          "type": "address"
        },
        {
          "internalType": "address",
          "name": "operator",
          "type": "address"
        }
      ],
      "name": "isApprovedForAll",
      "outputs": [
        {
          "internalType": "bool",
          "name": "",
          "type": "bool"
        }
      ],
      "stateMutability": "view",
      "type": "function"
    },
    {
      "inputs": [],
      "name": "manager",
      "outputs": [
        {
          "internalType": "address",
          "name": "",
          "type": "address"
        }
      ],
      "stateMutability": "view",
      "type": "function"
    },
    {
      "inputs": [],
      "name": "managerCallResetSteals",
      "outputs": [],
      "stateMutability": "nonpayable",
      "type": "function"
    },
    {
      "inputs": [
        {
          "internalType": "uint256",
          "name": "_playerIndex",
          "type": "uint256"
        }
      ],
      "name": "mintThiefNFT",
      "outputs": [],
      "stateMutability": "nonpayable",
      "type": "function"
    },
    {
      "inputs": [],
      "name": "name",
      "outputs": [
        {
          "internalType": "string",
          "name": "",
          "type": "string"
        }
      ],
      "stateMutability": "view",
      "type": "function"
    },
    {
      "inputs": [
        {
          "internalType": "uint256",
          "name": "",
          "type": "uint256"
        }
      ],
      "name": "nftHolderAttributes",
      "outputs": [
        {
          "internalType": "uint256",
          "name": "playerIndex",
          "type": "uint256"
        },
        {
          "internalType": "string",
          "name": "clan",
          "type": "string"
        },
        {
          "internalType": "string",
          "name": "color",
          "type": "string"
        },
        {
          "internalType": "string",
          "name": "imageURI",
          "type": "string"
        },
        {
          "internalType": "uint256",
          "name": "class",
          "type": "uint256"
        },
        {
          "internalType": "uint256",
          "name": "stealsLeft",
          "type": "uint256"
        },
        {
          "internalType": "uint256",
          "name": "maxSteals",
          "type": "uint256"
        },
        {
          "internalType": "uint256",
          "name": "totalStealsAttempted",
          "type": "uint256"
        },
        {
          "internalType": "uint256",
          "name": "daggerCount",
          "type": "uint256"
        },
        {
          "internalType": "uint256",
          "name": "shieldCount",
          "type": "uint256"
        },
        {
          "internalType": "uint256",
          "name": "level",
          "type": "uint256"
        }
      ],
      "stateMutability": "view",
      "type": "function"
    },
    {
      "inputs": [
        {
          "internalType": "address",
          "name": "",
          "type": "address"
        }
      ],
      "name": "nftHolders",
      "outputs": [
        {
          "internalType": "uint256",
          "name": "",
          "type": "uint256"
        }
      ],
      "stateMutability": "view",
      "type": "function"
    },
    {
      "inputs": [
        {
          "internalType": "uint256",
          "name": "tokenId",
          "type": "uint256"
        }
      ],
      "name": "ownerOf",
      "outputs": [
        {
          "internalType": "address",
          "name": "",
          "type": "address"
        }
      ],
      "stateMutability": "view",
      "type": "function"
    },
    {
      "inputs": [
        {
          "internalType": "uint256",
          "name": "",
          "type": "uint256"
        }
      ],
      "name": "players",
      "outputs": [
        {
          "internalType": "address",
          "name": "",
          "type": "address"
        }
      ],
      "stateMutability": "view",
      "type": "function"
    },
    {
      "inputs": [
        {
          "internalType": "address",
          "name": "from",
          "type": "address"
        },
        {
          "internalType": "address",
          "name": "to",
          "type": "address"
        },
        {
          "internalType": "uint256",
          "name": "tokenId",
          "type": "uint256"
        }
      ],
      "name": "safeTransferFrom",
      "outputs": [],
      "stateMutability": "nonpayable",
      "type": "function"
    },
    {
      "inputs": [
        {
          "internalType": "address",
          "name": "from",
          "type": "address"
        },
        {
          "internalType": "address",
          "name": "to",
          "type": "address"
        },
        {
          "internalType": "uint256",
          "name": "tokenId",
          "type": "uint256"
        },
        {
          "internalType": "bytes",
          "name": "_data",
          "type": "bytes"
        }
      ],
      "name": "safeTransferFrom",
      "outputs": [],
      "stateMutability": "nonpayable",
      "type": "function"
    },
    {
      "inputs": [],
      "name": "sendShieldOnNumber",
      "outputs": [
        {
          "internalType": "uint256",
          "name": "",
          "type": "uint256"
        }
      ],
      "stateMutability": "view",
      "type": "function"
    },
    {
      "inputs": [
        {
          "internalType": "address",
          "name": "operator",
          "type": "address"
        },
        {
          "internalType": "bool",
          "name": "approved",
          "type": "bool"
        }
      ],
      "name": "setApprovalForAll",
      "outputs": [],
      "stateMutability": "nonpayable",
      "type": "function"
    },
    {
      "inputs": [
        {
          "internalType": "address",
          "name": "addressToStealFrom",
          "type": "address"
        }
      ],
      "name": "steal",
      "outputs": [],
      "stateMutability": "nonpayable",
      "type": "function"
    },
    {
      "inputs": [
        {
          "internalType": "bytes4",
          "name": "interfaceId",
          "type": "bytes4"
        }
      ],
      "name": "supportsInterface",
      "outputs": [
        {
          "internalType": "bool",
          "name": "",
          "type": "bool"
        }
      ],
      "stateMutability": "view",
      "type": "function"
    },
    {
      "inputs": [],
      "name": "symbol",
      "outputs": [
        {
          "internalType": "string",
          "name": "",
          "type": "string"
        }
      ],
      "stateMutability": "view",
      "type": "function"
    },
    {
      "inputs": [
        {
          "internalType": "uint256",
          "name": "_tokenId",
          "type": "uint256"
        }
      ],
      "name": "tokenURI",
      "outputs": [
        {
          "internalType": "string",
          "name": "",
          "type": "string"
        }
      ],
      "stateMutability": "view",
      "type": "function"
    },
    {
      "inputs": [
        {
          "internalType": "address",
          "name": "from",
          "type": "address"
        },
        {
          "internalType": "address",
          "name": "to",
          "type": "address"
        },
        {
          "internalType": "uint256",
          "name": "tokenId",
          "type": "uint256"
        }
      ],
      "name": "transferFrom",
      "outputs": [],
      "stateMutability": "nonpayable",
      "type": "function"
    },
    {
      "inputs": [
        {
          "internalType": "uint256",
          "name": "count",
          "type": "uint256"
        }
      ],
      "name": "updateSendShieldOnNumber",
      "outputs": [],
      "stateMutability": "nonpayable",
      "type": "function"
    }
  ],
  "bytecode": "0x60806040523480156200001157600080fd5b5060405162005a7538038062005a75833981810160405281019062000037919062000526565b6040518060400160405280600881526020017f54686569766172790000000000000000000000000000000000000000000000008152506040518060400160405280600581526020017f54484945460000000000000000000000000000000000000000000000000000008152508160009080519060200190620000bb92919062000347565b508060019080519060200190620000d492919062000347565b50505033600660006101000a81548173ffffffffffffffffffffffffffffffffffffffff021916908373ffffffffffffffffffffffffffffffffffffffff16021790555060005b83518110156200033557600060405180610160016040528083815260200186848151811062000173577f4e487b7100000000000000000000000000000000000000000000000000000000600052603260045260246000fd5b60200260200101518152602001858481518110620001ba577f4e487b7100000000000000000000000000000000000000000000000000000000600052603260045260246000fd5b6020026020010151815260200184848151811062000201577f4e487b7100000000000000000000000000000000000000000000000000000000600052603260045260246000fd5b6020026020010151815260200160008152602001600281526020016002815260200160008152602001600181526020016000815260200160008152509050600a8190806001815401808255809150506001900390600052602060002090600b02016000909190919091506000820151816000015560208201518160010190805190602001906200029392919062000347565b506040820151816002019080519060200190620002b292919062000347565b506060820151816003019080519060200190620002d192919062000347565b506080820151816004015560a0820151816005015560c0820151816006015560e082015181600701556101008201518160080155610120820151816009015561014082015181600a01555050506001816200032d919062000655565b90506200011b565b506004600781905550505050620007fc565b8280546200035590620006f2565b90600052602060002090601f016020900481019282620003795760008555620003c5565b82601f106200039457805160ff1916838001178555620003c5565b82800160010185558215620003c5579182015b82811115620003c4578251825591602001919060010190620003a7565b5b509050620003d49190620003d8565b5090565b5b80821115620003f3576000816000905550600101620003d9565b5090565b60006200040e6200040884620005f0565b620005c7565b905080838252602082019050828560208602820111156200042e57600080fd5b60005b858110156200047d57815167ffffffffffffffff8111156200045257600080fd5b808601620004618982620004f9565b8552602085019450602084019350505060018101905062000431565b5050509392505050565b60006200049e62000498846200061f565b620005c7565b905082815260208101848484011115620004b757600080fd5b620004c4848285620006bc565b509392505050565b600082601f830112620004de57600080fd5b8151620004f0848260208601620003f7565b91505092915050565b600082601f8301126200050b57600080fd5b81516200051d84826020860162000487565b91505092915050565b6000806000606084860312156200053c57600080fd5b600084015167ffffffffffffffff8111156200055757600080fd5b6200056586828701620004cc565b935050602084015167ffffffffffffffff8111156200058357600080fd5b6200059186828701620004cc565b925050604084015167ffffffffffffffff811115620005af57600080fd5b620005bd86828701620004cc565b9150509250925092565b6000620005d3620005e6565b9050620005e1828262000728565b919050565b6000604051905090565b600067ffffffffffffffff8211156200060e576200060d620007bc565b5b602082029050602081019050919050565b600067ffffffffffffffff8211156200063d576200063c620007bc565b5b6200064882620007eb565b9050602081019050919050565b60006200066282620006b2565b91506200066f83620006b2565b9250827fffffffffffffffffffffffffffffffffffffffffffffffffffffffffffffffff03821115620006a757620006a66200075e565b5b828201905092915050565b6000819050919050565b60005b83811015620006dc578082015181840152602081019050620006bf565b83811115620006ec576000848401525b50505050565b600060028204905060018216806200070b57607f821691505b602082108114156200072257620007216200078d565b5b50919050565b6200073382620007eb565b810181811067ffffffffffffffff82111715620007555762000754620007bc565b5b80604052505050565b7f4e487b7100000000000000000000000000000000000000000000000000000000600052601160045260246000fd5b7f4e487b7100000000000000000000000000000000000000000000000000000000600052602260045260246000fd5b7f4e487b7100000000000000000000000000000000000000000000000000000000600052604160045260246000fd5b6000601f19601f8301169050919050565b615269806200080c6000396000f3fe608060405234801561001057600080fd5b506004361061018e5760003560e01c80637df124a1116100de578063c87b56dd11610097578063e5a35b7111610071578063e5a35b711461048d578063e985e9c5146104bd578063f71d96cb146104ed578063ff0e292c1461051d5761018e565b8063c87b56dd14610423578063c8cf27f414610453578063d7f15aaa146104715761018e565b80637df124a1146103455780638b9642d41461037557806395d89b411461039357806398da4c95146103b1578063a22cb465146103eb578063b88d4fde146104075761018e565b8063481c6a751161014b5780635dc8abb2116101255780635dc8abb2146102ab5780636352211e146102c757806370a08231146102f7578063724d4924146103275761018e565b8063481c6a751461026557806356771b101461028357806357269247146102a15761018e565b806301ffc9a71461019357806306fdde03146101c3578063081812fc146101e1578063095ea7b31461021157806323b872dd1461022d57806342842e0e14610249575b600080fd5b6101ad60048036038101906101a8919061373e565b610539565b6040516101ba9190614222565b60405180910390f35b6101cb61061b565b6040516101d8919061423d565b60405180910390f35b6101fb60048036038101906101f69190613790565b6106ad565b6040516102089190614140565b60405180910390f35b61022b60048036038101906102269190613702565b610732565b005b610247600480360381019061024291906135fc565b61084a565b005b610263600480360381019061025e91906135fc565b6108aa565b005b61026d6108ca565b60405161027a9190614140565b60405180910390f35b61028b6108f0565b6040516102989190614461565b60405180910390f35b6102a96108f6565b005b6102c560048036038101906102c09190613597565b61095a565b005b6102e160048036038101906102dc9190613790565b610bbd565b6040516102ee9190614140565b60405180910390f35b610311600480360381019061030c9190613597565b610c6f565b60405161031e9190614461565b60405180910390f35b61032f610d27565b60405161033c91906141de565b60405180910390f35b61035f600480360381019061035a9190613597565b610db5565b60405161036c9190614461565b60405180910390f35b61037d610dcd565b60405161038a9190614200565b60405180910390f35b61039b611033565b6040516103a8919061423d565b60405180910390f35b6103cb60048036038101906103c69190613790565b6110c5565b6040516103e29b9a9998979695949392919061447c565b60405180910390f35b610405600480360381019061040091906136c6565b6112b7565b005b610421600480360381019061041c919061364b565b6112cd565b005b61043d60048036038101906104389190613790565b61132f565b60405161044a919061423d565b60405180910390f35b61045b61165e565b604051610468919061443f565b60405180910390f35b61048b60048036038101906104869190613790565b6118f0565b005b6104a760048036038101906104a29190613597565b611954565b6040516104b4919061443f565b60405180910390f35b6104d760048036038101906104d291906135c0565b611be8565b6040516104e49190614222565b60405180910390f35b61050760048036038101906105029190613790565b611c7c565b6040516105149190614140565b60405180910390f35b61053760048036038101906105329190613790565b611cbb565b005b60007f80ac58cd000000000000000000000000000000000000000000000000000000007bffffffffffffffffffffffffffffffffffffffffffffffffffffffff1916827bffffffffffffffffffffffffffffffffffffffffffffffffffffffff1916148061060457507f5b5e139f000000000000000000000000000000000000000000000000000000007bffffffffffffffffffffffffffffffffffffffffffffffffffffffff1916827bffffffffffffffffffffffffffffffffffffffffffffffffffffffff1916145b80610614575061061382612353565b5b9050919050565b60606000805461062a90614823565b80601f016020809104026020016040519081016040528092919081815260200182805461065690614823565b80156106a35780601f10610678576101008083540402835291602001916106a3565b820191906000526020600020905b81548152906001019060200180831161068657829003601f168201915b5050505050905090565b60006106b8826123bd565b6106f7576040517f08c379a00000000000000000000000000000000000000000000000000000000081526004016106ee906143bf565b60405180910390fd5b6004600083815260200190815260200160002060009054906101000a900473ffffffffffffffffffffffffffffffffffffffff169050919050565b600061073d82610bbd565b90508073ffffffffffffffffffffffffffffffffffffffff168373ffffffffffffffffffffffffffffffffffffffff1614156107ae576040517f08c379a00000000000000000000000000000000000000000000000000000000081526004016107a5906143df565b60405180910390fd5b8073ffffffffffffffffffffffffffffffffffffffff166107cd612429565b73ffffffffffffffffffffffffffffffffffffffff1614806107fc57506107fb816107f6612429565b611be8565b5b61083b576040517f08c379a00000000000000000000000000000000000000000000000000000000081526004016108329061433f565b60405180910390fd5b6108458383612431565b505050565b61085b610855612429565b826124ea565b61089a576040517f08c379a00000000000000000000000000000000000000000000000000000000081526004016108919061441f565b60405180910390fd5b6108a58383836125c8565b505050565b6108c5838383604051806020016040528060008152506112cd565b505050565b600660009054906101000a900473ffffffffffffffffffffffffffffffffffffffff1681565b60075481565b600660009054906101000a900473ffffffffffffffffffffffffffffffffffffffff1673ffffffffffffffffffffffffffffffffffffffff163373ffffffffffffffffffffffffffffffffffffffff161461095057600080fd5b61095861282f565b565b6000600c60003373ffffffffffffffffffffffffffffffffffffffff1673ffffffffffffffffffffffffffffffffffffffff1681526020019081526020016000205490506000600b6000838152602001908152602001600020905060008160050154116109fc576040517f08c379a00000000000000000000000000000000000000000000000000000000081526004016109f3906142df565b60405180910390fd5b6000600c60008573ffffffffffffffffffffffffffffffffffffffff1673ffffffffffffffffffffffffffffffffffffffff1681526020019081526020016000205490506000600b60008381526020019081526020016000209050600081600801541180610a6e575060008160090154115b610aad576040517f08c379a0000000000000000000000000000000000000000000000000000000008152600401610aa4906143ff565b60405180910390fd5b600081600901541115610b13576001836009016000828254610acf9190614658565b925050819055506001836005016000828254610aeb9190614739565b925050819055506001816009016000828254610b079190614739565b92505081905550610b68565b6001836008016000828254610b289190614658565b925050819055506001836005016000828254610b449190614739565b925050819055506001816008016000828254610b609190614739565b925050819055505b60018360070154610b799190614658565b8360070181905550610b8b600961294b565b6000600d80549050610b9d6009612961565b610ba791906148d9565b1415610bb657610bb561282f565b5b5050505050565b6000806002600084815260200190815260200160002060009054906101000a900473ffffffffffffffffffffffffffffffffffffffff169050600073ffffffffffffffffffffffffffffffffffffffff168173ffffffffffffffffffffffffffffffffffffffff161415610c66576040517f08c379a0000000000000000000000000000000000000000000000000000000008152600401610c5d9061437f565b60405180910390fd5b80915050919050565b60008073ffffffffffffffffffffffffffffffffffffffff168273ffffffffffffffffffffffffffffffffffffffff161415610ce0576040517f08c379a0000000000000000000000000000000000000000000000000000000008152600401610cd79061435f565b60405180910390fd5b600360008373ffffffffffffffffffffffffffffffffffffffff1673ffffffffffffffffffffffffffffffffffffffff168152602001908152602001600020549050919050565b6060600d805480602002602001604051908101604052809291908181526020018280548015610dab57602002820191906000526020600020905b8160009054906101000a900473ffffffffffffffffffffffffffffffffffffffff1673ffffffffffffffffffffffffffffffffffffffff1681526020019060010190808311610d61575b5050505050905090565b600c6020528060005260406000206000915090505481565b6060600a805480602002602001604051908101604052809291908181526020016000905b8282101561102a57838290600052602060002090600b02016040518061016001604052908160008201548152602001600182018054610e2f90614823565b80601f0160208091040260200160405190810160405280929190818152602001828054610e5b90614823565b8015610ea85780601f10610e7d57610100808354040283529160200191610ea8565b820191906000526020600020905b815481529060010190602001808311610e8b57829003601f168201915b50505050508152602001600282018054610ec190614823565b80601f0160208091040260200160405190810160405280929190818152602001828054610eed90614823565b8015610f3a5780601f10610f0f57610100808354040283529160200191610f3a565b820191906000526020600020905b815481529060010190602001808311610f1d57829003601f168201915b50505050508152602001600382018054610f5390614823565b80601f0160208091040260200160405190810160405280929190818152602001828054610f7f90614823565b8015610fcc5780601f10610fa157610100808354040283529160200191610fcc565b820191906000526020600020905b815481529060010190602001808311610faf57829003601f168201915b50505050508152602001600482015481526020016005820154815260200160068201548152602001600782015481526020016008820154815260200160098201548152602001600a8201548152505081526020019060010190610df1565b50505050905090565b60606001805461104290614823565b80601f016020809104026020016040519081016040528092919081815260200182805461106e90614823565b80156110bb5780601f10611090576101008083540402835291602001916110bb565b820191906000526020600020905b81548152906001019060200180831161109e57829003601f168201915b5050505050905090565b600b6020528060005260406000206000915090508060000154908060010180546110ee90614823565b80601f016020809104026020016040519081016040528092919081815260200182805461111a90614823565b80156111675780601f1061113c57610100808354040283529160200191611167565b820191906000526020600020905b81548152906001019060200180831161114a57829003601f168201915b50505050509080600201805461117c90614823565b80601f01602080910402602001604051908101604052809291908181526020018280546111a890614823565b80156111f55780601f106111ca576101008083540402835291602001916111f5565b820191906000526020600020905b8154815290600101906020018083116111d857829003601f168201915b50505050509080600301805461120a90614823565b80601f016020809104026020016040519081016040528092919081815260200182805461123690614823565b80156112835780601f1061125857610100808354040283529160200191611283565b820191906000526020600020905b81548152906001019060200180831161126657829003601f168201915b50505050509080600401549080600501549080600601549080600701549080600801549080600901549080600a015490508b565b6112c96112c2612429565b838361296f565b5050565b6112de6112d8612429565b836124ea565b61131d576040517f08c379a00000000000000000000000000000000000000000000000000000000081526004016113149061441f565b60405180910390fd5b61132984848484612adc565b50505050565b60606000600b6000848152602001908152602001600020604051806101600160405290816000820154815260200160018201805461136c90614823565b80601f016020809104026020016040519081016040528092919081815260200182805461139890614823565b80156113e55780601f106113ba576101008083540402835291602001916113e5565b820191906000526020600020905b8154815290600101906020018083116113c857829003601f168201915b505050505081526020016002820180546113fe90614823565b80601f016020809104026020016040519081016040528092919081815260200182805461142a90614823565b80156114775780601f1061144c57610100808354040283529160200191611477565b820191906000526020600020905b81548152906001019060200180831161145a57829003601f168201915b5050505050815260200160038201805461149090614823565b80601f01602080910402602001604051908101604052809291908181526020018280546114bc90614823565b80156115095780601f106114de57610100808354040283529160200191611509565b820191906000526020600020905b8154815290600101906020018083116114ec57829003601f168201915b50505050508152602001600482015481526020016005820154815260200160068201548152602001600782015481526020016008820154815260200160098201548152602001600a82015481525050905060006115698260800151612b38565b9050600061157a8360a00151612b38565b9050600061158b8460c00151612b38565b9050600061159c8560e00151612b38565b905060006115ae866101000151612b38565b905060006115c0876101200151612b38565b905060006115d2886101400151612b38565b905060006116266115e28c612b38565b8a606001518b602001518c604001518c8c8c8c8c8c8c6040516020016116129b9a99989796959493929190613fc4565b604051602081830303815290604052612ce5565b905060008160405160200161163b91906140e1565b6040516020818303038152906040529050809a5050505050505050505050919050565b6116666133c9565b6000600c60003373ffffffffffffffffffffffffffffffffffffffff1673ffffffffffffffffffffffffffffffffffffffff168152602001908152602001600020549050600081106118df57600b600082815260200190815260200160002060405180610160016040529081600082015481526020016001820180546116eb90614823565b80601f016020809104026020016040519081016040528092919081815260200182805461171790614823565b80156117645780601f1061173957610100808354040283529160200191611764565b820191906000526020600020905b81548152906001019060200180831161174757829003601f168201915b5050505050815260200160028201805461177d90614823565b80601f01602080910402602001604051908101604052809291908181526020018280546117a990614823565b80156117f65780601f106117cb576101008083540402835291602001916117f6565b820191906000526020600020905b8154815290600101906020018083116117d957829003601f168201915b5050505050815260200160038201805461180f90614823565b80601f016020809104026020016040519081016040528092919081815260200182805461183b90614823565b80156118885780601f1061185d57610100808354040283529160200191611888565b820191906000526020600020905b81548152906001019060200180831161186b57829003601f168201915b50505050508152602001600482015481526020016005820154815260200160068201548152602001600782015481526020016008820154815260200160098201548152602001600a820154815250509150506118ed565b6118e76133c9565b80925050505b90565b600660009054906101000a900473ffffffffffffffffffffffffffffffffffffffff1673ffffffffffffffffffffffffffffffffffffffff163373ffffffffffffffffffffffffffffffffffffffff161461194a57600080fd5b8060078190555050565b61195c6133c9565b6000600c60008473ffffffffffffffffffffffffffffffffffffffff1673ffffffffffffffffffffffffffffffffffffffff16815260200190815260200160002054905060008110611bd557600b600082815260200190815260200160002060405180610160016040529081600082015481526020016001820180546119e190614823565b80601f0160208091040260200160405190810160405280929190818152602001828054611a0d90614823565b8015611a5a5780601f10611a2f57610100808354040283529160200191611a5a565b820191906000526020600020905b815481529060010190602001808311611a3d57829003601f168201915b50505050508152602001600282018054611a7390614823565b80601f0160208091040260200160405190810160405280929190818152602001828054611a9f90614823565b8015611aec5780601f10611ac157610100808354040283529160200191611aec565b820191906000526020600020905b815481529060010190602001808311611acf57829003601f168201915b50505050508152602001600382018054611b0590614823565b80601f0160208091040260200160405190810160405280929190818152602001828054611b3190614823565b8015611b7e5780601f10611b5357610100808354040283529160200191611b7e565b820191906000526020600020905b815481529060010190602001808311611b6157829003601f168201915b50505050508152602001600482015481526020016005820154815260200160068201548152602001600782015481526020016008820154815260200160098201548152602001600a82015481525050915050611be3565b611bdd6133c9565b80925050505b919050565b6000600560008473ffffffffffffffffffffffffffffffffffffffff1673ffffffffffffffffffffffffffffffffffffffff16815260200190815260200160002060008373ffffffffffffffffffffffffffffffffffffffff1673ffffffffffffffffffffffffffffffffffffffff16815260200190815260200160002060009054906101000a900460ff16905092915050565b600d8181548110611c8c57600080fd5b906000526020600020016000915054906101000a900473ffffffffffffffffffffffffffffffffffffffff1681565b6000611cc76008612961565b9050611cd33382612e6f565b60006001606483611ce491906146ae565b611cee9190614658565b9050604051806101600160405280848152602001600a8581548110611d3c577f4e487b7100000000000000000000000000000000000000000000000000000000600052603260045260246000fd5b90600052602060002090600b02016001018054611d5890614823565b80601f0160208091040260200160405190810160405280929190818152602001828054611d8490614823565b8015611dd15780601f10611da657610100808354040283529160200191611dd1565b820191906000526020600020905b815481529060010190602001808311611db457829003601f168201915b50505050508152602001600a8581548110611e15577f4e487b7100000000000000000000000000000000000000000000000000000000600052603260045260246000fd5b90600052602060002090600b02016002018054611e3190614823565b80601f0160208091040260200160405190810160405280929190818152602001828054611e5d90614823565b8015611eaa5780601f10611e7f57610100808354040283529160200191611eaa565b820191906000526020600020905b815481529060010190602001808311611e8d57829003601f168201915b50505050508152602001600a8581548110611eee577f4e487b7100000000000000000000000000000000000000000000000000000000600052603260045260246000fd5b90600052602060002090600b02016003018054611f0a90614823565b80601f0160208091040260200160405190810160405280929190818152602001828054611f3690614823565b8015611f835780601f10611f5857610100808354040283529160200191611f83565b820191906000526020600020905b815481529060010190602001808311611f6657829003601f168201915b50505050508152602001828152602001600a8581548110611fcd577f4e487b7100000000000000000000000000000000000000000000000000000000600052603260045260246000fd5b90600052602060002090600b0201600501548152602001600a858154811061201e577f4e487b7100000000000000000000000000000000000000000000000000000000600052603260045260246000fd5b90600052602060002090600b0201600601548152602001600a858154811061206f577f4e487b7100000000000000000000000000000000000000000000000000000000600052603260045260246000fd5b90600052602060002090600b0201600701548152602001600a85815481106120c0577f4e487b7100000000000000000000000000000000000000000000000000000000600052603260045260246000fd5b90600052602060002090600b0201600801548152602001600a8581548110612111577f4e487b7100000000000000000000000000000000000000000000000000000000600052603260045260246000fd5b90600052602060002090600b0201600901548152602001600a8581548110612162577f4e487b7100000000000000000000000000000000000000000000000000000000600052603260045260246000fd5b90600052602060002090600b0201600a0154815250600b60008481526020019081526020016000206000820151816000015560208201518160010190805190602001906121b0929190613423565b5060408201518160020190805190602001906121cd929190613423565b5060608201518160030190805190602001906121ea929190613423565b506080820151816004015560a0820151816005015560c0820151816006015560e082015181600701556101008201518160080155610120820151816009015561014082015181600a015590505081600c60003373ffffffffffffffffffffffffffffffffffffffff1673ffffffffffffffffffffffffffffffffffffffff16815260200190815260200160002081905550600d339080600181540180825580915050600190039060005260206000200160009091909190916101000a81548173ffffffffffffffffffffffffffffffffffffffff021916908373ffffffffffffffffffffffffffffffffffffffff1602179055506122e8600861294b565b7f0519bf630ad944dce720bc3e1864c7a4405f2ce5c7eba2fff70d975d7cf5c29833838560405161231b939291906141a7565b60405180910390a160006007546001846123359190614658565b61233f91906148d9565b141561234e5761234d612e8d565b5b505050565b60007f01ffc9a7000000000000000000000000000000000000000000000000000000007bffffffffffffffffffffffffffffffffffffffffffffffffffffffff1916827bffffffffffffffffffffffffffffffffffffffffffffffffffffffff1916149050919050565b60008073ffffffffffffffffffffffffffffffffffffffff166002600084815260200190815260200160002060009054906101000a900473ffffffffffffffffffffffffffffffffffffffff1673ffffffffffffffffffffffffffffffffffffffff1614159050919050565b600033905090565b816004600083815260200190815260200160002060006101000a81548173ffffffffffffffffffffffffffffffffffffffff021916908373ffffffffffffffffffffffffffffffffffffffff160217905550808273ffffffffffffffffffffffffffffffffffffffff166124a483610bbd565b73ffffffffffffffffffffffffffffffffffffffff167f8c5be1e5ebec7d5bd14f71427d1e84f3dd0314c0f7b2291e5b200ac8c7c3b92560405160405180910390a45050565b60006124f5826123bd565b612534576040517f08c379a000000000000000000000000000000000000000000000000000000000815260040161252b9061431f565b60405180910390fd5b600061253f83610bbd565b90508073ffffffffffffffffffffffffffffffffffffffff168473ffffffffffffffffffffffffffffffffffffffff16148061258157506125808185611be8565b5b806125bf57508373ffffffffffffffffffffffffffffffffffffffff166125a7846106ad565b73ffffffffffffffffffffffffffffffffffffffff16145b91505092915050565b8273ffffffffffffffffffffffffffffffffffffffff166125e882610bbd565b73ffffffffffffffffffffffffffffffffffffffff161461263e576040517f08c379a00000000000000000000000000000000000000000000000000000000081526004016126359061427f565b60405180910390fd5b600073ffffffffffffffffffffffffffffffffffffffff168273ffffffffffffffffffffffffffffffffffffffff1614156126ae576040517f08c379a00000000000000000000000000000000000000000000000000000000081526004016126a5906142bf565b60405180910390fd5b6126b9838383612f90565b6126c4600082612431565b6001600360008573ffffffffffffffffffffffffffffffffffffffff1673ffffffffffffffffffffffffffffffffffffffff16815260200190815260200160002060008282546127149190614739565b925050819055506001600360008473ffffffffffffffffffffffffffffffffffffffff1673ffffffffffffffffffffffffffffffffffffffff168152602001908152602001600020600082825461276b9190614658565b92505081905550816002600083815260200190815260200160002060006101000a81548173ffffffffffffffffffffffffffffffffffffffff021916908373ffffffffffffffffffffffffffffffffffffffff160217905550808273ffffffffffffffffffffffffffffffffffffffff168473ffffffffffffffffffffffffffffffffffffffff167fddf252ad1be2c89b69c2b068fc378daa952ba7f163c4a11628f55a4df523b3ef60405160405180910390a461282a838383612f95565b505050565b60005b600d80549050811015612948576000600c6000600d848154811061287f577f4e487b7100000000000000000000000000000000000000000000000000000000600052603260045260246000fd5b9060005260206000200160009054906101000a900473ffffffffffffffffffffffffffffffffffffffff1673ffffffffffffffffffffffffffffffffffffffff1673ffffffffffffffffffffffffffffffffffffffff1681526020019081526020016000205490506000600b6000838152602001908152602001600020905060028160080154111561292857600181600a0160008282546129209190614658565b925050819055505b6002816005018190555050506001816129419190614658565b9050612832565b50565b6001816000016000828254019250508190555050565b600081600001549050919050565b8173ffffffffffffffffffffffffffffffffffffffff168373ffffffffffffffffffffffffffffffffffffffff1614156129de576040517f08c379a00000000000000000000000000000000000000000000000000000000081526004016129d5906142ff565b60405180910390fd5b80600560008573ffffffffffffffffffffffffffffffffffffffff1673ffffffffffffffffffffffffffffffffffffffff16815260200190815260200160002060008473ffffffffffffffffffffffffffffffffffffffff1673ffffffffffffffffffffffffffffffffffffffff16815260200190815260200160002060006101000a81548160ff0219169083151502179055508173ffffffffffffffffffffffffffffffffffffffff168373ffffffffffffffffffffffffffffffffffffffff167f17307eab39ab6107e8899845ad3d59bd9653f200f220920489ca2b5937696c3183604051612acf9190614222565b60405180910390a3505050565b612ae78484846125c8565b612af384848484612f9a565b612b32576040517f08c379a0000000000000000000000000000000000000000000000000000000008152600401612b299061425f565b60405180910390fd5b50505050565b60606000821415612b80576040518060400160405280600181526020017f30000000000000000000000000000000000000000000000000000000000000008152509050612ce0565b600082905060005b60008214612bb2578080612b9b90614886565b915050600a82612bab91906146ae565b9150612b88565b60008167ffffffffffffffff811115612bf4577f4e487b7100000000000000000000000000000000000000000000000000000000600052604160045260246000fd5b6040519080825280601f01601f191660200182016040528015612c265781602001600182028036833780820191505090505b5090505b60008514612cd957600182612c3f9190614739565b9150600a85612c4e91906148d9565b6030612c5a9190614658565b60f81b818381518110612c96577f4e487b7100000000000000000000000000000000000000000000000000000000600052603260045260246000fd5b60200101907effffffffffffffffffffffffffffffffffffffffffffffffffffffffffffff1916908160001a905350600a85612cd291906146ae565b9450612c2a565b8093505050505b919050565b6060600082511415612d0857604051806020016040528060008152509050612e6a565b60006040518060600160405280604081526020016151f46040913990506000600360028551612d379190614658565b612d4191906146ae565b6004612d4d91906146df565b67ffffffffffffffff811115612d8c577f4e487b7100000000000000000000000000000000000000000000000000000000600052604160045260246000fd5b6040519080825280601f01601f191660200182016040528015612dbe5781602001600182028036833780820191505090505b509050600182016020820185865187015b80821015612e2a576003820191508151603f8160121c168501518453600184019350603f81600c1c168501518453600184019350603f8160061c168501518453600184019350603f8116850151845360018401935050612dcf565b5050600386510660018114612e465760028114612e5957612e61565b603d6001830353603d6002830353612e61565b603d60018303535b50505080925050505b919050565b612e89828260405180602001604052806000815250613131565b5050565b6000612e996008612961565b612ea161318c565b612eab91906148d9565b90506000600d8281548110612ee9577f4e487b7100000000000000000000000000000000000000000000000000000000600052603260045260246000fd5b9060005260206000200160009054906101000a900473ffffffffffffffffffffffffffffffffffffffff1690506000600c60008373ffffffffffffffffffffffffffffffffffffffff1673ffffffffffffffffffffffffffffffffffffffff1681526020019081526020016000205490506000600b6000838152602001908152602001600020905060018160090154612f829190614658565b816009018190555050505050565b505050565b505050565b6000612fbb8473ffffffffffffffffffffffffffffffffffffffff166131cc565b15613124578373ffffffffffffffffffffffffffffffffffffffff1663150b7a02612fe4612429565b8786866040518563ffffffff1660e01b8152600401613006949392919061415b565b602060405180830381600087803b15801561302057600080fd5b505af192505050801561305157506040513d601f19601f8201168201806040525081019061304e9190613767565b60015b6130d4573d8060008114613081576040519150601f19603f3d011682016040523d82523d6000602084013e613086565b606091505b506000815114156130cc576040517f08c379a00000000000000000000000000000000000000000000000000000000081526004016130c39061425f565b60405180910390fd5b805181602001fd5b63150b7a0260e01b7bffffffffffffffffffffffffffffffffffffffffffffffffffffffff1916817bffffffffffffffffffffffffffffffffffffffffffffffffffffffff191614915050613129565b600190505b949350505050565b61313b83836131ef565b6131486000848484612f9a565b613187576040517f08c379a000000000000000000000000000000000000000000000000000000000815260040161317e9061425f565b60405180910390fd5b505050565b60004442444261319c91906146df565b6040516020016131ae93929190614103565b6040516020818303038152906040528051906020012060001c905090565b6000808273ffffffffffffffffffffffffffffffffffffffff163b119050919050565b600073ffffffffffffffffffffffffffffffffffffffff168273ffffffffffffffffffffffffffffffffffffffff16141561325f576040517f08c379a00000000000000000000000000000000000000000000000000000000081526004016132569061439f565b60405180910390fd5b613268816123bd565b156132a8576040517f08c379a000000000000000000000000000000000000000000000000000000000815260040161329f9061429f565b60405180910390fd5b6132b460008383612f90565b6001600360008473ffffffffffffffffffffffffffffffffffffffff1673ffffffffffffffffffffffffffffffffffffffff16815260200190815260200160002060008282546133049190614658565b92505081905550816002600083815260200190815260200160002060006101000a81548173ffffffffffffffffffffffffffffffffffffffff021916908373ffffffffffffffffffffffffffffffffffffffff160217905550808273ffffffffffffffffffffffffffffffffffffffff16600073ffffffffffffffffffffffffffffffffffffffff167fddf252ad1be2c89b69c2b068fc378daa952ba7f163c4a11628f55a4df523b3ef60405160405180910390a46133c560008383612f95565b5050565b60405180610160016040528060008152602001606081526020016060815260200160608152602001600081526020016000815260200160008152602001600081526020016000815260200160008152602001600081525090565b82805461342f90614823565b90600052602060002090601f0160209004810192826134515760008555613498565b82601f1061346a57805160ff1916838001178555613498565b82800160010185558215613498579182015b8281111561349757825182559160200191906001019061347c565b5b5090506134a591906134a9565b5090565b5b808211156134c25760008160009055506001016134aa565b5090565b60006134d96134d484614561565b61453c565b9050828152602081018484840111156134f157600080fd5b6134fc8482856147e1565b509392505050565b60008135905061351381615197565b92915050565b600081359050613528816151ae565b92915050565b60008135905061353d816151c5565b92915050565b600081519050613552816151c5565b92915050565b600082601f83011261356957600080fd5b81356135798482602086016134c6565b91505092915050565b600081359050613591816151dc565b92915050565b6000602082840312156135a957600080fd5b60006135b784828501613504565b91505092915050565b600080604083850312156135d357600080fd5b60006135e185828601613504565b92505060206135f285828601613504565b9150509250929050565b60008060006060848603121561361157600080fd5b600061361f86828701613504565b935050602061363086828701613504565b925050604061364186828701613582565b9150509250925092565b6000806000806080858703121561366157600080fd5b600061366f87828801613504565b945050602061368087828801613504565b935050604061369187828801613582565b925050606085013567ffffffffffffffff8111156136ae57600080fd5b6136ba87828801613558565b91505092959194509250565b600080604083850312156136d957600080fd5b60006136e785828601613504565b92505060206136f885828601613519565b9150509250929050565b6000806040838503121561371557600080fd5b600061372385828601613504565b925050602061373485828601613582565b9150509250929050565b60006020828403121561375057600080fd5b600061375e8482850161352e565b91505092915050565b60006020828403121561377957600080fd5b600061378784828501613543565b91505092915050565b6000602082840312156137a257600080fd5b60006137b084828501613582565b91505092915050565b60006137c583836137e5565b60208301905092915050565b60006137dd8383613d95565b905092915050565b6137ee8161476d565b82525050565b6137fd8161476d565b82525050565b600061380e826145b2565b61381881856145f8565b935061382383614592565b8060005b8381101561385457815161383b88826137b9565b9750613846836145de565b925050600181019050613827565b5085935050505092915050565b600061386c826145bd565b6138768185614609565b935083602082028501613888856145a2565b8060005b858110156138c457848403895281516138a585826137d1565b94506138b0836145eb565b925060208a0199505060018101905061388c565b50829750879550505050505092915050565b6138df8161477f565b82525050565b60006138f0826145c8565b6138fa818561461a565b935061390a8185602086016147f0565b613913816149c6565b840191505092915050565b6000613929826145d3565b613933818561462b565b93506139438185602086016147f0565b61394c816149c6565b840191505092915050565b6000613962826145d3565b61396c818561463c565b935061397c8185602086016147f0565b613985816149c6565b840191505092915050565b600061399b826145d3565b6139a5818561464d565b93506139b58185602086016147f0565b80840191505092915050565b60006139ce60328361463c565b91506139d9826149d7565b604082019050919050565b60006139f160258361463c565b91506139fc82614a26565b604082019050919050565b6000613a14601c8361463c565b9150613a1f82614a75565b602082019050919050565b6000613a3760268361464d565b9150613a4282614a9e565b602682019050919050565b6000613a5a60248361463c565b9150613a6582614aed565b604082019050919050565b6000613a7d603a8361463c565b9150613a8882614b3c565b604082019050919050565b6000613aa060198361463c565b9150613aab82614b8b565b602082019050919050565b6000613ac3605a8361464d565b9150613ace82614bb4565b605a82019050919050565b6000613ae6600f8361464d565b9150613af182614c29565b600f82019050919050565b6000613b0960168361464d565b9150613b1482614c52565b601682019050919050565b6000613b2c602c8361463c565b9150613b3782614c7b565b604082019050919050565b6000613b4f60278361464d565b9150613b5a82614cca565b602782019050919050565b6000613b7260388361463c565b9150613b7d82614d19565b604082019050919050565b6000613b95602a8361463c565b9150613ba082614d68565b604082019050919050565b6000613bb860298361463c565b9150613bc382614db7565b604082019050919050565b6000613bdb602b8361464d565b9150613be682614e06565b602b82019050919050565b6000613bfe60048361464d565b9150613c0982614e55565b600482019050919050565b6000613c2160248361464d565b9150613c2c82614e7e565b602482019050919050565b6000613c4460208361463c565b9150613c4f82614ecd565b602082019050919050565b6000613c67602c8361463c565b9150613c7282614ef6565b604082019050919050565b6000613c8a60348361464d565b9150613c9582614f45565b603482019050919050565b6000613cad602b8361464d565b9150613cb882614f94565b602b82019050919050565b6000613cd060218361463c565b9150613cdb82614fe3565b604082019050919050565b6000613cf3601d8361464d565b9150613cfe82615032565b601d82019050919050565b6000613d16603c8361463c565b9150613d218261505b565b604082019050919050565b6000613d3960318361463c565b9150613d44826150aa565b604082019050919050565b6000613d5c602c8361464d565b9150613d67826150f9565b602c82019050919050565b6000613d7f60358361464d565b9150613d8a82615148565b603582019050919050565b600061016083016000830151613dae6000860182613f8f565b5060208301518482036020860152613dc6828261391e565b91505060408301518482036040860152613de0828261391e565b91505060608301518482036060860152613dfa828261391e565b9150506080830151613e0f6080860182613f8f565b5060a0830151613e2260a0860182613f8f565b5060c0830151613e3560c0860182613f8f565b5060e0830151613e4860e0860182613f8f565b50610100830151613e5d610100860182613f8f565b50610120830151613e72610120860182613f8f565b50610140830151613e87610140860182613f8f565b508091505092915050565b600061016083016000830151613eab6000860182613f8f565b5060208301518482036020860152613ec3828261391e565b91505060408301518482036040860152613edd828261391e565b91505060608301518482036060860152613ef7828261391e565b9150506080830151613f0c6080860182613f8f565b5060a0830151613f1f60a0860182613f8f565b5060c0830151613f3260c0860182613f8f565b5060e0830151613f4560e0860182613f8f565b50610100830151613f5a610100860182613f8f565b50610120830151613f6f610120860182613f8f565b50610140830151613f84610140860182613f8f565b508091505092915050565b613f98816147d7565b82525050565b613fa7816147d7565b82525050565b613fbe613fb9826147d7565b6148cf565b82525050565b6000613fcf82613afc565b9150613fdb828e613990565b9150613fe682613ab6565b9150613ff2828d613990565b9150613ffd82613c7d565b9150614009828c613990565b915061401482613a2a565b9150614020828b613990565b915061402b82613b42565b9150614037828a613990565b915061404282613d4f565b915061404e8289613990565b915061405982613ad9565b91506140658288613990565b915061407082613d72565b915061407c8287613990565b915061408782613bce565b91506140938286613990565b915061409e82613ca0565b91506140aa8285613990565b91506140b582613c14565b91506140c18284613990565b91506140cc82613bf1565b91508190509c9b505050505050505050505050565b60006140ec82613ce6565b91506140f88284613990565b915081905092915050565b600061410f8286613fad565b60208201915061411f8285613fad565b60208201915061412f8284613fad565b602082019150819050949350505050565b600060208201905061415560008301846137f4565b92915050565b600060808201905061417060008301876137f4565b61417d60208301866137f4565b61418a6040830185613f9e565b818103606083015261419c81846138e5565b905095945050505050565b60006060820190506141bc60008301866137f4565b6141c96020830185613f9e565b6141d66040830184613f9e565b949350505050565b600060208201905081810360008301526141f88184613803565b905092915050565b6000602082019050818103600083015261421a8184613861565b905092915050565b600060208201905061423760008301846138d6565b92915050565b600060208201905081810360008301526142578184613957565b905092915050565b60006020820190508181036000830152614278816139c1565b9050919050565b60006020820190508181036000830152614298816139e4565b9050919050565b600060208201905081810360008301526142b881613a07565b9050919050565b600060208201905081810360008301526142d881613a4d565b9050919050565b600060208201905081810360008301526142f881613a70565b9050919050565b6000602082019050818103600083015261431881613a93565b9050919050565b6000602082019050818103600083015261433881613b1f565b9050919050565b6000602082019050818103600083015261435881613b65565b9050919050565b6000602082019050818103600083015261437881613b88565b9050919050565b6000602082019050818103600083015261439881613bab565b9050919050565b600060208201905081810360008301526143b881613c37565b9050919050565b600060208201905081810360008301526143d881613c5a565b9050919050565b600060208201905081810360008301526143f881613cc3565b9050919050565b6000602082019050818103600083015261441881613d09565b9050919050565b6000602082019050818103600083015261443881613d2c565b9050919050565b600060208201905081810360008301526144598184613e92565b905092915050565b60006020820190506144766000830184613f9e565b92915050565b600061016082019050614492600083018e613f9e565b81810360208301526144a4818d613957565b905081810360408301526144b8818c613957565b905081810360608301526144cc818b613957565b90506144db608083018a613f9e565b6144e860a0830189613f9e565b6144f560c0830188613f9e565b61450260e0830187613f9e565b614510610100830186613f9e565b61451e610120830185613f9e565b61452c610140830184613f9e565b9c9b505050505050505050505050565b6000614546614557565b90506145528282614855565b919050565b6000604051905090565b600067ffffffffffffffff82111561457c5761457b614997565b5b614585826149c6565b9050602081019050919050565b6000819050602082019050919050565b6000819050602082019050919050565b600081519050919050565b600081519050919050565b600081519050919050565b600081519050919050565b6000602082019050919050565b6000602082019050919050565b600082825260208201905092915050565b600082825260208201905092915050565b600082825260208201905092915050565b600082825260208201905092915050565b600082825260208201905092915050565b600081905092915050565b6000614663826147d7565b915061466e836147d7565b9250827fffffffffffffffffffffffffffffffffffffffffffffffffffffffffffffffff038211156146a3576146a261490a565b5b828201905092915050565b60006146b9826147d7565b91506146c4836147d7565b9250826146d4576146d3614939565b5b828204905092915050565b60006146ea826147d7565b91506146f5836147d7565b9250817fffffffffffffffffffffffffffffffffffffffffffffffffffffffffffffffff048311821515161561472e5761472d61490a565b5b828202905092915050565b6000614744826147d7565b915061474f836147d7565b9250828210156147625761476161490a565b5b828203905092915050565b6000614778826147b7565b9050919050565b60008115159050919050565b60007fffffffff0000000000000000000000000000000000000000000000000000000082169050919050565b600073ffffffffffffffffffffffffffffffffffffffff82169050919050565b6000819050919050565b82818337600083830152505050565b60005b8381101561480e5780820151818401526020810190506147f3565b8381111561481d576000848401525b50505050565b6000600282049050600182168061483b57607f821691505b6020821081141561484f5761484e614968565b5b50919050565b61485e826149c6565b810181811067ffffffffffffffff8211171561487d5761487c614997565b5b80604052505050565b6000614891826147d7565b91507fffffffffffffffffffffffffffffffffffffffffffffffffffffffffffffffff8214156148c4576148c361490a565b5b600182019050919050565b6000819050919050565b60006148e4826147d7565b91506148ef836147d7565b9250826148ff576148fe614939565b5b828206905092915050565b7f4e487b7100000000000000000000000000000000000000000000000000000000600052601160045260246000fd5b7f4e487b7100000000000000000000000000000000000000000000000000000000600052601260045260246000fd5b7f4e487b7100000000000000000000000000000000000000000000000000000000600052602260045260246000fd5b7f4e487b7100000000000000000000000000000000000000000000000000000000600052604160045260246000fd5b6000601f19601f8301169050919050565b7f4552433732313a207472616e7366657220746f206e6f6e20455243373231526560008201527f63656976657220696d706c656d656e7465720000000000000000000000000000602082015250565b7f4552433732313a207472616e736665722066726f6d20696e636f72726563742060008201527f6f776e6572000000000000000000000000000000000000000000000000000000602082015250565b7f4552433732313a20746f6b656e20616c7265616479206d696e74656400000000600082015250565b7f227d2c207b2274726169745f74797065223a2022436f6c6f72222c202276616c60008201527f7565223a20220000000000000000000000000000000000000000000000000000602082015250565b7f4552433732313a207472616e7366657220746f20746865207a65726f2061646460008201527f7265737300000000000000000000000000000000000000000000000000000000602082015250565b7f4572726f723a20706c61796572207468696566206d757374206861766520617460008201527f206c65617374206f6e6520737465616c20746f20737465616c2e000000000000602082015250565b7f4552433732313a20617070726f766520746f2063616c6c657200000000000000600082015250565b7f222c20226465736372697074696f6e223a20225468697320697320616e204e4660008201527f542074686174206c6574732070656f706c6520706c617920696e20746865206760208201527f616d6520546869657661727921222c2022696d616765223a2022000000000000604082015250565b7f2c20226d61785f76616c7565223a200000000000000000000000000000000000600082015250565b7f7b226e616d65223a2022546869657661727920233a2000000000000000000000600082015250565b7f4552433732313a206f70657261746f7220717565727920666f72206e6f6e657860008201527f697374656e7420746f6b656e0000000000000000000000000000000000000000602082015250565b7f227d2c207b2274726169745f74797065223a2022436c617373222c202276616c60008201527f7565223a20222300000000000000000000000000000000000000000000000000602082015250565b7f4552433732313a20617070726f76652063616c6c6572206973206e6f74206f7760008201527f6e6572206e6f7220617070726f76656420666f7220616c6c0000000000000000602082015250565b7f4552433732313a2062616c616e636520717565727920666f7220746865207a6560008201527f726f206164647265737300000000000000000000000000000000000000000000602082015250565b7f4552433732313a206f776e657220717565727920666f72206e6f6e657869737460008201527f656e7420746f6b656e0000000000000000000000000000000000000000000000602082015250565b7f7d2c207b2274726169745f74797065223a202244616767657220436f756e742260008201527f2c202276616c7565223a20000000000000000000000000000000000000000000602082015250565b7f7d205d7d00000000000000000000000000000000000000000000000000000000600082015250565b7f7d2c207b2274726169745f74797065223a20224c6576656c222c202276616c7560008201527f65223a2000000000000000000000000000000000000000000000000000000000602082015250565b7f4552433732313a206d696e7420746f20746865207a65726f2061646472657373600082015250565b7f4552433732313a20617070726f76656420717565727920666f72206e6f6e657860008201527f697374656e7420746f6b656e0000000000000000000000000000000000000000602082015250565b7f222c202261747472696275746573223a205b207b2274726169745f747970652260008201527f3a2022436c616e222c202276616c7565223a2022000000000000000000000000602082015250565b7f7d2c207b2274726169745f74797065223a2022536869656c6420436f756e742260008201527f2c202276616c7565223a20000000000000000000000000000000000000000000602082015250565b7f4552433732313a20617070726f76616c20746f2063757272656e74206f776e6560008201527f7200000000000000000000000000000000000000000000000000000000000000602082015250565b7f646174613a6170706c69636174696f6e2f6a736f6e3b6261736536342c000000600082015250565b7f4572726f723a20706c617965722076696374696d206d7573742068617665206160008201527f74206c65617374206f6e652064616767657220746f20737465616c2e00000000602082015250565b7f4552433732313a207472616e736665722063616c6c6572206973206e6f74206f60008201527f776e6572206e6f7220617070726f766564000000000000000000000000000000602082015250565b7f227d2c207b202274726169745f74797065223a2022537465616c73204c65667460008201527f222c202276616c7565223a200000000000000000000000000000000000000000602082015250565b7f7d2c207b202274726169745f74797065223a2022546f74616c204c696665746960008201527f6d6520537465616c73222c202276616c7565223a200000000000000000000000602082015250565b6151a08161476d565b81146151ab57600080fd5b50565b6151b78161477f565b81146151c257600080fd5b50565b6151ce8161478b565b81146151d957600080fd5b50565b6151e5816147d7565b81146151f057600080fd5b5056fe4142434445464748494a4b4c4d4e4f505152535455565758595a6162636465666768696a6b6c6d6e6f707172737475767778797a303132333435363738392b2fa264697066735822122016956f0c31d7530a50a7391acd121d8bf4f01f7fd943e983f06bd420cd3c262764736f6c63430008040033",
  "linkReferences": {},
  "deployedLinkReferences": {}
}