{
  "_format": "hh-sol-artifact-1",
  "contractName": "Thief",
  "sourceName": "contracts/Thief.sol",
  "abi": [
    {
      "inputs": [
        {
          "internalType": "string[]",
          "name": "playerClan",
          "type": "string[]"
        },
        {
          "internalType": "string[]",
          "name": "playerColors",
          "type": "string[]"
        },
        {
          "internalType": "string[]",
          "name": "playerImageURIs",
          "type": "string[]"
        }
      ],
      "stateMutability": "nonpayable",
      "type": "constructor"
    },
    {
      "anonymous": false,
      "inputs": [
        {
          "indexed": true,
          "internalType": "address",
          "name": "owner",
          "type": "address"
        },
        {
          "indexed": true,
          "internalType": "address",
          "name": "approved",
          "type": "address"
        },
        {
          "indexed": true,
          "internalType": "uint256",
          "name": "tokenId",
          "type": "uint256"
        }
      ],
      "name": "Approval",
      "type": "event"
    },
    {
      "anonymous": false,
      "inputs": [
        {
          "indexed": true,
          "internalType": "address",
          "name": "owner",
          "type": "address"
        },
        {
          "indexed": true,
          "internalType": "address",
          "name": "operator",
          "type": "address"
        },
        {
          "indexed": false,
          "internalType": "bool",
          "name": "approved",
          "type": "bool"
        }
      ],
      "name": "ApprovalForAll",
      "type": "event"
    },
    {
      "anonymous": false,
      "inputs": [
        {
          "indexed": false,
          "internalType": "address",
          "name": "sender",
          "type": "address"
        },
        {
          "indexed": false,
          "internalType": "uint256",
          "name": "tokenId",
          "type": "uint256"
        },
        {
          "indexed": false,
          "internalType": "uint256",
          "name": "playerIndex",
          "type": "uint256"
        }
      ],
      "name": "PlayerNFTMinted",
      "type": "event"
    },
    {
      "anonymous": false,
      "inputs": [
        {
          "indexed": true,
          "internalType": "address",
          "name": "from",
          "type": "address"
        },
        {
          "indexed": true,
          "internalType": "address",
          "name": "to",
          "type": "address"
        },
        {
          "indexed": true,
          "internalType": "uint256",
          "name": "tokenId",
          "type": "uint256"
        }
      ],
      "name": "Transfer",
      "type": "event"
    },
    {
      "inputs": [
        {
          "internalType": "address",
          "name": "to",
          "type": "address"
        },
        {
          "internalType": "uint256",
          "name": "tokenId",
          "type": "uint256"
        }
      ],
      "name": "approve",
      "outputs": [],
      "stateMutability": "nonpayable",
      "type": "function"
    },
    {
      "inputs": [
        {
          "internalType": "address",
          "name": "owner",
          "type": "address"
        }
      ],
      "name": "balanceOf",
      "outputs": [
        {
          "internalType": "uint256",
          "name": "",
          "type": "uint256"
        }
      ],
      "stateMutability": "view",
      "type": "function"
    },
    {
      "inputs": [],
      "name": "checkIfUserHasNFT",
      "outputs": [
        {
          "components": [
            {
              "internalType": "uint256",
              "name": "playerIndex",
              "type": "uint256"
            },
            {
              "internalType": "string",
              "name": "clan",
              "type": "string"
            },
            {
              "internalType": "string",
              "name": "color",
              "type": "string"
            },
            {
              "internalType": "string",
              "name": "imageURI",
              "type": "string"
            },
            {
              "internalType": "uint256",
              "name": "class",
              "type": "uint256"
            },
            {
              "internalType": "uint256",
              "name": "stealsLeft",
              "type": "uint256"
            },
            {
              "internalType": "uint256",
              "name": "maxSteals",
              "type": "uint256"
            },
            {
              "internalType": "uint256",
              "name": "totalStealsAttempted",
              "type": "uint256"
            },
            {
              "internalType": "uint256",
              "name": "daggerCount",
              "type": "uint256"
            },
            {
              "internalType": "uint256",
              "name": "shieldCount",
              "type": "uint256"
            },
            {
              "internalType": "uint256",
              "name": "level",
              "type": "uint256"
            }
          ],
          "internalType": "struct Thief.PlayerAttributes",
          "name": "",
          "type": "tuple"
        }
      ],
      "stateMutability": "view",
      "type": "function"
    },
    {
      "inputs": [],
      "name": "getAllDefaultThiefs",
      "outputs": [
        {
          "components": [
            {
              "internalType": "uint256",
              "name": "playerIndex",
              "type": "uint256"
            },
            {
              "internalType": "string",
              "name": "clan",
              "type": "string"
            },
            {
              "internalType": "string",
              "name": "color",
              "type": "string"
            },
            {
              "internalType": "string",
              "name": "imageURI",
              "type": "string"
            },
            {
              "internalType": "uint256",
              "name": "class",
              "type": "uint256"
            },
            {
              "internalType": "uint256",
              "name": "stealsLeft",
              "type": "uint256"
            },
            {
              "internalType": "uint256",
              "name": "maxSteals",
              "type": "uint256"
            },
            {
              "internalType": "uint256",
              "name": "totalStealsAttempted",
              "type": "uint256"
            },
            {
              "internalType": "uint256",
              "name": "daggerCount",
              "type": "uint256"
            },
            {
              "internalType": "uint256",
              "name": "shieldCount",
              "type": "uint256"
            },
            {
              "internalType": "uint256",
              "name": "level",
              "type": "uint256"
            }
          ],
          "internalType": "struct Thief.PlayerAttributes[]",
          "name": "",
          "type": "tuple[]"
        }
      ],
      "stateMutability": "view",
      "type": "function"
    },
    {
      "inputs": [
        {
          "internalType": "uint256",
          "name": "tokenId",
          "type": "uint256"
        }
      ],
      "name": "getApproved",
      "outputs": [
        {
          "internalType": "address",
          "name": "",
          "type": "address"
        }
      ],
      "stateMutability": "view",
      "type": "function"
    },
    {
      "inputs": [],
      "name": "getPlayers",
      "outputs": [
        {
          "internalType": "address[]",
          "name": "",
          "type": "address[]"
        }
      ],
      "stateMutability": "view",
      "type": "function"
    },
    {
      "inputs": [
        {
          "internalType": "address",
          "name": "owner",
          "type": "address"
        },
        {
          "internalType": "address",
          "name": "operator",
          "type": "address"
        }
      ],
      "name": "isApprovedForAll",
      "outputs": [
        {
          "internalType": "bool",
          "name": "",
          "type": "bool"
        }
      ],
      "stateMutability": "view",
      "type": "function"
    },
    {
      "inputs": [],
      "name": "manager",
      "outputs": [
        {
          "internalType": "address",
          "name": "",
          "type": "address"
        }
      ],
      "stateMutability": "view",
      "type": "function"
    },
    {
      "inputs": [],
      "name": "managerCallResetSteals",
      "outputs": [],
      "stateMutability": "nonpayable",
      "type": "function"
    },
    {
      "inputs": [
        {
          "internalType": "uint256",
          "name": "_playerIndex",
          "type": "uint256"
        }
      ],
      "name": "mintThiefNFT",
      "outputs": [],
      "stateMutability": "nonpayable",
      "type": "function"
    },
    {
      "inputs": [],
      "name": "name",
      "outputs": [
        {
          "internalType": "string",
          "name": "",
          "type": "string"
        }
      ],
      "stateMutability": "view",
      "type": "function"
    },
    {
      "inputs": [
        {
          "internalType": "uint256",
          "name": "",
          "type": "uint256"
        }
      ],
      "name": "nftHolderAttributes",
      "outputs": [
        {
          "internalType": "uint256",
          "name": "playerIndex",
          "type": "uint256"
        },
        {
          "internalType": "string",
          "name": "clan",
          "type": "string"
        },
        {
          "internalType": "string",
          "name": "color",
          "type": "string"
        },
        {
          "internalType": "string",
          "name": "imageURI",
          "type": "string"
        },
        {
          "internalType": "uint256",
          "name": "class",
          "type": "uint256"
        },
        {
          "internalType": "uint256",
          "name": "stealsLeft",
          "type": "uint256"
        },
        {
          "internalType": "uint256",
          "name": "maxSteals",
          "type": "uint256"
        },
        {
          "internalType": "uint256",
          "name": "totalStealsAttempted",
          "type": "uint256"
        },
        {
          "internalType": "uint256",
          "name": "daggerCount",
          "type": "uint256"
        },
        {
          "internalType": "uint256",
          "name": "shieldCount",
          "type": "uint256"
        },
        {
          "internalType": "uint256",
          "name": "level",
          "type": "uint256"
        }
      ],
      "stateMutability": "view",
      "type": "function"
    },
    {
      "inputs": [
        {
          "internalType": "address",
          "name": "",
          "type": "address"
        }
      ],
      "name": "nftHolders",
      "outputs": [
        {
          "internalType": "uint256",
          "name": "",
          "type": "uint256"
        }
      ],
      "stateMutability": "view",
      "type": "function"
    },
    {
      "inputs": [
        {
          "internalType": "uint256",
          "name": "tokenId",
          "type": "uint256"
        }
      ],
      "name": "ownerOf",
      "outputs": [
        {
          "internalType": "address",
          "name": "",
          "type": "address"
        }
      ],
      "stateMutability": "view",
      "type": "function"
    },
    {
      "inputs": [
        {
          "internalType": "uint256",
          "name": "",
          "type": "uint256"
        }
      ],
      "name": "players",
      "outputs": [
        {
          "internalType": "address",
          "name": "",
          "type": "address"
        }
      ],
      "stateMutability": "view",
      "type": "function"
    },
    {
      "inputs": [
        {
          "internalType": "address",
          "name": "from",
          "type": "address"
        },
        {
          "internalType": "address",
          "name": "to",
          "type": "address"
        },
        {
          "internalType": "uint256",
          "name": "tokenId",
          "type": "uint256"
        }
      ],
      "name": "safeTransferFrom",
      "outputs": [],
      "stateMutability": "nonpayable",
      "type": "function"
    },
    {
      "inputs": [
        {
          "internalType": "address",
          "name": "from",
          "type": "address"
        },
        {
          "internalType": "address",
          "name": "to",
          "type": "address"
        },
        {
          "internalType": "uint256",
          "name": "tokenId",
          "type": "uint256"
        },
        {
          "internalType": "bytes",
          "name": "_data",
          "type": "bytes"
        }
      ],
      "name": "safeTransferFrom",
      "outputs": [],
      "stateMutability": "nonpayable",
      "type": "function"
    },
    {
      "inputs": [],
      "name": "sendShieldOnNumber",
      "outputs": [
        {
          "internalType": "uint256",
          "name": "",
          "type": "uint256"
        }
      ],
      "stateMutability": "view",
      "type": "function"
    },
    {
      "inputs": [
        {
          "internalType": "address",
          "name": "operator",
          "type": "address"
        },
        {
          "internalType": "bool",
          "name": "approved",
          "type": "bool"
        }
      ],
      "name": "setApprovalForAll",
      "outputs": [],
      "stateMutability": "nonpayable",
      "type": "function"
    },
    {
      "inputs": [
        {
          "internalType": "address",
          "name": "addressToStealFrom",
          "type": "address"
        }
      ],
      "name": "steal",
      "outputs": [],
      "stateMutability": "nonpayable",
      "type": "function"
    },
    {
      "inputs": [
        {
          "internalType": "bytes4",
          "name": "interfaceId",
          "type": "bytes4"
        }
      ],
      "name": "supportsInterface",
      "outputs": [
        {
          "internalType": "bool",
          "name": "",
          "type": "bool"
        }
      ],
      "stateMutability": "view",
      "type": "function"
    },
    {
      "inputs": [],
      "name": "symbol",
      "outputs": [
        {
          "internalType": "string",
          "name": "",
          "type": "string"
        }
      ],
      "stateMutability": "view",
      "type": "function"
    },
    {
      "inputs": [
        {
          "internalType": "uint256",
          "name": "_tokenId",
          "type": "uint256"
        }
      ],
      "name": "tokenURI",
      "outputs": [
        {
          "internalType": "string",
          "name": "",
          "type": "string"
        }
      ],
      "stateMutability": "view",
      "type": "function"
    },
    {
      "inputs": [
        {
          "internalType": "address",
          "name": "from",
          "type": "address"
        },
        {
          "internalType": "address",
          "name": "to",
          "type": "address"
        },
        {
          "internalType": "uint256",
          "name": "tokenId",
          "type": "uint256"
        }
      ],
      "name": "transferFrom",
      "outputs": [],
      "stateMutability": "nonpayable",
      "type": "function"
    },
    {
      "inputs": [
        {
          "internalType": "uint256",
          "name": "count",
          "type": "uint256"
        }
      ],
      "name": "updateSendShieldOnNumber",
      "outputs": [],
      "stateMutability": "nonpayable",
      "type": "function"
    }
  ],
  "bytecode": "0x60806040523480156200001157600080fd5b5060405162005883380380620058838339818101604052810190620000379190620004e5565b6040518060400160405280600881526020017f54686569766172790000000000000000000000000000000000000000000000008152506040518060400160405280600581526020017f54484945460000000000000000000000000000000000000000000000000000008152508160009080519060200190620000bb92919062000306565b508060019080519060200190620000d492919062000306565b50505060005b8351811015620002f457600060405180610160016040528083815260200186848151811062000132577f4e487b7100000000000000000000000000000000000000000000000000000000600052603260045260246000fd5b6020026020010151815260200185848151811062000179577f4e487b7100000000000000000000000000000000000000000000000000000000600052603260045260246000fd5b60200260200101518152602001848481518110620001c0577f4e487b7100000000000000000000000000000000000000000000000000000000600052603260045260246000fd5b6020026020010151815260200160008152602001600281526020016002815260200160008152602001600181526020016000815260200160008152509050600a8190806001815401808255809150506001900390600052602060002090600b02016000909190919091506000820151816000015560208201518160010190805190602001906200025292919062000306565b5060408201518160020190805190602001906200027192919062000306565b5060608201518160030190805190602001906200029092919062000306565b506080820151816004015560a0820151816005015560c0820151816006015560e082015181600701556101008201518160080155610120820151816009015561014082015181600a0155505050600181620002ec919062000614565b9050620000da565b506003600781905550505050620007bb565b8280546200031490620006b1565b90600052602060002090601f01602090048101928262000338576000855562000384565b82601f106200035357805160ff191683800117855562000384565b8280016001018555821562000384579182015b828111156200038357825182559160200191906001019062000366565b5b50905062000393919062000397565b5090565b5b80821115620003b257600081600090555060010162000398565b5090565b6000620003cd620003c784620005af565b62000586565b90508083825260208201905082856020860282011115620003ed57600080fd5b60005b858110156200043c57815167ffffffffffffffff8111156200041157600080fd5b808601620004208982620004b8565b85526020850194506020840193505050600181019050620003f0565b5050509392505050565b60006200045d6200045784620005de565b62000586565b9050828152602081018484840111156200047657600080fd5b620004838482856200067b565b509392505050565b600082601f8301126200049d57600080fd5b8151620004af848260208601620003b6565b91505092915050565b600082601f830112620004ca57600080fd5b8151620004dc84826020860162000446565b91505092915050565b600080600060608486031215620004fb57600080fd5b600084015167ffffffffffffffff8111156200051657600080fd5b62000524868287016200048b565b935050602084015167ffffffffffffffff8111156200054257600080fd5b62000550868287016200048b565b925050604084015167ffffffffffffffff8111156200056e57600080fd5b6200057c868287016200048b565b9150509250925092565b600062000592620005a5565b9050620005a08282620006e7565b919050565b6000604051905090565b600067ffffffffffffffff821115620005cd57620005cc6200077b565b5b602082029050602081019050919050565b600067ffffffffffffffff821115620005fc57620005fb6200077b565b5b6200060782620007aa565b9050602081019050919050565b6000620006218262000671565b91506200062e8362000671565b9250827fffffffffffffffffffffffffffffffffffffffffffffffffffffffffffffffff038211156200066657620006656200071d565b5b828201905092915050565b6000819050919050565b60005b838110156200069b5780820151818401526020810190506200067e565b83811115620006ab576000848401525b50505050565b60006002820490506001821680620006ca57607f821691505b60208210811415620006e157620006e06200074c565b5b50919050565b620006f282620007aa565b810181811067ffffffffffffffff821117156200071457620007136200077b565b5b80604052505050565b7f4e487b7100000000000000000000000000000000000000000000000000000000600052601160045260246000fd5b7f4e487b7100000000000000000000000000000000000000000000000000000000600052602260045260246000fd5b7f4e487b7100000000000000000000000000000000000000000000000000000000600052604160045260246000fd5b6000601f19601f8301169050919050565b6150b880620007cb6000396000f3fe608060405234801561001057600080fd5b50600436106101735760003560e01c80637df124a1116100de578063b88d4fde11610097578063d7f15aaa11610071578063d7f15aaa14610456578063e985e9c514610472578063f71d96cb146104a2578063ff0e292c146104d257610173565b8063b88d4fde146103ec578063c87b56dd14610408578063c8cf27f41461043857610173565b80637df124a11461030c5780638b5b9ccc1461033c5780638b9642d41461035a57806395d89b411461037857806398da4c9514610396578063a22cb465146103d057610173565b8063481c6a7511610130578063481c6a751461024a57806356771b101461026857806357269247146102865780635dc8abb2146102905780636352211e146102ac57806370a08231146102dc57610173565b806301ffc9a71461017857806306fdde03146101a8578063081812fc146101c6578063095ea7b3146101f657806323b872dd1461021257806342842e0e1461022e575b600080fd5b610192600480360381019061018d919061355d565b6104ee565b60405161019f9190614041565b60405180910390f35b6101b06105d0565b6040516101bd919061405c565b60405180910390f35b6101e060048036038101906101db91906135af565b610662565b6040516101ed9190613f5f565b60405180910390f35b610210600480360381019061020b9190613521565b6106e7565b005b61022c6004803603810190610227919061341b565b6107ff565b005b6102486004803603810190610243919061341b565b61085f565b005b61025261087f565b60405161025f9190613f5f565b60405180910390f35b6102706108a5565b60405161027d91906142b0565b60405180910390f35b61028e6108ab565b005b6102aa60048036038101906102a591906133b6565b61090f565b005b6102c660048036038101906102c191906135af565b610b6e565b6040516102d39190613f5f565b60405180910390f35b6102f660048036038101906102f191906133b6565b610c20565b60405161030391906142b0565b60405180910390f35b610326600480360381019061032191906133b6565b610cd8565b60405161033391906142b0565b60405180910390f35b610344610cf0565b6040516103519190613ffd565b60405180910390f35b610362610d7e565b60405161036f919061401f565b60405180910390f35b610380610fe4565b60405161038d919061405c565b60405180910390f35b6103b060048036038101906103ab91906135af565b611076565b6040516103c79b9a999897969594939291906142cb565b60405180910390f35b6103ea60048036038101906103e591906134e5565b611268565b005b6104066004803603810190610401919061346a565b61127e565b005b610422600480360381019061041d91906135af565b6112e0565b60405161042f919061405c565b60405180910390f35b61044061160f565b60405161044d919061428e565b60405180910390f35b610470600480360381019061046b91906135af565b6118a2565b005b61048c600480360381019061048791906133df565b611906565b6040516104999190614041565b60405180910390f35b6104bc60048036038101906104b791906135af565b61199a565b6040516104c99190613f5f565b60405180910390f35b6104ec60048036038101906104e791906135af565b6119d9565b005b60007f80ac58cd000000000000000000000000000000000000000000000000000000007bffffffffffffffffffffffffffffffffffffffffffffffffffffffff1916827bffffffffffffffffffffffffffffffffffffffffffffffffffffffff191614806105b957507f5b5e139f000000000000000000000000000000000000000000000000000000007bffffffffffffffffffffffffffffffffffffffffffffffffffffffff1916827bffffffffffffffffffffffffffffffffffffffffffffffffffffffff1916145b806105c957506105c8826120ad565b5b9050919050565b6060600080546105df90614672565b80601f016020809104026020016040519081016040528092919081815260200182805461060b90614672565b80156106585780601f1061062d57610100808354040283529160200191610658565b820191906000526020600020905b81548152906001019060200180831161063b57829003601f168201915b5050505050905090565b600061066d82612117565b6106ac576040517f08c379a00000000000000000000000000000000000000000000000000000000081526004016106a39061420e565b60405180910390fd5b6004600083815260200190815260200160002060009054906101000a900473ffffffffffffffffffffffffffffffffffffffff169050919050565b60006106f282610b6e565b90508073ffffffffffffffffffffffffffffffffffffffff168373ffffffffffffffffffffffffffffffffffffffff161415610763576040517f08c379a000000000000000000000000000000000000000000000000000000000815260040161075a9061422e565b60405180910390fd5b8073ffffffffffffffffffffffffffffffffffffffff16610782612183565b73ffffffffffffffffffffffffffffffffffffffff1614806107b157506107b0816107ab612183565b611906565b5b6107f0576040517f08c379a00000000000000000000000000000000000000000000000000000000081526004016107e79061418e565b60405180910390fd5b6107fa838361218b565b505050565b61081061080a612183565b82612244565b61084f576040517f08c379a00000000000000000000000000000000000000000000000000000000081526004016108469061426e565b60405180910390fd5b61085a838383612322565b505050565b61087a8383836040518060200160405280600081525061127e565b505050565b600660009054906101000a900473ffffffffffffffffffffffffffffffffffffffff1681565b60075481565b600660009054906101000a900473ffffffffffffffffffffffffffffffffffffffff1673ffffffffffffffffffffffffffffffffffffffff163373ffffffffffffffffffffffffffffffffffffffff161461090557600080fd5b61090d612589565b565b6000600c60003373ffffffffffffffffffffffffffffffffffffffff1673ffffffffffffffffffffffffffffffffffffffff1681526020019081526020016000205490506000600b6000838152602001908152602001600020905060008160050154116109b1576040517f08c379a00000000000000000000000000000000000000000000000000000000081526004016109a89061412e565b60405180910390fd5b6000600c60008573ffffffffffffffffffffffffffffffffffffffff1673ffffffffffffffffffffffffffffffffffffffff1681526020019081526020016000205490506000600b60008381526020019081526020016000209050600081600801541180610a23575060008160090154115b610a62576040517f08c379a0000000000000000000000000000000000000000000000000000000008152600401610a599061424e565b60405180910390fd5b600081600901541115610ac8576001836009016000828254610a8491906144a7565b925050819055506001836005016000828254610aa09190614588565b925050819055506001816009016000828254610abc9190614588565b92505081905550610b1d565b6001836008016000828254610add91906144a7565b925050819055506001836005016000828254610af99190614588565b925050819055506001816008016000828254610b159190614588565b925050819055505b60018360070154610b2e91906144a7565b8360070181905550610b4060096126a5565b60006019610b4e60096126bb565b610b589190614728565b1415610b6757610b66612589565b5b5050505050565b6000806002600084815260200190815260200160002060009054906101000a900473ffffffffffffffffffffffffffffffffffffffff169050600073ffffffffffffffffffffffffffffffffffffffff168173ffffffffffffffffffffffffffffffffffffffff161415610c17576040517f08c379a0000000000000000000000000000000000000000000000000000000008152600401610c0e906141ce565b60405180910390fd5b80915050919050565b60008073ffffffffffffffffffffffffffffffffffffffff168273ffffffffffffffffffffffffffffffffffffffff161415610c91576040517f08c379a0000000000000000000000000000000000000000000000000000000008152600401610c88906141ae565b60405180910390fd5b600360008373ffffffffffffffffffffffffffffffffffffffff1673ffffffffffffffffffffffffffffffffffffffff168152602001908152602001600020549050919050565b600c6020528060005260406000206000915090505481565b6060600d805480602002602001604051908101604052809291908181526020018280548015610d7457602002820191906000526020600020905b8160009054906101000a900473ffffffffffffffffffffffffffffffffffffffff1673ffffffffffffffffffffffffffffffffffffffff1681526020019060010190808311610d2a575b5050505050905090565b6060600a805480602002602001604051908101604052809291908181526020016000905b82821015610fdb57838290600052602060002090600b02016040518061016001604052908160008201548152602001600182018054610de090614672565b80601f0160208091040260200160405190810160405280929190818152602001828054610e0c90614672565b8015610e595780601f10610e2e57610100808354040283529160200191610e59565b820191906000526020600020905b815481529060010190602001808311610e3c57829003601f168201915b50505050508152602001600282018054610e7290614672565b80601f0160208091040260200160405190810160405280929190818152602001828054610e9e90614672565b8015610eeb5780601f10610ec057610100808354040283529160200191610eeb565b820191906000526020600020905b815481529060010190602001808311610ece57829003601f168201915b50505050508152602001600382018054610f0490614672565b80601f0160208091040260200160405190810160405280929190818152602001828054610f3090614672565b8015610f7d5780601f10610f5257610100808354040283529160200191610f7d565b820191906000526020600020905b815481529060010190602001808311610f6057829003601f168201915b50505050508152602001600482015481526020016005820154815260200160068201548152602001600782015481526020016008820154815260200160098201548152602001600a8201548152505081526020019060010190610da2565b50505050905090565b606060018054610ff390614672565b80601f016020809104026020016040519081016040528092919081815260200182805461101f90614672565b801561106c5780601f106110415761010080835404028352916020019161106c565b820191906000526020600020905b81548152906001019060200180831161104f57829003601f168201915b5050505050905090565b600b60205280600052604060002060009150905080600001549080600101805461109f90614672565b80601f01602080910402602001604051908101604052809291908181526020018280546110cb90614672565b80156111185780601f106110ed57610100808354040283529160200191611118565b820191906000526020600020905b8154815290600101906020018083116110fb57829003601f168201915b50505050509080600201805461112d90614672565b80601f016020809104026020016040519081016040528092919081815260200182805461115990614672565b80156111a65780601f1061117b576101008083540402835291602001916111a6565b820191906000526020600020905b81548152906001019060200180831161118957829003601f168201915b5050505050908060030180546111bb90614672565b80601f01602080910402602001604051908101604052809291908181526020018280546111e790614672565b80156112345780601f1061120957610100808354040283529160200191611234565b820191906000526020600020905b81548152906001019060200180831161121757829003601f168201915b50505050509080600401549080600501549080600601549080600701549080600801549080600901549080600a015490508b565b61127a611273612183565b83836126c9565b5050565b61128f611289612183565b83612244565b6112ce576040517f08c379a00000000000000000000000000000000000000000000000000000000081526004016112c59061426e565b60405180910390fd5b6112da84848484612836565b50505050565b60606000600b6000848152602001908152602001600020604051806101600160405290816000820154815260200160018201805461131d90614672565b80601f016020809104026020016040519081016040528092919081815260200182805461134990614672565b80156113965780601f1061136b57610100808354040283529160200191611396565b820191906000526020600020905b81548152906001019060200180831161137957829003601f168201915b505050505081526020016002820180546113af90614672565b80601f01602080910402602001604051908101604052809291908181526020018280546113db90614672565b80156114285780601f106113fd57610100808354040283529160200191611428565b820191906000526020600020905b81548152906001019060200180831161140b57829003601f168201915b5050505050815260200160038201805461144190614672565b80601f016020809104026020016040519081016040528092919081815260200182805461146d90614672565b80156114ba5780601f1061148f576101008083540402835291602001916114ba565b820191906000526020600020905b81548152906001019060200180831161149d57829003601f168201915b50505050508152602001600482015481526020016005820154815260200160068201548152602001600782015481526020016008820154815260200160098201548152602001600a820154815250509050600061151a8260800151612892565b9050600061152b8360a00151612892565b9050600061153c8460c00151612892565b9050600061154d8560e00151612892565b9050600061155f866101000151612892565b90506000611571876101200151612892565b90506000611583886101400151612892565b905060006115d76115938c612892565b8a606001518b602001518c604001518c8c8c8c8c8c8c6040516020016115c39b9a99989796959493929190613de3565b604051602081830303815290604052612a3f565b90506000816040516020016115ec9190613f00565b6040516020818303038152906040529050809a5050505050505050505050919050565b6116176131e8565b6000600c60003373ffffffffffffffffffffffffffffffffffffffff1673ffffffffffffffffffffffffffffffffffffffff168152602001908152602001600020549050600081111561189157600b6000828152602001908152602001600020604051806101600160405290816000820154815260200160018201805461169d90614672565b80601f01602080910402602001604051908101604052809291908181526020018280546116c990614672565b80156117165780601f106116eb57610100808354040283529160200191611716565b820191906000526020600020905b8154815290600101906020018083116116f957829003601f168201915b5050505050815260200160028201805461172f90614672565b80601f016020809104026020016040519081016040528092919081815260200182805461175b90614672565b80156117a85780601f1061177d576101008083540402835291602001916117a8565b820191906000526020600020905b81548152906001019060200180831161178b57829003601f168201915b505050505081526020016003820180546117c190614672565b80601f01602080910402602001604051908101604052809291908181526020018280546117ed90614672565b801561183a5780601f1061180f5761010080835404028352916020019161183a565b820191906000526020600020905b81548152906001019060200180831161181d57829003601f168201915b50505050508152602001600482015481526020016005820154815260200160068201548152602001600782015481526020016008820154815260200160098201548152602001600a8201548152505091505061189f565b6118996131e8565b80925050505b90565b600660009054906101000a900473ffffffffffffffffffffffffffffffffffffffff1673ffffffffffffffffffffffffffffffffffffffff163373ffffffffffffffffffffffffffffffffffffffff16146118fc57600080fd5b8060078190555050565b6000600560008473ffffffffffffffffffffffffffffffffffffffff1673ffffffffffffffffffffffffffffffffffffffff16815260200190815260200160002060008373ffffffffffffffffffffffffffffffffffffffff1673ffffffffffffffffffffffffffffffffffffffff16815260200190815260200160002060009054906101000a900460ff16905092915050565b600d81815481106119aa57600080fd5b906000526020600020016000915054906101000a900473ffffffffffffffffffffffffffffffffffffffff1681565b60006119e560086126bb565b90506119f13382612bc9565b60006001606483611a0291906144fd565b611a0c91906144a7565b9050604051806101600160405280848152602001600a8581548110611a5a577f4e487b7100000000000000000000000000000000000000000000000000000000600052603260045260246000fd5b90600052602060002090600b02016001018054611a7690614672565b80601f0160208091040260200160405190810160405280929190818152602001828054611aa290614672565b8015611aef5780601f10611ac457610100808354040283529160200191611aef565b820191906000526020600020905b815481529060010190602001808311611ad257829003601f168201915b50505050508152602001600a8581548110611b33577f4e487b7100000000000000000000000000000000000000000000000000000000600052603260045260246000fd5b90600052602060002090600b02016002018054611b4f90614672565b80601f0160208091040260200160405190810160405280929190818152602001828054611b7b90614672565b8015611bc85780601f10611b9d57610100808354040283529160200191611bc8565b820191906000526020600020905b815481529060010190602001808311611bab57829003601f168201915b50505050508152602001600a8581548110611c0c577f4e487b7100000000000000000000000000000000000000000000000000000000600052603260045260246000fd5b90600052602060002090600b02016003018054611c2890614672565b80601f0160208091040260200160405190810160405280929190818152602001828054611c5490614672565b8015611ca15780601f10611c7657610100808354040283529160200191611ca1565b820191906000526020600020905b815481529060010190602001808311611c8457829003601f168201915b50505050508152602001828152602001600a8581548110611ceb577f4e487b7100000000000000000000000000000000000000000000000000000000600052603260045260246000fd5b90600052602060002090600b0201600501548152602001600a8581548110611d3c577f4e487b7100000000000000000000000000000000000000000000000000000000600052603260045260246000fd5b90600052602060002090600b0201600601548152602001600a8581548110611d8d577f4e487b7100000000000000000000000000000000000000000000000000000000600052603260045260246000fd5b90600052602060002090600b0201600701548152602001600a8581548110611dde577f4e487b7100000000000000000000000000000000000000000000000000000000600052603260045260246000fd5b90600052602060002090600b0201600801548152602001600a8581548110611e2f577f4e487b7100000000000000000000000000000000000000000000000000000000600052603260045260246000fd5b90600052602060002090600b0201600901548152602001600a8581548110611e80577f4e487b7100000000000000000000000000000000000000000000000000000000600052603260045260246000fd5b90600052602060002090600b0201600a0154815250600b6000848152602001908152602001600020600082015181600001556020820151816001019080519060200190611ece929190613242565b506040820151816002019080519060200190611eeb929190613242565b506060820151816003019080519060200190611f08929190613242565b506080820151816004015560a0820151816005015560c0820151816006015560e082015181600701556101008201518160080155610120820151816009015561014082015181600a015590505081600c60003373ffffffffffffffffffffffffffffffffffffffff1673ffffffffffffffffffffffffffffffffffffffff16815260200190815260200160002081905550600d339080600181540180825580915050600190039060005260206000200160009091909190916101000a81548173ffffffffffffffffffffffffffffffffffffffff021916908373ffffffffffffffffffffffffffffffffffffffff16021790555061200660086126a5565b61204e6040518060400160405280601981526020017f6d696e746564207375636365737366756c6c20776974683a200000000000000081525061204960086126bb565b612be7565b7f0519bf630ad944dce720bc3e1864c7a4405f2ce5c7eba2fff70d975d7cf5c29833838560405161208193929190613fc6565b60405180910390a16000600754836120999190614728565b14156120a8576120a7612c83565b5b505050565b60007f01ffc9a7000000000000000000000000000000000000000000000000000000007bffffffffffffffffffffffffffffffffffffffffffffffffffffffff1916827bffffffffffffffffffffffffffffffffffffffffffffffffffffffff1916149050919050565b60008073ffffffffffffffffffffffffffffffffffffffff166002600084815260200190815260200160002060009054906101000a900473ffffffffffffffffffffffffffffffffffffffff1673ffffffffffffffffffffffffffffffffffffffff1614159050919050565b600033905090565b816004600083815260200190815260200160002060006101000a81548173ffffffffffffffffffffffffffffffffffffffff021916908373ffffffffffffffffffffffffffffffffffffffff160217905550808273ffffffffffffffffffffffffffffffffffffffff166121fe83610b6e565b73ffffffffffffffffffffffffffffffffffffffff167f8c5be1e5ebec7d5bd14f71427d1e84f3dd0314c0f7b2291e5b200ac8c7c3b92560405160405180910390a45050565b600061224f82612117565b61228e576040517f08c379a00000000000000000000000000000000000000000000000000000000081526004016122859061416e565b60405180910390fd5b600061229983610b6e565b90508073ffffffffffffffffffffffffffffffffffffffff168473ffffffffffffffffffffffffffffffffffffffff1614806122db57506122da8185611906565b5b8061231957508373ffffffffffffffffffffffffffffffffffffffff1661230184610662565b73ffffffffffffffffffffffffffffffffffffffff16145b91505092915050565b8273ffffffffffffffffffffffffffffffffffffffff1661234282610b6e565b73ffffffffffffffffffffffffffffffffffffffff1614612398576040517f08c379a000000000000000000000000000000000000000000000000000000000815260040161238f906140ce565b60405180910390fd5b600073ffffffffffffffffffffffffffffffffffffffff168273ffffffffffffffffffffffffffffffffffffffff161415612408576040517f08c379a00000000000000000000000000000000000000000000000000000000081526004016123ff9061410e565b60405180910390fd5b612413838383612d86565b61241e60008261218b565b6001600360008573ffffffffffffffffffffffffffffffffffffffff1673ffffffffffffffffffffffffffffffffffffffff168152602001908152602001600020600082825461246e9190614588565b925050819055506001600360008473ffffffffffffffffffffffffffffffffffffffff1673ffffffffffffffffffffffffffffffffffffffff16815260200190815260200160002060008282546124c591906144a7565b92505081905550816002600083815260200190815260200160002060006101000a81548173ffffffffffffffffffffffffffffffffffffffff021916908373ffffffffffffffffffffffffffffffffffffffff160217905550808273ffffffffffffffffffffffffffffffffffffffff168473ffffffffffffffffffffffffffffffffffffffff167fddf252ad1be2c89b69c2b068fc378daa952ba7f163c4a11628f55a4df523b3ef60405160405180910390a4612584838383612d8b565b505050565b60005b600d805490508110156126a2576000600c6000600d84815481106125d9577f4e487b7100000000000000000000000000000000000000000000000000000000600052603260045260246000fd5b9060005260206000200160009054906101000a900473ffffffffffffffffffffffffffffffffffffffff1673ffffffffffffffffffffffffffffffffffffffff1673ffffffffffffffffffffffffffffffffffffffff1681526020019081526020016000205490506000600b6000838152602001908152602001600020905060028160080154111561268257600181600a01600082825461267a91906144a7565b925050819055505b60028160050181905550505060018161269b91906144a7565b905061258c565b50565b6001816000016000828254019250508190555050565b600081600001549050919050565b8173ffffffffffffffffffffffffffffffffffffffff168373ffffffffffffffffffffffffffffffffffffffff161415612738576040517f08c379a000000000000000000000000000000000000000000000000000000000815260040161272f9061414e565b60405180910390fd5b80600560008573ffffffffffffffffffffffffffffffffffffffff1673ffffffffffffffffffffffffffffffffffffffff16815260200190815260200160002060008473ffffffffffffffffffffffffffffffffffffffff1673ffffffffffffffffffffffffffffffffffffffff16815260200190815260200160002060006101000a81548160ff0219169083151502179055508173ffffffffffffffffffffffffffffffffffffffff168373ffffffffffffffffffffffffffffffffffffffff167f17307eab39ab6107e8899845ad3d59bd9653f200f220920489ca2b5937696c31836040516128299190614041565b60405180910390a3505050565b612841848484612322565b61284d84848484612d90565b61288c576040517f08c379a0000000000000000000000000000000000000000000000000000000008152600401612883906140ae565b60405180910390fd5b50505050565b606060008214156128da576040518060400160405280600181526020017f30000000000000000000000000000000000000000000000000000000000000008152509050612a3a565b600082905060005b6000821461290c5780806128f5906146d5565b915050600a8261290591906144fd565b91506128e2565b60008167ffffffffffffffff81111561294e577f4e487b7100000000000000000000000000000000000000000000000000000000600052604160045260246000fd5b6040519080825280601f01601f1916602001820160405280156129805781602001600182028036833780820191505090505b5090505b60008514612a33576001826129999190614588565b9150600a856129a89190614728565b60306129b491906144a7565b60f81b8183815181106129f0577f4e487b7100000000000000000000000000000000000000000000000000000000600052603260045260246000fd5b60200101907effffffffffffffffffffffffffffffffffffffffffffffffffffffffffffff1916908160001a905350600a85612a2c91906144fd565b9450612984565b8093505050505b919050565b6060600082511415612a6257604051806020016040528060008152509050612bc4565b60006040518060600160405280604081526020016150436040913990506000600360028551612a9191906144a7565b612a9b91906144fd565b6004612aa7919061452e565b67ffffffffffffffff811115612ae6577f4e487b7100000000000000000000000000000000000000000000000000000000600052604160045260246000fd5b6040519080825280601f01601f191660200182016040528015612b185781602001600182028036833780820191505090505b509050600182016020820185865187015b80821015612b84576003820191508151603f8160121c168501518453600184019350603f81600c1c168501518453600184019350603f8160061c168501518453600184019350603f8116850151845360018401935050612b29565b5050600386510660018114612ba05760028114612bb357612bbb565b603d6001830353603d6002830353612bbb565b603d60018303535b50505080925050505b919050565b612be3828260405180602001604052806000815250612f27565b5050565b612c7f8282604051602401612bfd92919061407e565b6040516020818303038152906040527f9710a9d0000000000000000000000000000000000000000000000000000000007bffffffffffffffffffffffffffffffffffffffffffffffffffffffff19166020820180517bffffffffffffffffffffffffffffffffffffffffffffffffffffffff8381831617835250505050612f82565b5050565b6000612c8f60086126bb565b612c97612fab565b612ca19190614728565b90506000600d8281548110612cdf577f4e487b7100000000000000000000000000000000000000000000000000000000600052603260045260246000fd5b9060005260206000200160009054906101000a900473ffffffffffffffffffffffffffffffffffffffff1690506000600c60008373ffffffffffffffffffffffffffffffffffffffff1673ffffffffffffffffffffffffffffffffffffffff1681526020019081526020016000205490506000600b6000838152602001908152602001600020905060018160090154612d7891906144a7565b816009018190555050505050565b505050565b505050565b6000612db18473ffffffffffffffffffffffffffffffffffffffff16612feb565b15612f1a578373ffffffffffffffffffffffffffffffffffffffff1663150b7a02612dda612183565b8786866040518563ffffffff1660e01b8152600401612dfc9493929190613f7a565b602060405180830381600087803b158015612e1657600080fd5b505af1925050508015612e4757506040513d601f19601f82011682018060405250810190612e449190613586565b60015b612eca573d8060008114612e77576040519150601f19603f3d011682016040523d82523d6000602084013e612e7c565b606091505b50600081511415612ec2576040517f08c379a0000000000000000000000000000000000000000000000000000000008152600401612eb9906140ae565b60405180910390fd5b805181602001fd5b63150b7a0260e01b7bffffffffffffffffffffffffffffffffffffffffffffffffffffffff1916817bffffffffffffffffffffffffffffffffffffffffffffffffffffffff191614915050612f1f565b600190505b949350505050565b612f31838361300e565b612f3e6000848484612d90565b612f7d576040517f08c379a0000000000000000000000000000000000000000000000000000000008152600401612f74906140ae565b60405180910390fd5b505050565b60008151905060006a636f6e736f6c652e6c6f679050602083016000808483855afa5050505050565b600044424442612fbb919061452e565b604051602001612fcd93929190613f22565b6040516020818303038152906040528051906020012060001c905090565b6000808273ffffffffffffffffffffffffffffffffffffffff163b119050919050565b600073ffffffffffffffffffffffffffffffffffffffff168273ffffffffffffffffffffffffffffffffffffffff16141561307e576040517f08c379a0000000000000000000000000000000000000000000000000000000008152600401613075906141ee565b60405180910390fd5b61308781612117565b156130c7576040517f08c379a00000000000000000000000000000000000000000000000000000000081526004016130be906140ee565b60405180910390fd5b6130d360008383612d86565b6001600360008473ffffffffffffffffffffffffffffffffffffffff1673ffffffffffffffffffffffffffffffffffffffff168152602001908152602001600020600082825461312391906144a7565b92505081905550816002600083815260200190815260200160002060006101000a81548173ffffffffffffffffffffffffffffffffffffffff021916908373ffffffffffffffffffffffffffffffffffffffff160217905550808273ffffffffffffffffffffffffffffffffffffffff16600073ffffffffffffffffffffffffffffffffffffffff167fddf252ad1be2c89b69c2b068fc378daa952ba7f163c4a11628f55a4df523b3ef60405160405180910390a46131e460008383612d8b565b5050565b60405180610160016040528060008152602001606081526020016060815260200160608152602001600081526020016000815260200160008152602001600081526020016000815260200160008152602001600081525090565b82805461324e90614672565b90600052602060002090601f01602090048101928261327057600085556132b7565b82601f1061328957805160ff19168380011785556132b7565b828001600101855582156132b7579182015b828111156132b657825182559160200191906001019061329b565b5b5090506132c491906132c8565b5090565b5b808211156132e15760008160009055506001016132c9565b5090565b60006132f86132f3846143b0565b61438b565b90508281526020810184848401111561331057600080fd5b61331b848285614630565b509392505050565b60008135905061333281614fe6565b92915050565b60008135905061334781614ffd565b92915050565b60008135905061335c81615014565b92915050565b60008151905061337181615014565b92915050565b600082601f83011261338857600080fd5b81356133988482602086016132e5565b91505092915050565b6000813590506133b08161502b565b92915050565b6000602082840312156133c857600080fd5b60006133d684828501613323565b91505092915050565b600080604083850312156133f257600080fd5b600061340085828601613323565b925050602061341185828601613323565b9150509250929050565b60008060006060848603121561343057600080fd5b600061343e86828701613323565b935050602061344f86828701613323565b9250506040613460868287016133a1565b9150509250925092565b6000806000806080858703121561348057600080fd5b600061348e87828801613323565b945050602061349f87828801613323565b93505060406134b0878288016133a1565b925050606085013567ffffffffffffffff8111156134cd57600080fd5b6134d987828801613377565b91505092959194509250565b600080604083850312156134f857600080fd5b600061350685828601613323565b925050602061351785828601613338565b9150509250929050565b6000806040838503121561353457600080fd5b600061354285828601613323565b9250506020613553858286016133a1565b9150509250929050565b60006020828403121561356f57600080fd5b600061357d8482850161334d565b91505092915050565b60006020828403121561359857600080fd5b60006135a684828501613362565b91505092915050565b6000602082840312156135c157600080fd5b60006135cf848285016133a1565b91505092915050565b60006135e48383613604565b60208301905092915050565b60006135fc8383613bb4565b905092915050565b61360d816145bc565b82525050565b61361c816145bc565b82525050565b600061362d82614401565b6136378185614447565b9350613642836143e1565b8060005b8381101561367357815161365a88826135d8565b97506136658361442d565b925050600181019050613646565b5085935050505092915050565b600061368b8261440c565b6136958185614458565b9350836020820285016136a7856143f1565b8060005b858110156136e357848403895281516136c485826135f0565b94506136cf8361443a565b925060208a019950506001810190506136ab565b50829750879550505050505092915050565b6136fe816145ce565b82525050565b600061370f82614417565b6137198185614469565b935061372981856020860161463f565b61373281614815565b840191505092915050565b600061374882614422565b613752818561447a565b935061376281856020860161463f565b61376b81614815565b840191505092915050565b600061378182614422565b61378b818561448b565b935061379b81856020860161463f565b6137a481614815565b840191505092915050565b60006137ba82614422565b6137c4818561449c565b93506137d481856020860161463f565b80840191505092915050565b60006137ed60328361448b565b91506137f882614826565b604082019050919050565b600061381060258361448b565b915061381b82614875565b604082019050919050565b6000613833601c8361448b565b915061383e826148c4565b602082019050919050565b600061385660268361449c565b9150613861826148ed565b602682019050919050565b600061387960248361448b565b91506138848261493c565b604082019050919050565b600061389c603a8361448b565b91506138a78261498b565b604082019050919050565b60006138bf60198361448b565b91506138ca826149da565b602082019050919050565b60006138e2605a8361449c565b91506138ed82614a03565b605a82019050919050565b6000613905600f8361449c565b915061391082614a78565b600f82019050919050565b600061392860168361449c565b915061393382614aa1565b601682019050919050565b600061394b602c8361448b565b915061395682614aca565b604082019050919050565b600061396e60278361449c565b915061397982614b19565b602782019050919050565b600061399160388361448b565b915061399c82614b68565b604082019050919050565b60006139b4602a8361448b565b91506139bf82614bb7565b604082019050919050565b60006139d760298361448b565b91506139e282614c06565b604082019050919050565b60006139fa602b8361449c565b9150613a0582614c55565b602b82019050919050565b6000613a1d60048361449c565b9150613a2882614ca4565b600482019050919050565b6000613a4060248361449c565b9150613a4b82614ccd565b602482019050919050565b6000613a6360208361448b565b9150613a6e82614d1c565b602082019050919050565b6000613a86602c8361448b565b9150613a9182614d45565b604082019050919050565b6000613aa960348361449c565b9150613ab482614d94565b603482019050919050565b6000613acc602b8361449c565b9150613ad782614de3565b602b82019050919050565b6000613aef60218361448b565b9150613afa82614e32565b604082019050919050565b6000613b12601d8361449c565b9150613b1d82614e81565b601d82019050919050565b6000613b35603c8361448b565b9150613b4082614eaa565b604082019050919050565b6000613b5860318361448b565b9150613b6382614ef9565b604082019050919050565b6000613b7b602c8361449c565b9150613b8682614f48565b602c82019050919050565b6000613b9e60358361449c565b9150613ba982614f97565b603582019050919050565b600061016083016000830151613bcd6000860182613dae565b5060208301518482036020860152613be5828261373d565b91505060408301518482036040860152613bff828261373d565b91505060608301518482036060860152613c19828261373d565b9150506080830151613c2e6080860182613dae565b5060a0830151613c4160a0860182613dae565b5060c0830151613c5460c0860182613dae565b5060e0830151613c6760e0860182613dae565b50610100830151613c7c610100860182613dae565b50610120830151613c91610120860182613dae565b50610140830151613ca6610140860182613dae565b508091505092915050565b600061016083016000830151613cca6000860182613dae565b5060208301518482036020860152613ce2828261373d565b91505060408301518482036040860152613cfc828261373d565b91505060608301518482036060860152613d16828261373d565b9150506080830151613d2b6080860182613dae565b5060a0830151613d3e60a0860182613dae565b5060c0830151613d5160c0860182613dae565b5060e0830151613d6460e0860182613dae565b50610100830151613d79610100860182613dae565b50610120830151613d8e610120860182613dae565b50610140830151613da3610140860182613dae565b508091505092915050565b613db781614626565b82525050565b613dc681614626565b82525050565b613ddd613dd882614626565b61471e565b82525050565b6000613dee8261391b565b9150613dfa828e6137af565b9150613e05826138d5565b9150613e11828d6137af565b9150613e1c82613a9c565b9150613e28828c6137af565b9150613e3382613849565b9150613e3f828b6137af565b9150613e4a82613961565b9150613e56828a6137af565b9150613e6182613b6e565b9150613e6d82896137af565b9150613e78826138f8565b9150613e8482886137af565b9150613e8f82613b91565b9150613e9b82876137af565b9150613ea6826139ed565b9150613eb282866137af565b9150613ebd82613abf565b9150613ec982856137af565b9150613ed482613a33565b9150613ee082846137af565b9150613eeb82613a10565b91508190509c9b505050505050505050505050565b6000613f0b82613b05565b9150613f1782846137af565b915081905092915050565b6000613f2e8286613dcc565b602082019150613f3e8285613dcc565b602082019150613f4e8284613dcc565b602082019150819050949350505050565b6000602082019050613f746000830184613613565b92915050565b6000608082019050613f8f6000830187613613565b613f9c6020830186613613565b613fa96040830185613dbd565b8181036060830152613fbb8184613704565b905095945050505050565b6000606082019050613fdb6000830186613613565b613fe86020830185613dbd565b613ff56040830184613dbd565b949350505050565b600060208201905081810360008301526140178184613622565b905092915050565b600060208201905081810360008301526140398184613680565b905092915050565b600060208201905061405660008301846136f5565b92915050565b600060208201905081810360008301526140768184613776565b905092915050565b600060408201905081810360008301526140988185613776565b90506140a76020830184613dbd565b9392505050565b600060208201905081810360008301526140c7816137e0565b9050919050565b600060208201905081810360008301526140e781613803565b9050919050565b6000602082019050818103600083015261410781613826565b9050919050565b600060208201905081810360008301526141278161386c565b9050919050565b600060208201905081810360008301526141478161388f565b9050919050565b60006020820190508181036000830152614167816138b2565b9050919050565b600060208201905081810360008301526141878161393e565b9050919050565b600060208201905081810360008301526141a781613984565b9050919050565b600060208201905081810360008301526141c7816139a7565b9050919050565b600060208201905081810360008301526141e7816139ca565b9050919050565b6000602082019050818103600083015261420781613a56565b9050919050565b6000602082019050818103600083015261422781613a79565b9050919050565b6000602082019050818103600083015261424781613ae2565b9050919050565b6000602082019050818103600083015261426781613b28565b9050919050565b6000602082019050818103600083015261428781613b4b565b9050919050565b600060208201905081810360008301526142a88184613cb1565b905092915050565b60006020820190506142c56000830184613dbd565b92915050565b6000610160820190506142e1600083018e613dbd565b81810360208301526142f3818d613776565b90508181036040830152614307818c613776565b9050818103606083015261431b818b613776565b905061432a608083018a613dbd565b61433760a0830189613dbd565b61434460c0830188613dbd565b61435160e0830187613dbd565b61435f610100830186613dbd565b61436d610120830185613dbd565b61437b610140830184613dbd565b9c9b505050505050505050505050565b60006143956143a6565b90506143a182826146a4565b919050565b6000604051905090565b600067ffffffffffffffff8211156143cb576143ca6147e6565b5b6143d482614815565b9050602081019050919050565b6000819050602082019050919050565b6000819050602082019050919050565b600081519050919050565b600081519050919050565b600081519050919050565b600081519050919050565b6000602082019050919050565b6000602082019050919050565b600082825260208201905092915050565b600082825260208201905092915050565b600082825260208201905092915050565b600082825260208201905092915050565b600082825260208201905092915050565b600081905092915050565b60006144b282614626565b91506144bd83614626565b9250827fffffffffffffffffffffffffffffffffffffffffffffffffffffffffffffffff038211156144f2576144f1614759565b5b828201905092915050565b600061450882614626565b915061451383614626565b92508261452357614522614788565b5b828204905092915050565b600061453982614626565b915061454483614626565b9250817fffffffffffffffffffffffffffffffffffffffffffffffffffffffffffffffff048311821515161561457d5761457c614759565b5b828202905092915050565b600061459382614626565b915061459e83614626565b9250828210156145b1576145b0614759565b5b828203905092915050565b60006145c782614606565b9050919050565b60008115159050919050565b60007fffffffff0000000000000000000000000000000000000000000000000000000082169050919050565b600073ffffffffffffffffffffffffffffffffffffffff82169050919050565b6000819050919050565b82818337600083830152505050565b60005b8381101561465d578082015181840152602081019050614642565b8381111561466c576000848401525b50505050565b6000600282049050600182168061468a57607f821691505b6020821081141561469e5761469d6147b7565b5b50919050565b6146ad82614815565b810181811067ffffffffffffffff821117156146cc576146cb6147e6565b5b80604052505050565b60006146e082614626565b91507fffffffffffffffffffffffffffffffffffffffffffffffffffffffffffffffff82141561471357614712614759565b5b600182019050919050565b6000819050919050565b600061473382614626565b915061473e83614626565b92508261474e5761474d614788565b5b828206905092915050565b7f4e487b7100000000000000000000000000000000000000000000000000000000600052601160045260246000fd5b7f4e487b7100000000000000000000000000000000000000000000000000000000600052601260045260246000fd5b7f4e487b7100000000000000000000000000000000000000000000000000000000600052602260045260246000fd5b7f4e487b7100000000000000000000000000000000000000000000000000000000600052604160045260246000fd5b6000601f19601f8301169050919050565b7f4552433732313a207472616e7366657220746f206e6f6e20455243373231526560008201527f63656976657220696d706c656d656e7465720000000000000000000000000000602082015250565b7f4552433732313a207472616e736665722066726f6d20696e636f72726563742060008201527f6f776e6572000000000000000000000000000000000000000000000000000000602082015250565b7f4552433732313a20746f6b656e20616c7265616479206d696e74656400000000600082015250565b7f227d2c207b2274726169745f74797065223a2022436f6c6f72222c202276616c60008201527f7565223a20220000000000000000000000000000000000000000000000000000602082015250565b7f4552433732313a207472616e7366657220746f20746865207a65726f2061646460008201527f7265737300000000000000000000000000000000000000000000000000000000602082015250565b7f4572726f723a20706c61796572207468696566206d757374206861766520617460008201527f206c65617374206f6e6520737465616c20746f20737465616c2e000000000000602082015250565b7f4552433732313a20617070726f766520746f2063616c6c657200000000000000600082015250565b7f222c20226465736372697074696f6e223a20225468697320697320616e204e4660008201527f542074686174206c6574732070656f706c6520706c617920696e20746865206760208201527f616d6520546869657661727921222c2022696d616765223a2022000000000000604082015250565b7f2c20226d61785f76616c7565223a200000000000000000000000000000000000600082015250565b7f7b226e616d65223a2022546869657661727920233a2000000000000000000000600082015250565b7f4552433732313a206f70657261746f7220717565727920666f72206e6f6e657860008201527f697374656e7420746f6b656e0000000000000000000000000000000000000000602082015250565b7f227d2c207b2274726169745f74797065223a2022436c617373222c202276616c60008201527f7565223a20222300000000000000000000000000000000000000000000000000602082015250565b7f4552433732313a20617070726f76652063616c6c6572206973206e6f74206f7760008201527f6e6572206e6f7220617070726f76656420666f7220616c6c0000000000000000602082015250565b7f4552433732313a2062616c616e636520717565727920666f7220746865207a6560008201527f726f206164647265737300000000000000000000000000000000000000000000602082015250565b7f4552433732313a206f776e657220717565727920666f72206e6f6e657869737460008201527f656e7420746f6b656e0000000000000000000000000000000000000000000000602082015250565b7f7d2c207b2274726169745f74797065223a202244616767657220436f756e742260008201527f2c202276616c7565223a20000000000000000000000000000000000000000000602082015250565b7f7d205d7d00000000000000000000000000000000000000000000000000000000600082015250565b7f7d2c207b2274726169745f74797065223a20224c6576656c222c202276616c7560008201527f65223a2000000000000000000000000000000000000000000000000000000000602082015250565b7f4552433732313a206d696e7420746f20746865207a65726f2061646472657373600082015250565b7f4552433732313a20617070726f76656420717565727920666f72206e6f6e657860008201527f697374656e7420746f6b656e0000000000000000000000000000000000000000602082015250565b7f222c202261747472696275746573223a205b207b2274726169745f747970652260008201527f3a2022436c616e222c202276616c7565223a2022000000000000000000000000602082015250565b7f7d2c207b2274726169745f74797065223a2022536869656c6420436f756e742260008201527f2c202276616c7565223a20000000000000000000000000000000000000000000602082015250565b7f4552433732313a20617070726f76616c20746f2063757272656e74206f776e6560008201527f7200000000000000000000000000000000000000000000000000000000000000602082015250565b7f646174613a6170706c69636174696f6e2f6a736f6e3b6261736536342c000000600082015250565b7f4572726f723a20706c617965722076696374696d206d7573742068617665206160008201527f74206c65617374206f6e652064616767657220746f20737465616c2e00000000602082015250565b7f4552433732313a207472616e736665722063616c6c6572206973206e6f74206f60008201527f776e6572206e6f7220617070726f766564000000000000000000000000000000602082015250565b7f227d2c207b202274726169745f74797065223a2022537465616c73204c65667460008201527f222c202276616c7565223a200000000000000000000000000000000000000000602082015250565b7f7d2c207b202274726169745f74797065223a2022546f74616c204c696665746960008201527f6d6520537465616c73222c202276616c7565223a200000000000000000000000602082015250565b614fef816145bc565b8114614ffa57600080fd5b50565b615006816145ce565b811461501157600080fd5b50565b61501d816145da565b811461502857600080fd5b50565b61503481614626565b811461503f57600080fd5b5056fe4142434445464748494a4b4c4d4e4f505152535455565758595a6162636465666768696a6b6c6d6e6f707172737475767778797a303132333435363738392b2fa2646970667358221220362af6f066bbe25ec465595a28ec755b84385ba74f72a963012f14e934b8992464736f6c63430008040033",
  "linkReferences": {},
  "deployedLinkReferences": {}
}