{
  "_format": "hh-sol-artifact-1",
  "contractName": "Thief",
  "sourceName": "contracts/Thief.sol",
  "abi": [
    {
      "inputs": [
        {
          "internalType": "string[]",
          "name": "playerClan",
          "type": "string[]"
        },
        {
          "internalType": "string[]",
          "name": "playerColors",
          "type": "string[]"
        },
        {
          "internalType": "string[]",
          "name": "playerImageURIs",
          "type": "string[]"
        }
      ],
      "stateMutability": "nonpayable",
      "type": "constructor"
    },
    {
      "anonymous": false,
      "inputs": [
        {
          "indexed": true,
          "internalType": "address",
          "name": "owner",
          "type": "address"
        },
        {
          "indexed": true,
          "internalType": "address",
          "name": "approved",
          "type": "address"
        },
        {
          "indexed": true,
          "internalType": "uint256",
          "name": "tokenId",
          "type": "uint256"
        }
      ],
      "name": "Approval",
      "type": "event"
    },
    {
      "anonymous": false,
      "inputs": [
        {
          "indexed": true,
          "internalType": "address",
          "name": "owner",
          "type": "address"
        },
        {
          "indexed": true,
          "internalType": "address",
          "name": "operator",
          "type": "address"
        },
        {
          "indexed": false,
          "internalType": "bool",
          "name": "approved",
          "type": "bool"
        }
      ],
      "name": "ApprovalForAll",
      "type": "event"
    },
    {
      "anonymous": false,
      "inputs": [
        {
          "indexed": false,
          "internalType": "address",
          "name": "sender",
          "type": "address"
        },
        {
          "indexed": false,
          "internalType": "uint256",
          "name": "tokenId",
          "type": "uint256"
        },
        {
          "indexed": false,
          "internalType": "uint256",
          "name": "playerIndex",
          "type": "uint256"
        }
      ],
      "name": "PlayerNFTMinted",
      "type": "event"
    },
    {
      "anonymous": false,
      "inputs": [
        {
          "indexed": true,
          "internalType": "address",
          "name": "from",
          "type": "address"
        },
        {
          "indexed": true,
          "internalType": "address",
          "name": "to",
          "type": "address"
        },
        {
          "indexed": true,
          "internalType": "uint256",
          "name": "tokenId",
          "type": "uint256"
        }
      ],
      "name": "Transfer",
      "type": "event"
    },
    {
      "inputs": [
        {
          "internalType": "address",
          "name": "to",
          "type": "address"
        },
        {
          "internalType": "uint256",
          "name": "tokenId",
          "type": "uint256"
        }
      ],
      "name": "approve",
      "outputs": [],
      "stateMutability": "nonpayable",
      "type": "function"
    },
    {
      "inputs": [
        {
          "internalType": "address",
          "name": "owner",
          "type": "address"
        }
      ],
      "name": "balanceOf",
      "outputs": [
        {
          "internalType": "uint256",
          "name": "",
          "type": "uint256"
        }
      ],
      "stateMutability": "view",
      "type": "function"
    },
    {
      "inputs": [],
      "name": "checkIfUserHasNFT",
      "outputs": [
        {
          "components": [
            {
              "internalType": "uint256",
              "name": "playerIndex",
              "type": "uint256"
            },
            {
              "internalType": "string",
              "name": "clan",
              "type": "string"
            },
            {
              "internalType": "string",
              "name": "color",
              "type": "string"
            },
            {
              "internalType": "string",
              "name": "imageURI",
              "type": "string"
            },
            {
              "internalType": "uint256",
              "name": "class",
              "type": "uint256"
            },
            {
              "internalType": "uint256",
              "name": "stealsLeft",
              "type": "uint256"
            },
            {
              "internalType": "uint256",
              "name": "maxSteals",
              "type": "uint256"
            },
            {
              "internalType": "uint256",
              "name": "totalStealsAttempted",
              "type": "uint256"
            },
            {
              "internalType": "uint256",
              "name": "daggerCount",
              "type": "uint256"
            },
            {
              "internalType": "uint256",
              "name": "shieldCount",
              "type": "uint256"
            },
            {
              "internalType": "uint256",
              "name": "level",
              "type": "uint256"
            }
          ],
          "internalType": "struct Thief.PlayerAttributes",
          "name": "",
          "type": "tuple"
        }
      ],
      "stateMutability": "view",
      "type": "function"
    },
    {
      "inputs": [
        {
          "internalType": "address",
          "name": "playerAdd",
          "type": "address"
        }
      ],
      "name": "getAPlayerNftDetails",
      "outputs": [
        {
          "components": [
            {
              "internalType": "uint256",
              "name": "playerIndex",
              "type": "uint256"
            },
            {
              "internalType": "string",
              "name": "clan",
              "type": "string"
            },
            {
              "internalType": "string",
              "name": "color",
              "type": "string"
            },
            {
              "internalType": "string",
              "name": "imageURI",
              "type": "string"
            },
            {
              "internalType": "uint256",
              "name": "class",
              "type": "uint256"
            },
            {
              "internalType": "uint256",
              "name": "stealsLeft",
              "type": "uint256"
            },
            {
              "internalType": "uint256",
              "name": "maxSteals",
              "type": "uint256"
            },
            {
              "internalType": "uint256",
              "name": "totalStealsAttempted",
              "type": "uint256"
            },
            {
              "internalType": "uint256",
              "name": "daggerCount",
              "type": "uint256"
            },
            {
              "internalType": "uint256",
              "name": "shieldCount",
              "type": "uint256"
            },
            {
              "internalType": "uint256",
              "name": "level",
              "type": "uint256"
            }
          ],
          "internalType": "struct Thief.PlayerAttributes",
          "name": "",
          "type": "tuple"
        }
      ],
      "stateMutability": "view",
      "type": "function"
    },
    {
      "inputs": [],
      "name": "getAllDefaultThiefs",
      "outputs": [
        {
          "components": [
            {
              "internalType": "uint256",
              "name": "playerIndex",
              "type": "uint256"
            },
            {
              "internalType": "string",
              "name": "clan",
              "type": "string"
            },
            {
              "internalType": "string",
              "name": "color",
              "type": "string"
            },
            {
              "internalType": "string",
              "name": "imageURI",
              "type": "string"
            },
            {
              "internalType": "uint256",
              "name": "class",
              "type": "uint256"
            },
            {
              "internalType": "uint256",
              "name": "stealsLeft",
              "type": "uint256"
            },
            {
              "internalType": "uint256",
              "name": "maxSteals",
              "type": "uint256"
            },
            {
              "internalType": "uint256",
              "name": "totalStealsAttempted",
              "type": "uint256"
            },
            {
              "internalType": "uint256",
              "name": "daggerCount",
              "type": "uint256"
            },
            {
              "internalType": "uint256",
              "name": "shieldCount",
              "type": "uint256"
            },
            {
              "internalType": "uint256",
              "name": "level",
              "type": "uint256"
            }
          ],
          "internalType": "struct Thief.PlayerAttributes[]",
          "name": "",
          "type": "tuple[]"
        }
      ],
      "stateMutability": "view",
      "type": "function"
    },
    {
      "inputs": [
        {
          "internalType": "uint256",
          "name": "tokenId",
          "type": "uint256"
        }
      ],
      "name": "getApproved",
      "outputs": [
        {
          "internalType": "address",
          "name": "",
          "type": "address"
        }
      ],
      "stateMutability": "view",
      "type": "function"
    },
    {
      "inputs": [],
      "name": "getPlayerAddresses",
      "outputs": [
        {
          "internalType": "address[]",
          "name": "",
          "type": "address[]"
        }
      ],
      "stateMutability": "view",
      "type": "function"
    },
    {
      "inputs": [
        {
          "internalType": "address",
          "name": "owner",
          "type": "address"
        },
        {
          "internalType": "address",
          "name": "operator",
          "type": "address"
        }
      ],
      "name": "isApprovedForAll",
      "outputs": [
        {
          "internalType": "bool",
          "name": "",
          "type": "bool"
        }
      ],
      "stateMutability": "view",
      "type": "function"
    },
    {
      "inputs": [],
      "name": "manager",
      "outputs": [
        {
          "internalType": "address",
          "name": "",
          "type": "address"
        }
      ],
      "stateMutability": "view",
      "type": "function"
    },
    {
      "inputs": [],
      "name": "managerCallResetSteals",
      "outputs": [],
      "stateMutability": "nonpayable",
      "type": "function"
    },
    {
      "inputs": [
        {
          "internalType": "uint256",
          "name": "_playerIndex",
          "type": "uint256"
        }
      ],
      "name": "mintThiefNFT",
      "outputs": [],
      "stateMutability": "nonpayable",
      "type": "function"
    },
    {
      "inputs": [],
      "name": "name",
      "outputs": [
        {
          "internalType": "string",
          "name": "",
          "type": "string"
        }
      ],
      "stateMutability": "view",
      "type": "function"
    },
    {
      "inputs": [
        {
          "internalType": "uint256",
          "name": "",
          "type": "uint256"
        }
      ],
      "name": "nftHolderAttributes",
      "outputs": [
        {
          "internalType": "uint256",
          "name": "playerIndex",
          "type": "uint256"
        },
        {
          "internalType": "string",
          "name": "clan",
          "type": "string"
        },
        {
          "internalType": "string",
          "name": "color",
          "type": "string"
        },
        {
          "internalType": "string",
          "name": "imageURI",
          "type": "string"
        },
        {
          "internalType": "uint256",
          "name": "class",
          "type": "uint256"
        },
        {
          "internalType": "uint256",
          "name": "stealsLeft",
          "type": "uint256"
        },
        {
          "internalType": "uint256",
          "name": "maxSteals",
          "type": "uint256"
        },
        {
          "internalType": "uint256",
          "name": "totalStealsAttempted",
          "type": "uint256"
        },
        {
          "internalType": "uint256",
          "name": "daggerCount",
          "type": "uint256"
        },
        {
          "internalType": "uint256",
          "name": "shieldCount",
          "type": "uint256"
        },
        {
          "internalType": "uint256",
          "name": "level",
          "type": "uint256"
        }
      ],
      "stateMutability": "view",
      "type": "function"
    },
    {
      "inputs": [
        {
          "internalType": "address",
          "name": "",
          "type": "address"
        }
      ],
      "name": "nftHolders",
      "outputs": [
        {
          "internalType": "uint256",
          "name": "",
          "type": "uint256"
        }
      ],
      "stateMutability": "view",
      "type": "function"
    },
    {
      "inputs": [
        {
          "internalType": "uint256",
          "name": "tokenId",
          "type": "uint256"
        }
      ],
      "name": "ownerOf",
      "outputs": [
        {
          "internalType": "address",
          "name": "",
          "type": "address"
        }
      ],
      "stateMutability": "view",
      "type": "function"
    },
    {
      "inputs": [
        {
          "internalType": "uint256",
          "name": "",
          "type": "uint256"
        }
      ],
      "name": "players",
      "outputs": [
        {
          "internalType": "address",
          "name": "",
          "type": "address"
        }
      ],
      "stateMutability": "view",
      "type": "function"
    },
    {
      "inputs": [
        {
          "internalType": "address",
          "name": "from",
          "type": "address"
        },
        {
          "internalType": "address",
          "name": "to",
          "type": "address"
        },
        {
          "internalType": "uint256",
          "name": "tokenId",
          "type": "uint256"
        }
      ],
      "name": "safeTransferFrom",
      "outputs": [],
      "stateMutability": "nonpayable",
      "type": "function"
    },
    {
      "inputs": [
        {
          "internalType": "address",
          "name": "from",
          "type": "address"
        },
        {
          "internalType": "address",
          "name": "to",
          "type": "address"
        },
        {
          "internalType": "uint256",
          "name": "tokenId",
          "type": "uint256"
        },
        {
          "internalType": "bytes",
          "name": "_data",
          "type": "bytes"
        }
      ],
      "name": "safeTransferFrom",
      "outputs": [],
      "stateMutability": "nonpayable",
      "type": "function"
    },
    {
      "inputs": [],
      "name": "sendShieldOnNumber",
      "outputs": [
        {
          "internalType": "uint256",
          "name": "",
          "type": "uint256"
        }
      ],
      "stateMutability": "view",
      "type": "function"
    },
    {
      "inputs": [
        {
          "internalType": "address",
          "name": "operator",
          "type": "address"
        },
        {
          "internalType": "bool",
          "name": "approved",
          "type": "bool"
        }
      ],
      "name": "setApprovalForAll",
      "outputs": [],
      "stateMutability": "nonpayable",
      "type": "function"
    },
    {
      "inputs": [
        {
          "internalType": "address",
          "name": "addressToStealFrom",
          "type": "address"
        }
      ],
      "name": "steal",
      "outputs": [],
      "stateMutability": "nonpayable",
      "type": "function"
    },
    {
      "inputs": [
        {
          "internalType": "bytes4",
          "name": "interfaceId",
          "type": "bytes4"
        }
      ],
      "name": "supportsInterface",
      "outputs": [
        {
          "internalType": "bool",
          "name": "",
          "type": "bool"
        }
      ],
      "stateMutability": "view",
      "type": "function"
    },
    {
      "inputs": [],
      "name": "symbol",
      "outputs": [
        {
          "internalType": "string",
          "name": "",
          "type": "string"
        }
      ],
      "stateMutability": "view",
      "type": "function"
    },
    {
      "inputs": [
        {
          "internalType": "uint256",
          "name": "_tokenId",
          "type": "uint256"
        }
      ],
      "name": "tokenURI",
      "outputs": [
        {
          "internalType": "string",
          "name": "",
          "type": "string"
        }
      ],
      "stateMutability": "view",
      "type": "function"
    },
    {
      "inputs": [
        {
          "internalType": "address",
          "name": "from",
          "type": "address"
        },
        {
          "internalType": "address",
          "name": "to",
          "type": "address"
        },
        {
          "internalType": "uint256",
          "name": "tokenId",
          "type": "uint256"
        }
      ],
      "name": "transferFrom",
      "outputs": [],
      "stateMutability": "nonpayable",
      "type": "function"
    },
    {
      "inputs": [
        {
          "internalType": "uint256",
          "name": "count",
          "type": "uint256"
        }
      ],
      "name": "updateSendShieldOnNumber",
      "outputs": [],
      "stateMutability": "nonpayable",
      "type": "function"
    }
  ],
  "bytecode": "0x60806040523480156200001157600080fd5b5060405162005b6138038062005b618339818101604052810190620000379190620004e5565b6040518060400160405280600881526020017f54686569766172790000000000000000000000000000000000000000000000008152506040518060400160405280600581526020017f54484945460000000000000000000000000000000000000000000000000000008152508160009080519060200190620000bb92919062000306565b508060019080519060200190620000d492919062000306565b50505060005b8351811015620002f457600060405180610160016040528083815260200186848151811062000132577f4e487b7100000000000000000000000000000000000000000000000000000000600052603260045260246000fd5b6020026020010151815260200185848151811062000179577f4e487b7100000000000000000000000000000000000000000000000000000000600052603260045260246000fd5b60200260200101518152602001848481518110620001c0577f4e487b7100000000000000000000000000000000000000000000000000000000600052603260045260246000fd5b6020026020010151815260200160008152602001600281526020016002815260200160008152602001600181526020016000815260200160008152509050600a8190806001815401808255809150506001900390600052602060002090600b02016000909190919091506000820151816000015560208201518160010190805190602001906200025292919062000306565b5060408201518160020190805190602001906200027192919062000306565b5060608201518160030190805190602001906200029092919062000306565b506080820151816004015560a0820151816005015560c0820151816006015560e082015181600701556101008201518160080155610120820151816009015561014082015181600a0155505050600181620002ec919062000614565b9050620000da565b506003600781905550505050620007bb565b8280546200031490620006b1565b90600052602060002090601f01602090048101928262000338576000855562000384565b82601f106200035357805160ff191683800117855562000384565b8280016001018555821562000384579182015b828111156200038357825182559160200191906001019062000366565b5b50905062000393919062000397565b5090565b5b80821115620003b257600081600090555060010162000398565b5090565b6000620003cd620003c784620005af565b62000586565b90508083825260208201905082856020860282011115620003ed57600080fd5b60005b858110156200043c57815167ffffffffffffffff8111156200041157600080fd5b808601620004208982620004b8565b85526020850194506020840193505050600181019050620003f0565b5050509392505050565b60006200045d6200045784620005de565b62000586565b9050828152602081018484840111156200047657600080fd5b620004838482856200067b565b509392505050565b600082601f8301126200049d57600080fd5b8151620004af848260208601620003b6565b91505092915050565b600082601f830112620004ca57600080fd5b8151620004dc84826020860162000446565b91505092915050565b600080600060608486031215620004fb57600080fd5b600084015167ffffffffffffffff8111156200051657600080fd5b62000524868287016200048b565b935050602084015167ffffffffffffffff8111156200054257600080fd5b62000550868287016200048b565b925050604084015167ffffffffffffffff8111156200056e57600080fd5b6200057c868287016200048b565b9150509250925092565b600062000592620005a5565b9050620005a08282620006e7565b919050565b6000604051905090565b600067ffffffffffffffff821115620005cd57620005cc6200077b565b5b602082029050602081019050919050565b600067ffffffffffffffff821115620005fc57620005fb6200077b565b5b6200060782620007aa565b9050602081019050919050565b6000620006218262000671565b91506200062e8362000671565b9250827fffffffffffffffffffffffffffffffffffffffffffffffffffffffffffffffff038211156200066657620006656200071d565b5b828201905092915050565b6000819050919050565b60005b838110156200069b5780820151818401526020810190506200067e565b83811115620006ab576000848401525b50505050565b60006002820490506001821680620006ca57607f821691505b60208210811415620006e157620006e06200074c565b5b50919050565b620006f282620007aa565b810181811067ffffffffffffffff821117156200071457620007136200077b565b5b80604052505050565b7f4e487b7100000000000000000000000000000000000000000000000000000000600052601160045260246000fd5b7f4e487b7100000000000000000000000000000000000000000000000000000000600052602260045260246000fd5b7f4e487b7100000000000000000000000000000000000000000000000000000000600052604160045260246000fd5b6000601f19601f8301169050919050565b61539680620007cb6000396000f3fe608060405234801561001057600080fd5b506004361061018e5760003560e01c80637df124a1116100de578063c87b56dd11610097578063e5a35b7111610071578063e5a35b711461048d578063e985e9c5146104bd578063f71d96cb146104ed578063ff0e292c1461051d5761018e565b8063c87b56dd14610423578063c8cf27f414610453578063d7f15aaa146104715761018e565b80637df124a1146103455780638b9642d41461037557806395d89b411461039357806398da4c95146103b1578063a22cb465146103eb578063b88d4fde146104075761018e565b8063481c6a751161014b5780635dc8abb2116101255780635dc8abb2146102ab5780636352211e146102c757806370a08231146102f7578063724d4924146103275761018e565b8063481c6a751461026557806356771b101461028357806357269247146102a15761018e565b806301ffc9a71461019357806306fdde03146101c3578063081812fc146101e1578063095ea7b31461021157806323b872dd1461022d57806342842e0e14610249575b600080fd5b6101ad60048036038101906101a8919061383b565b610539565b6040516101ba919061431f565b60405180910390f35b6101cb61061b565b6040516101d8919061433a565b60405180910390f35b6101fb60048036038101906101f6919061388d565b6106ad565b604051610208919061423d565b60405180910390f35b61022b600480360381019061022691906137ff565b610732565b005b610247600480360381019061024291906136f9565b61084a565b005b610263600480360381019061025e91906136f9565b6108aa565b005b61026d6108ca565b60405161027a919061423d565b60405180910390f35b61028b6108f0565b604051610298919061458e565b60405180910390f35b6102a96108f6565b005b6102c560048036038101906102c09190613694565b61095a565b005b6102e160048036038101906102dc919061388d565b610bb9565b6040516102ee919061423d565b60405180910390f35b610311600480360381019061030c9190613694565b610c6b565b60405161031e919061458e565b60405180910390f35b61032f610d23565b60405161033c91906142db565b60405180910390f35b61035f600480360381019061035a9190613694565b610db1565b60405161036c919061458e565b60405180910390f35b61037d610dc9565b60405161038a91906142fd565b60405180910390f35b61039b61102f565b6040516103a8919061433a565b60405180910390f35b6103cb60048036038101906103c6919061388d565b6110c1565b6040516103e29b9a999897969594939291906145a9565b60405180910390f35b610405600480360381019061040091906137c3565b6112b3565b005b610421600480360381019061041c9190613748565b6112c9565b005b61043d6004803603810190610438919061388d565b61132b565b60405161044a919061433a565b60405180910390f35b61045b61165a565b604051610468919061456c565b60405180910390f35b61048b6004803603810190610486919061388d565b6118ec565b005b6104a760048036038101906104a29190613694565b611950565b6040516104b4919061456c565b60405180910390f35b6104d760048036038101906104d291906136bd565b611be4565b6040516104e4919061431f565b60405180910390f35b6105076004803603810190610502919061388d565b611c78565b604051610514919061423d565b60405180910390f35b6105376004803603810190610532919061388d565b611cb7565b005b60007f80ac58cd000000000000000000000000000000000000000000000000000000007bffffffffffffffffffffffffffffffffffffffffffffffffffffffff1916827bffffffffffffffffffffffffffffffffffffffffffffffffffffffff1916148061060457507f5b5e139f000000000000000000000000000000000000000000000000000000007bffffffffffffffffffffffffffffffffffffffffffffffffffffffff1916827bffffffffffffffffffffffffffffffffffffffffffffffffffffffff1916145b8061061457506106138261238b565b5b9050919050565b60606000805461062a90614950565b80601f016020809104026020016040519081016040528092919081815260200182805461065690614950565b80156106a35780601f10610678576101008083540402835291602001916106a3565b820191906000526020600020905b81548152906001019060200180831161068657829003601f168201915b5050505050905090565b60006106b8826123f5565b6106f7576040517f08c379a00000000000000000000000000000000000000000000000000000000081526004016106ee906144ec565b60405180910390fd5b6004600083815260200190815260200160002060009054906101000a900473ffffffffffffffffffffffffffffffffffffffff169050919050565b600061073d82610bb9565b90508073ffffffffffffffffffffffffffffffffffffffff168373ffffffffffffffffffffffffffffffffffffffff1614156107ae576040517f08c379a00000000000000000000000000000000000000000000000000000000081526004016107a59061450c565b60405180910390fd5b8073ffffffffffffffffffffffffffffffffffffffff166107cd612461565b73ffffffffffffffffffffffffffffffffffffffff1614806107fc57506107fb816107f6612461565b611be4565b5b61083b576040517f08c379a00000000000000000000000000000000000000000000000000000000081526004016108329061446c565b60405180910390fd5b6108458383612469565b505050565b61085b610855612461565b82612522565b61089a576040517f08c379a00000000000000000000000000000000000000000000000000000000081526004016108919061454c565b60405180910390fd5b6108a5838383612600565b505050565b6108c5838383604051806020016040528060008152506112c9565b505050565b600660009054906101000a900473ffffffffffffffffffffffffffffffffffffffff1681565b60075481565b600660009054906101000a900473ffffffffffffffffffffffffffffffffffffffff1673ffffffffffffffffffffffffffffffffffffffff163373ffffffffffffffffffffffffffffffffffffffff161461095057600080fd5b610958612867565b565b6000600c60003373ffffffffffffffffffffffffffffffffffffffff1673ffffffffffffffffffffffffffffffffffffffff1681526020019081526020016000205490506000600b6000838152602001908152602001600020905060008160050154116109fc576040517f08c379a00000000000000000000000000000000000000000000000000000000081526004016109f39061440c565b60405180910390fd5b6000600c60008573ffffffffffffffffffffffffffffffffffffffff1673ffffffffffffffffffffffffffffffffffffffff1681526020019081526020016000205490506000600b60008381526020019081526020016000209050600081600801541180610a6e575060008160090154115b610aad576040517f08c379a0000000000000000000000000000000000000000000000000000000008152600401610aa49061452c565b60405180910390fd5b600081600901541115610b13576001836009016000828254610acf9190614785565b925050819055506001836005016000828254610aeb9190614866565b925050819055506001816009016000828254610b079190614866565b92505081905550610b68565b6001836008016000828254610b289190614785565b925050819055506001836005016000828254610b449190614866565b925050819055506001816008016000828254610b609190614866565b925050819055505b60018360070154610b799190614785565b8360070181905550610b8b6009612983565b60006019610b996009612999565b610ba39190614a06565b1415610bb257610bb1612867565b5b5050505050565b6000806002600084815260200190815260200160002060009054906101000a900473ffffffffffffffffffffffffffffffffffffffff169050600073ffffffffffffffffffffffffffffffffffffffff168173ffffffffffffffffffffffffffffffffffffffff161415610c62576040517f08c379a0000000000000000000000000000000000000000000000000000000008152600401610c59906144ac565b60405180910390fd5b80915050919050565b60008073ffffffffffffffffffffffffffffffffffffffff168273ffffffffffffffffffffffffffffffffffffffff161415610cdc576040517f08c379a0000000000000000000000000000000000000000000000000000000008152600401610cd39061448c565b60405180910390fd5b600360008373ffffffffffffffffffffffffffffffffffffffff1673ffffffffffffffffffffffffffffffffffffffff168152602001908152602001600020549050919050565b6060600d805480602002602001604051908101604052809291908181526020018280548015610da757602002820191906000526020600020905b8160009054906101000a900473ffffffffffffffffffffffffffffffffffffffff1673ffffffffffffffffffffffffffffffffffffffff1681526020019060010190808311610d5d575b5050505050905090565b600c6020528060005260406000206000915090505481565b6060600a805480602002602001604051908101604052809291908181526020016000905b8282101561102657838290600052602060002090600b02016040518061016001604052908160008201548152602001600182018054610e2b90614950565b80601f0160208091040260200160405190810160405280929190818152602001828054610e5790614950565b8015610ea45780601f10610e7957610100808354040283529160200191610ea4565b820191906000526020600020905b815481529060010190602001808311610e8757829003601f168201915b50505050508152602001600282018054610ebd90614950565b80601f0160208091040260200160405190810160405280929190818152602001828054610ee990614950565b8015610f365780601f10610f0b57610100808354040283529160200191610f36565b820191906000526020600020905b815481529060010190602001808311610f1957829003601f168201915b50505050508152602001600382018054610f4f90614950565b80601f0160208091040260200160405190810160405280929190818152602001828054610f7b90614950565b8015610fc85780601f10610f9d57610100808354040283529160200191610fc8565b820191906000526020600020905b815481529060010190602001808311610fab57829003601f168201915b50505050508152602001600482015481526020016005820154815260200160068201548152602001600782015481526020016008820154815260200160098201548152602001600a8201548152505081526020019060010190610ded565b50505050905090565b60606001805461103e90614950565b80601f016020809104026020016040519081016040528092919081815260200182805461106a90614950565b80156110b75780601f1061108c576101008083540402835291602001916110b7565b820191906000526020600020905b81548152906001019060200180831161109a57829003601f168201915b5050505050905090565b600b6020528060005260406000206000915090508060000154908060010180546110ea90614950565b80601f016020809104026020016040519081016040528092919081815260200182805461111690614950565b80156111635780601f1061113857610100808354040283529160200191611163565b820191906000526020600020905b81548152906001019060200180831161114657829003601f168201915b50505050509080600201805461117890614950565b80601f01602080910402602001604051908101604052809291908181526020018280546111a490614950565b80156111f15780601f106111c6576101008083540402835291602001916111f1565b820191906000526020600020905b8154815290600101906020018083116111d457829003601f168201915b50505050509080600301805461120690614950565b80601f016020809104026020016040519081016040528092919081815260200182805461123290614950565b801561127f5780601f106112545761010080835404028352916020019161127f565b820191906000526020600020905b81548152906001019060200180831161126257829003601f168201915b50505050509080600401549080600501549080600601549080600701549080600801549080600901549080600a015490508b565b6112c56112be612461565b83836129a7565b5050565b6112da6112d4612461565b83612522565b611319576040517f08c379a00000000000000000000000000000000000000000000000000000000081526004016113109061454c565b60405180910390fd5b61132584848484612b14565b50505050565b60606000600b6000848152602001908152602001600020604051806101600160405290816000820154815260200160018201805461136890614950565b80601f016020809104026020016040519081016040528092919081815260200182805461139490614950565b80156113e15780601f106113b6576101008083540402835291602001916113e1565b820191906000526020600020905b8154815290600101906020018083116113c457829003601f168201915b505050505081526020016002820180546113fa90614950565b80601f016020809104026020016040519081016040528092919081815260200182805461142690614950565b80156114735780601f1061144857610100808354040283529160200191611473565b820191906000526020600020905b81548152906001019060200180831161145657829003601f168201915b5050505050815260200160038201805461148c90614950565b80601f01602080910402602001604051908101604052809291908181526020018280546114b890614950565b80156115055780601f106114da57610100808354040283529160200191611505565b820191906000526020600020905b8154815290600101906020018083116114e857829003601f168201915b50505050508152602001600482015481526020016005820154815260200160068201548152602001600782015481526020016008820154815260200160098201548152602001600a82015481525050905060006115658260800151612b70565b905060006115768360a00151612b70565b905060006115878460c00151612b70565b905060006115988560e00151612b70565b905060006115aa866101000151612b70565b905060006115bc876101200151612b70565b905060006115ce886101400151612b70565b905060006116226115de8c612b70565b8a606001518b602001518c604001518c8c8c8c8c8c8c60405160200161160e9b9a999897969594939291906140c1565b604051602081830303815290604052612d1d565b905060008160405160200161163791906141de565b6040516020818303038152906040529050809a5050505050505050505050919050565b6116626134c6565b6000600c60003373ffffffffffffffffffffffffffffffffffffffff1673ffffffffffffffffffffffffffffffffffffffff168152602001908152602001600020549050600081106118db57600b600082815260200190815260200160002060405180610160016040529081600082015481526020016001820180546116e790614950565b80601f016020809104026020016040519081016040528092919081815260200182805461171390614950565b80156117605780601f1061173557610100808354040283529160200191611760565b820191906000526020600020905b81548152906001019060200180831161174357829003601f168201915b5050505050815260200160028201805461177990614950565b80601f01602080910402602001604051908101604052809291908181526020018280546117a590614950565b80156117f25780601f106117c7576101008083540402835291602001916117f2565b820191906000526020600020905b8154815290600101906020018083116117d557829003601f168201915b5050505050815260200160038201805461180b90614950565b80601f016020809104026020016040519081016040528092919081815260200182805461183790614950565b80156118845780601f1061185957610100808354040283529160200191611884565b820191906000526020600020905b81548152906001019060200180831161186757829003601f168201915b50505050508152602001600482015481526020016005820154815260200160068201548152602001600782015481526020016008820154815260200160098201548152602001600a820154815250509150506118e9565b6118e36134c6565b80925050505b90565b600660009054906101000a900473ffffffffffffffffffffffffffffffffffffffff1673ffffffffffffffffffffffffffffffffffffffff163373ffffffffffffffffffffffffffffffffffffffff161461194657600080fd5b8060078190555050565b6119586134c6565b6000600c60008473ffffffffffffffffffffffffffffffffffffffff1673ffffffffffffffffffffffffffffffffffffffff16815260200190815260200160002054905060008110611bd157600b600082815260200190815260200160002060405180610160016040529081600082015481526020016001820180546119dd90614950565b80601f0160208091040260200160405190810160405280929190818152602001828054611a0990614950565b8015611a565780601f10611a2b57610100808354040283529160200191611a56565b820191906000526020600020905b815481529060010190602001808311611a3957829003601f168201915b50505050508152602001600282018054611a6f90614950565b80601f0160208091040260200160405190810160405280929190818152602001828054611a9b90614950565b8015611ae85780601f10611abd57610100808354040283529160200191611ae8565b820191906000526020600020905b815481529060010190602001808311611acb57829003601f168201915b50505050508152602001600382018054611b0190614950565b80601f0160208091040260200160405190810160405280929190818152602001828054611b2d90614950565b8015611b7a5780601f10611b4f57610100808354040283529160200191611b7a565b820191906000526020600020905b815481529060010190602001808311611b5d57829003601f168201915b50505050508152602001600482015481526020016005820154815260200160068201548152602001600782015481526020016008820154815260200160098201548152602001600a82015481525050915050611bdf565b611bd96134c6565b80925050505b919050565b6000600560008473ffffffffffffffffffffffffffffffffffffffff1673ffffffffffffffffffffffffffffffffffffffff16815260200190815260200160002060008373ffffffffffffffffffffffffffffffffffffffff1673ffffffffffffffffffffffffffffffffffffffff16815260200190815260200160002060009054906101000a900460ff16905092915050565b600d8181548110611c8857600080fd5b906000526020600020016000915054906101000a900473ffffffffffffffffffffffffffffffffffffffff1681565b6000611cc36008612999565b9050611ccf3382612ea7565b60006001606483611ce091906147db565b611cea9190614785565b9050604051806101600160405280848152602001600a8581548110611d38577f4e487b7100000000000000000000000000000000000000000000000000000000600052603260045260246000fd5b90600052602060002090600b02016001018054611d5490614950565b80601f0160208091040260200160405190810160405280929190818152602001828054611d8090614950565b8015611dcd5780601f10611da257610100808354040283529160200191611dcd565b820191906000526020600020905b815481529060010190602001808311611db057829003601f168201915b50505050508152602001600a8581548110611e11577f4e487b7100000000000000000000000000000000000000000000000000000000600052603260045260246000fd5b90600052602060002090600b02016002018054611e2d90614950565b80601f0160208091040260200160405190810160405280929190818152602001828054611e5990614950565b8015611ea65780601f10611e7b57610100808354040283529160200191611ea6565b820191906000526020600020905b815481529060010190602001808311611e8957829003601f168201915b50505050508152602001600a8581548110611eea577f4e487b7100000000000000000000000000000000000000000000000000000000600052603260045260246000fd5b90600052602060002090600b02016003018054611f0690614950565b80601f0160208091040260200160405190810160405280929190818152602001828054611f3290614950565b8015611f7f5780601f10611f5457610100808354040283529160200191611f7f565b820191906000526020600020905b815481529060010190602001808311611f6257829003601f168201915b50505050508152602001828152602001600a8581548110611fc9577f4e487b7100000000000000000000000000000000000000000000000000000000600052603260045260246000fd5b90600052602060002090600b0201600501548152602001600a858154811061201a577f4e487b7100000000000000000000000000000000000000000000000000000000600052603260045260246000fd5b90600052602060002090600b0201600601548152602001600a858154811061206b577f4e487b7100000000000000000000000000000000000000000000000000000000600052603260045260246000fd5b90600052602060002090600b0201600701548152602001600a85815481106120bc577f4e487b7100000000000000000000000000000000000000000000000000000000600052603260045260246000fd5b90600052602060002090600b0201600801548152602001600a858154811061210d577f4e487b7100000000000000000000000000000000000000000000000000000000600052603260045260246000fd5b90600052602060002090600b0201600901548152602001600a858154811061215e577f4e487b7100000000000000000000000000000000000000000000000000000000600052603260045260246000fd5b90600052602060002090600b0201600a0154815250600b60008481526020019081526020016000206000820151816000015560208201518160010190805190602001906121ac929190613520565b5060408201518160020190805190602001906121c9929190613520565b5060608201518160030190805190602001906121e6929190613520565b506080820151816004015560a0820151816005015560c0820151816006015560e082015181600701556101008201518160080155610120820151816009015561014082015181600a015590505081600c60003373ffffffffffffffffffffffffffffffffffffffff1673ffffffffffffffffffffffffffffffffffffffff16815260200190815260200160002081905550600d339080600181540180825580915050600190039060005260206000200160009091909190916101000a81548173ffffffffffffffffffffffffffffffffffffffff021916908373ffffffffffffffffffffffffffffffffffffffff1602179055506122e46008612983565b61232c6040518060400160405280601981526020017f6d696e746564207375636365737366756c6c20776974683a20000000000000008152506123276008612999565b612ec5565b7f0519bf630ad944dce720bc3e1864c7a4405f2ce5c7eba2fff70d975d7cf5c29833838560405161235f939291906142a4565b60405180910390a16000600754836123779190614a06565b141561238657612385612f61565b5b505050565b60007f01ffc9a7000000000000000000000000000000000000000000000000000000007bffffffffffffffffffffffffffffffffffffffffffffffffffffffff1916827bffffffffffffffffffffffffffffffffffffffffffffffffffffffff1916149050919050565b60008073ffffffffffffffffffffffffffffffffffffffff166002600084815260200190815260200160002060009054906101000a900473ffffffffffffffffffffffffffffffffffffffff1673ffffffffffffffffffffffffffffffffffffffff1614159050919050565b600033905090565b816004600083815260200190815260200160002060006101000a81548173ffffffffffffffffffffffffffffffffffffffff021916908373ffffffffffffffffffffffffffffffffffffffff160217905550808273ffffffffffffffffffffffffffffffffffffffff166124dc83610bb9565b73ffffffffffffffffffffffffffffffffffffffff167f8c5be1e5ebec7d5bd14f71427d1e84f3dd0314c0f7b2291e5b200ac8c7c3b92560405160405180910390a45050565b600061252d826123f5565b61256c576040517f08c379a00000000000000000000000000000000000000000000000000000000081526004016125639061444c565b60405180910390fd5b600061257783610bb9565b90508073ffffffffffffffffffffffffffffffffffffffff168473ffffffffffffffffffffffffffffffffffffffff1614806125b957506125b88185611be4565b5b806125f757508373ffffffffffffffffffffffffffffffffffffffff166125df846106ad565b73ffffffffffffffffffffffffffffffffffffffff16145b91505092915050565b8273ffffffffffffffffffffffffffffffffffffffff1661262082610bb9565b73ffffffffffffffffffffffffffffffffffffffff1614612676576040517f08c379a000000000000000000000000000000000000000000000000000000000815260040161266d906143ac565b60405180910390fd5b600073ffffffffffffffffffffffffffffffffffffffff168273ffffffffffffffffffffffffffffffffffffffff1614156126e6576040517f08c379a00000000000000000000000000000000000000000000000000000000081526004016126dd906143ec565b60405180910390fd5b6126f1838383613064565b6126fc600082612469565b6001600360008573ffffffffffffffffffffffffffffffffffffffff1673ffffffffffffffffffffffffffffffffffffffff168152602001908152602001600020600082825461274c9190614866565b925050819055506001600360008473ffffffffffffffffffffffffffffffffffffffff1673ffffffffffffffffffffffffffffffffffffffff16815260200190815260200160002060008282546127a39190614785565b92505081905550816002600083815260200190815260200160002060006101000a81548173ffffffffffffffffffffffffffffffffffffffff021916908373ffffffffffffffffffffffffffffffffffffffff160217905550808273ffffffffffffffffffffffffffffffffffffffff168473ffffffffffffffffffffffffffffffffffffffff167fddf252ad1be2c89b69c2b068fc378daa952ba7f163c4a11628f55a4df523b3ef60405160405180910390a4612862838383613069565b505050565b60005b600d80549050811015612980576000600c6000600d84815481106128b7577f4e487b7100000000000000000000000000000000000000000000000000000000600052603260045260246000fd5b9060005260206000200160009054906101000a900473ffffffffffffffffffffffffffffffffffffffff1673ffffffffffffffffffffffffffffffffffffffff1673ffffffffffffffffffffffffffffffffffffffff1681526020019081526020016000205490506000600b6000838152602001908152602001600020905060028160080154111561296057600181600a0160008282546129589190614785565b925050819055505b6002816005018190555050506001816129799190614785565b905061286a565b50565b6001816000016000828254019250508190555050565b600081600001549050919050565b8173ffffffffffffffffffffffffffffffffffffffff168373ffffffffffffffffffffffffffffffffffffffff161415612a16576040517f08c379a0000000000000000000000000000000000000000000000000000000008152600401612a0d9061442c565b60405180910390fd5b80600560008573ffffffffffffffffffffffffffffffffffffffff1673ffffffffffffffffffffffffffffffffffffffff16815260200190815260200160002060008473ffffffffffffffffffffffffffffffffffffffff1673ffffffffffffffffffffffffffffffffffffffff16815260200190815260200160002060006101000a81548160ff0219169083151502179055508173ffffffffffffffffffffffffffffffffffffffff168373ffffffffffffffffffffffffffffffffffffffff167f17307eab39ab6107e8899845ad3d59bd9653f200f220920489ca2b5937696c3183604051612b07919061431f565b60405180910390a3505050565b612b1f848484612600565b612b2b8484848461306e565b612b6a576040517f08c379a0000000000000000000000000000000000000000000000000000000008152600401612b619061438c565b60405180910390fd5b50505050565b60606000821415612bb8576040518060400160405280600181526020017f30000000000000000000000000000000000000000000000000000000000000008152509050612d18565b600082905060005b60008214612bea578080612bd3906149b3565b915050600a82612be391906147db565b9150612bc0565b60008167ffffffffffffffff811115612c2c577f4e487b7100000000000000000000000000000000000000000000000000000000600052604160045260246000fd5b6040519080825280601f01601f191660200182016040528015612c5e5781602001600182028036833780820191505090505b5090505b60008514612d1157600182612c779190614866565b9150600a85612c869190614a06565b6030612c929190614785565b60f81b818381518110612cce577f4e487b7100000000000000000000000000000000000000000000000000000000600052603260045260246000fd5b60200101907effffffffffffffffffffffffffffffffffffffffffffffffffffffffffffff1916908160001a905350600a85612d0a91906147db565b9450612c62565b8093505050505b919050565b6060600082511415612d4057604051806020016040528060008152509050612ea2565b60006040518060600160405280604081526020016153216040913990506000600360028551612d6f9190614785565b612d7991906147db565b6004612d85919061480c565b67ffffffffffffffff811115612dc4577f4e487b7100000000000000000000000000000000000000000000000000000000600052604160045260246000fd5b6040519080825280601f01601f191660200182016040528015612df65781602001600182028036833780820191505090505b509050600182016020820185865187015b80821015612e62576003820191508151603f8160121c168501518453600184019350603f81600c1c168501518453600184019350603f8160061c168501518453600184019350603f8116850151845360018401935050612e07565b5050600386510660018114612e7e5760028114612e9157612e99565b603d6001830353603d6002830353612e99565b603d60018303535b50505080925050505b919050565b612ec1828260405180602001604052806000815250613205565b5050565b612f5d8282604051602401612edb92919061435c565b6040516020818303038152906040527f9710a9d0000000000000000000000000000000000000000000000000000000007bffffffffffffffffffffffffffffffffffffffffffffffffffffffff19166020820180517bffffffffffffffffffffffffffffffffffffffffffffffffffffffff8381831617835250505050613260565b5050565b6000612f6d6008612999565b612f75613289565b612f7f9190614a06565b90506000600d8281548110612fbd577f4e487b7100000000000000000000000000000000000000000000000000000000600052603260045260246000fd5b9060005260206000200160009054906101000a900473ffffffffffffffffffffffffffffffffffffffff1690506000600c60008373ffffffffffffffffffffffffffffffffffffffff1673ffffffffffffffffffffffffffffffffffffffff1681526020019081526020016000205490506000600b60008381526020019081526020016000209050600181600901546130569190614785565b816009018190555050505050565b505050565b505050565b600061308f8473ffffffffffffffffffffffffffffffffffffffff166132c9565b156131f8578373ffffffffffffffffffffffffffffffffffffffff1663150b7a026130b8612461565b8786866040518563ffffffff1660e01b81526004016130da9493929190614258565b602060405180830381600087803b1580156130f457600080fd5b505af192505050801561312557506040513d601f19601f820116820180604052508101906131229190613864565b60015b6131a8573d8060008114613155576040519150601f19603f3d011682016040523d82523d6000602084013e61315a565b606091505b506000815114156131a0576040517f08c379a00000000000000000000000000000000000000000000000000000000081526004016131979061438c565b60405180910390fd5b805181602001fd5b63150b7a0260e01b7bffffffffffffffffffffffffffffffffffffffffffffffffffffffff1916817bffffffffffffffffffffffffffffffffffffffffffffffffffffffff1916149150506131fd565b600190505b949350505050565b61320f83836132ec565b61321c600084848461306e565b61325b576040517f08c379a00000000000000000000000000000000000000000000000000000000081526004016132529061438c565b60405180910390fd5b505050565b60008151905060006a636f6e736f6c652e6c6f679050602083016000808483855afa5050505050565b600044424442613299919061480c565b6040516020016132ab93929190614200565b6040516020818303038152906040528051906020012060001c905090565b6000808273ffffffffffffffffffffffffffffffffffffffff163b119050919050565b600073ffffffffffffffffffffffffffffffffffffffff168273ffffffffffffffffffffffffffffffffffffffff16141561335c576040517f08c379a0000000000000000000000000000000000000000000000000000000008152600401613353906144cc565b60405180910390fd5b613365816123f5565b156133a5576040517f08c379a000000000000000000000000000000000000000000000000000000000815260040161339c906143cc565b60405180910390fd5b6133b160008383613064565b6001600360008473ffffffffffffffffffffffffffffffffffffffff1673ffffffffffffffffffffffffffffffffffffffff16815260200190815260200160002060008282546134019190614785565b92505081905550816002600083815260200190815260200160002060006101000a81548173ffffffffffffffffffffffffffffffffffffffff021916908373ffffffffffffffffffffffffffffffffffffffff160217905550808273ffffffffffffffffffffffffffffffffffffffff16600073ffffffffffffffffffffffffffffffffffffffff167fddf252ad1be2c89b69c2b068fc378daa952ba7f163c4a11628f55a4df523b3ef60405160405180910390a46134c260008383613069565b5050565b60405180610160016040528060008152602001606081526020016060815260200160608152602001600081526020016000815260200160008152602001600081526020016000815260200160008152602001600081525090565b82805461352c90614950565b90600052602060002090601f01602090048101928261354e5760008555613595565b82601f1061356757805160ff1916838001178555613595565b82800160010185558215613595579182015b82811115613594578251825591602001919060010190613579565b5b5090506135a291906135a6565b5090565b5b808211156135bf5760008160009055506001016135a7565b5090565b60006135d66135d18461468e565b614669565b9050828152602081018484840111156135ee57600080fd5b6135f984828561490e565b509392505050565b600081359050613610816152c4565b92915050565b600081359050613625816152db565b92915050565b60008135905061363a816152f2565b92915050565b60008151905061364f816152f2565b92915050565b600082601f83011261366657600080fd5b81356136768482602086016135c3565b91505092915050565b60008135905061368e81615309565b92915050565b6000602082840312156136a657600080fd5b60006136b484828501613601565b91505092915050565b600080604083850312156136d057600080fd5b60006136de85828601613601565b92505060206136ef85828601613601565b9150509250929050565b60008060006060848603121561370e57600080fd5b600061371c86828701613601565b935050602061372d86828701613601565b925050604061373e8682870161367f565b9150509250925092565b6000806000806080858703121561375e57600080fd5b600061376c87828801613601565b945050602061377d87828801613601565b935050604061378e8782880161367f565b925050606085013567ffffffffffffffff8111156137ab57600080fd5b6137b787828801613655565b91505092959194509250565b600080604083850312156137d657600080fd5b60006137e485828601613601565b92505060206137f585828601613616565b9150509250929050565b6000806040838503121561381257600080fd5b600061382085828601613601565b92505060206138318582860161367f565b9150509250929050565b60006020828403121561384d57600080fd5b600061385b8482850161362b565b91505092915050565b60006020828403121561387657600080fd5b600061388484828501613640565b91505092915050565b60006020828403121561389f57600080fd5b60006138ad8482850161367f565b91505092915050565b60006138c283836138e2565b60208301905092915050565b60006138da8383613e92565b905092915050565b6138eb8161489a565b82525050565b6138fa8161489a565b82525050565b600061390b826146df565b6139158185614725565b9350613920836146bf565b8060005b8381101561395157815161393888826138b6565b97506139438361470b565b925050600181019050613924565b5085935050505092915050565b6000613969826146ea565b6139738185614736565b935083602082028501613985856146cf565b8060005b858110156139c157848403895281516139a285826138ce565b94506139ad83614718565b925060208a01995050600181019050613989565b50829750879550505050505092915050565b6139dc816148ac565b82525050565b60006139ed826146f5565b6139f78185614747565b9350613a0781856020860161491d565b613a1081614af3565b840191505092915050565b6000613a2682614700565b613a308185614758565b9350613a4081856020860161491d565b613a4981614af3565b840191505092915050565b6000613a5f82614700565b613a698185614769565b9350613a7981856020860161491d565b613a8281614af3565b840191505092915050565b6000613a9882614700565b613aa2818561477a565b9350613ab281856020860161491d565b80840191505092915050565b6000613acb603283614769565b9150613ad682614b04565b604082019050919050565b6000613aee602583614769565b9150613af982614b53565b604082019050919050565b6000613b11601c83614769565b9150613b1c82614ba2565b602082019050919050565b6000613b3460268361477a565b9150613b3f82614bcb565b602682019050919050565b6000613b57602483614769565b9150613b6282614c1a565b604082019050919050565b6000613b7a603a83614769565b9150613b8582614c69565b604082019050919050565b6000613b9d601983614769565b9150613ba882614cb8565b602082019050919050565b6000613bc0605a8361477a565b9150613bcb82614ce1565b605a82019050919050565b6000613be3600f8361477a565b9150613bee82614d56565b600f82019050919050565b6000613c0660168361477a565b9150613c1182614d7f565b601682019050919050565b6000613c29602c83614769565b9150613c3482614da8565b604082019050919050565b6000613c4c60278361477a565b9150613c5782614df7565b602782019050919050565b6000613c6f603883614769565b9150613c7a82614e46565b604082019050919050565b6000613c92602a83614769565b9150613c9d82614e95565b604082019050919050565b6000613cb5602983614769565b9150613cc082614ee4565b604082019050919050565b6000613cd8602b8361477a565b9150613ce382614f33565b602b82019050919050565b6000613cfb60048361477a565b9150613d0682614f82565b600482019050919050565b6000613d1e60248361477a565b9150613d2982614fab565b602482019050919050565b6000613d41602083614769565b9150613d4c82614ffa565b602082019050919050565b6000613d64602c83614769565b9150613d6f82615023565b604082019050919050565b6000613d8760348361477a565b9150613d9282615072565b603482019050919050565b6000613daa602b8361477a565b9150613db5826150c1565b602b82019050919050565b6000613dcd602183614769565b9150613dd882615110565b604082019050919050565b6000613df0601d8361477a565b9150613dfb8261515f565b601d82019050919050565b6000613e13603c83614769565b9150613e1e82615188565b604082019050919050565b6000613e36603183614769565b9150613e41826151d7565b604082019050919050565b6000613e59602c8361477a565b9150613e6482615226565b602c82019050919050565b6000613e7c60358361477a565b9150613e8782615275565b603582019050919050565b600061016083016000830151613eab600086018261408c565b5060208301518482036020860152613ec38282613a1b565b91505060408301518482036040860152613edd8282613a1b565b91505060608301518482036060860152613ef78282613a1b565b9150506080830151613f0c608086018261408c565b5060a0830151613f1f60a086018261408c565b5060c0830151613f3260c086018261408c565b5060e0830151613f4560e086018261408c565b50610100830151613f5a61010086018261408c565b50610120830151613f6f61012086018261408c565b50610140830151613f8461014086018261408c565b508091505092915050565b600061016083016000830151613fa8600086018261408c565b5060208301518482036020860152613fc08282613a1b565b91505060408301518482036040860152613fda8282613a1b565b91505060608301518482036060860152613ff48282613a1b565b9150506080830151614009608086018261408c565b5060a083015161401c60a086018261408c565b5060c083015161402f60c086018261408c565b5060e083015161404260e086018261408c565b5061010083015161405761010086018261408c565b5061012083015161406c61012086018261408c565b5061014083015161408161014086018261408c565b508091505092915050565b61409581614904565b82525050565b6140a481614904565b82525050565b6140bb6140b682614904565b6149fc565b82525050565b60006140cc82613bf9565b91506140d8828e613a8d565b91506140e382613bb3565b91506140ef828d613a8d565b91506140fa82613d7a565b9150614106828c613a8d565b915061411182613b27565b915061411d828b613a8d565b915061412882613c3f565b9150614134828a613a8d565b915061413f82613e4c565b915061414b8289613a8d565b915061415682613bd6565b91506141628288613a8d565b915061416d82613e6f565b91506141798287613a8d565b915061418482613ccb565b91506141908286613a8d565b915061419b82613d9d565b91506141a78285613a8d565b91506141b282613d11565b91506141be8284613a8d565b91506141c982613cee565b91508190509c9b505050505050505050505050565b60006141e982613de3565b91506141f58284613a8d565b915081905092915050565b600061420c82866140aa565b60208201915061421c82856140aa565b60208201915061422c82846140aa565b602082019150819050949350505050565b600060208201905061425260008301846138f1565b92915050565b600060808201905061426d60008301876138f1565b61427a60208301866138f1565b614287604083018561409b565b818103606083015261429981846139e2565b905095945050505050565b60006060820190506142b960008301866138f1565b6142c6602083018561409b565b6142d3604083018461409b565b949350505050565b600060208201905081810360008301526142f58184613900565b905092915050565b60006020820190508181036000830152614317818461395e565b905092915050565b600060208201905061433460008301846139d3565b92915050565b600060208201905081810360008301526143548184613a54565b905092915050565b600060408201905081810360008301526143768185613a54565b9050614385602083018461409b565b9392505050565b600060208201905081810360008301526143a581613abe565b9050919050565b600060208201905081810360008301526143c581613ae1565b9050919050565b600060208201905081810360008301526143e581613b04565b9050919050565b6000602082019050818103600083015261440581613b4a565b9050919050565b6000602082019050818103600083015261442581613b6d565b9050919050565b6000602082019050818103600083015261444581613b90565b9050919050565b6000602082019050818103600083015261446581613c1c565b9050919050565b6000602082019050818103600083015261448581613c62565b9050919050565b600060208201905081810360008301526144a581613c85565b9050919050565b600060208201905081810360008301526144c581613ca8565b9050919050565b600060208201905081810360008301526144e581613d34565b9050919050565b6000602082019050818103600083015261450581613d57565b9050919050565b6000602082019050818103600083015261452581613dc0565b9050919050565b6000602082019050818103600083015261454581613e06565b9050919050565b6000602082019050818103600083015261456581613e29565b9050919050565b600060208201905081810360008301526145868184613f8f565b905092915050565b60006020820190506145a3600083018461409b565b92915050565b6000610160820190506145bf600083018e61409b565b81810360208301526145d1818d613a54565b905081810360408301526145e5818c613a54565b905081810360608301526145f9818b613a54565b9050614608608083018a61409b565b61461560a083018961409b565b61462260c083018861409b565b61462f60e083018761409b565b61463d61010083018661409b565b61464b61012083018561409b565b61465961014083018461409b565b9c9b505050505050505050505050565b6000614673614684565b905061467f8282614982565b919050565b6000604051905090565b600067ffffffffffffffff8211156146a9576146a8614ac4565b5b6146b282614af3565b9050602081019050919050565b6000819050602082019050919050565b6000819050602082019050919050565b600081519050919050565b600081519050919050565b600081519050919050565b600081519050919050565b6000602082019050919050565b6000602082019050919050565b600082825260208201905092915050565b600082825260208201905092915050565b600082825260208201905092915050565b600082825260208201905092915050565b600082825260208201905092915050565b600081905092915050565b600061479082614904565b915061479b83614904565b9250827fffffffffffffffffffffffffffffffffffffffffffffffffffffffffffffffff038211156147d0576147cf614a37565b5b828201905092915050565b60006147e682614904565b91506147f183614904565b92508261480157614800614a66565b5b828204905092915050565b600061481782614904565b915061482283614904565b9250817fffffffffffffffffffffffffffffffffffffffffffffffffffffffffffffffff048311821515161561485b5761485a614a37565b5b828202905092915050565b600061487182614904565b915061487c83614904565b92508282101561488f5761488e614a37565b5b828203905092915050565b60006148a5826148e4565b9050919050565b60008115159050919050565b60007fffffffff0000000000000000000000000000000000000000000000000000000082169050919050565b600073ffffffffffffffffffffffffffffffffffffffff82169050919050565b6000819050919050565b82818337600083830152505050565b60005b8381101561493b578082015181840152602081019050614920565b8381111561494a576000848401525b50505050565b6000600282049050600182168061496857607f821691505b6020821081141561497c5761497b614a95565b5b50919050565b61498b82614af3565b810181811067ffffffffffffffff821117156149aa576149a9614ac4565b5b80604052505050565b60006149be82614904565b91507fffffffffffffffffffffffffffffffffffffffffffffffffffffffffffffffff8214156149f1576149f0614a37565b5b600182019050919050565b6000819050919050565b6000614a1182614904565b9150614a1c83614904565b925082614a2c57614a2b614a66565b5b828206905092915050565b7f4e487b7100000000000000000000000000000000000000000000000000000000600052601160045260246000fd5b7f4e487b7100000000000000000000000000000000000000000000000000000000600052601260045260246000fd5b7f4e487b7100000000000000000000000000000000000000000000000000000000600052602260045260246000fd5b7f4e487b7100000000000000000000000000000000000000000000000000000000600052604160045260246000fd5b6000601f19601f8301169050919050565b7f4552433732313a207472616e7366657220746f206e6f6e20455243373231526560008201527f63656976657220696d706c656d656e7465720000000000000000000000000000602082015250565b7f4552433732313a207472616e736665722066726f6d20696e636f72726563742060008201527f6f776e6572000000000000000000000000000000000000000000000000000000602082015250565b7f4552433732313a20746f6b656e20616c7265616479206d696e74656400000000600082015250565b7f227d2c207b2274726169745f74797065223a2022436f6c6f72222c202276616c60008201527f7565223a20220000000000000000000000000000000000000000000000000000602082015250565b7f4552433732313a207472616e7366657220746f20746865207a65726f2061646460008201527f7265737300000000000000000000000000000000000000000000000000000000602082015250565b7f4572726f723a20706c61796572207468696566206d757374206861766520617460008201527f206c65617374206f6e6520737465616c20746f20737465616c2e000000000000602082015250565b7f4552433732313a20617070726f766520746f2063616c6c657200000000000000600082015250565b7f222c20226465736372697074696f6e223a20225468697320697320616e204e4660008201527f542074686174206c6574732070656f706c6520706c617920696e20746865206760208201527f616d6520546869657661727921222c2022696d616765223a2022000000000000604082015250565b7f2c20226d61785f76616c7565223a200000000000000000000000000000000000600082015250565b7f7b226e616d65223a2022546869657661727920233a2000000000000000000000600082015250565b7f4552433732313a206f70657261746f7220717565727920666f72206e6f6e657860008201527f697374656e7420746f6b656e0000000000000000000000000000000000000000602082015250565b7f227d2c207b2274726169745f74797065223a2022436c617373222c202276616c60008201527f7565223a20222300000000000000000000000000000000000000000000000000602082015250565b7f4552433732313a20617070726f76652063616c6c6572206973206e6f74206f7760008201527f6e6572206e6f7220617070726f76656420666f7220616c6c0000000000000000602082015250565b7f4552433732313a2062616c616e636520717565727920666f7220746865207a6560008201527f726f206164647265737300000000000000000000000000000000000000000000602082015250565b7f4552433732313a206f776e657220717565727920666f72206e6f6e657869737460008201527f656e7420746f6b656e0000000000000000000000000000000000000000000000602082015250565b7f7d2c207b2274726169745f74797065223a202244616767657220436f756e742260008201527f2c202276616c7565223a20000000000000000000000000000000000000000000602082015250565b7f7d205d7d00000000000000000000000000000000000000000000000000000000600082015250565b7f7d2c207b2274726169745f74797065223a20224c6576656c222c202276616c7560008201527f65223a2000000000000000000000000000000000000000000000000000000000602082015250565b7f4552433732313a206d696e7420746f20746865207a65726f2061646472657373600082015250565b7f4552433732313a20617070726f76656420717565727920666f72206e6f6e657860008201527f697374656e7420746f6b656e0000000000000000000000000000000000000000602082015250565b7f222c202261747472696275746573223a205b207b2274726169745f747970652260008201527f3a2022436c616e222c202276616c7565223a2022000000000000000000000000602082015250565b7f7d2c207b2274726169745f74797065223a2022536869656c6420436f756e742260008201527f2c202276616c7565223a20000000000000000000000000000000000000000000602082015250565b7f4552433732313a20617070726f76616c20746f2063757272656e74206f776e6560008201527f7200000000000000000000000000000000000000000000000000000000000000602082015250565b7f646174613a6170706c69636174696f6e2f6a736f6e3b6261736536342c000000600082015250565b7f4572726f723a20706c617965722076696374696d206d7573742068617665206160008201527f74206c65617374206f6e652064616767657220746f20737465616c2e00000000602082015250565b7f4552433732313a207472616e736665722063616c6c6572206973206e6f74206f60008201527f776e6572206e6f7220617070726f766564000000000000000000000000000000602082015250565b7f227d2c207b202274726169745f74797065223a2022537465616c73204c65667460008201527f222c202276616c7565223a200000000000000000000000000000000000000000602082015250565b7f7d2c207b202274726169745f74797065223a2022546f74616c204c696665746960008201527f6d6520537465616c73222c202276616c7565223a200000000000000000000000602082015250565b6152cd8161489a565b81146152d857600080fd5b50565b6152e4816148ac565b81146152ef57600080fd5b50565b6152fb816148b8565b811461530657600080fd5b50565b61531281614904565b811461531d57600080fd5b5056fe4142434445464748494a4b4c4d4e4f505152535455565758595a6162636465666768696a6b6c6d6e6f707172737475767778797a303132333435363738392b2fa2646970667358221220cce2c5329e9e8758717d5082e29e2dd28bdbb848ee473c368fc53d66d96db41064736f6c63430008040033",
  "linkReferences": {},
  "deployedLinkReferences": {}
}