{
    "_format": "hh-sol-artifact-1",
    "contractName": "Thief",
    "sourceName": "contracts/Thief.sol",
    "abi": [
        {
            "inputs": [
                {
                    "internalType": "string[]",
                    "name": "playerClan",
                    "type": "string[]"
                },
                {
                    "internalType": "string[]",
                    "name": "playerColors",
                    "type": "string[]"
                },
                {
                    "internalType": "string[]",
                    "name": "playerImageURIs",
                    "type": "string[]"
                }
            ],
            "stateMutability": "nonpayable",
            "type": "constructor"
        },
        {
            "anonymous": false,
            "inputs": [
                {
                    "indexed": true,
                    "internalType": "address",
                    "name": "owner",
                    "type": "address"
                },
                {
                    "indexed": true,
                    "internalType": "address",
                    "name": "approved",
                    "type": "address"
                },
                {
                    "indexed": true,
                    "internalType": "uint256",
                    "name": "tokenId",
                    "type": "uint256"
                }
            ],
            "name": "Approval",
            "type": "event"
        },
        {
            "anonymous": false,
            "inputs": [
                {
                    "indexed": true,
                    "internalType": "address",
                    "name": "owner",
                    "type": "address"
                },
                {
                    "indexed": true,
                    "internalType": "address",
                    "name": "operator",
                    "type": "address"
                },
                {
                    "indexed": false,
                    "internalType": "bool",
                    "name": "approved",
                    "type": "bool"
                }
            ],
            "name": "ApprovalForAll",
            "type": "event"
        },
        {
            "anonymous": false,
            "inputs": [
                {
                    "indexed": false,
                    "internalType": "address",
                    "name": "sender",
                    "type": "address"
                },
                {
                    "indexed": false,
                    "internalType": "uint256",
                    "name": "tokenId",
                    "type": "uint256"
                },
                {
                    "indexed": false,
                    "internalType": "uint256",
                    "name": "playerIndex",
                    "type": "uint256"
                }
            ],
            "name": "PlayerNFTMinted",
            "type": "event"
        },
        {
            "anonymous": false,
            "inputs": [
                {
                    "indexed": true,
                    "internalType": "address",
                    "name": "from",
                    "type": "address"
                },
                {
                    "indexed": true,
                    "internalType": "address",
                    "name": "to",
                    "type": "address"
                },
                {
                    "indexed": true,
                    "internalType": "uint256",
                    "name": "tokenId",
                    "type": "uint256"
                }
            ],
            "name": "Transfer",
            "type": "event"
        },
        {
            "inputs": [
                {
                    "internalType": "address",
                    "name": "to",
                    "type": "address"
                },
                {
                    "internalType": "uint256",
                    "name": "tokenId",
                    "type": "uint256"
                }
            ],
            "name": "approve",
            "outputs": [],
            "stateMutability": "nonpayable",
            "type": "function"
        },
        {
            "inputs": [
                {
                    "internalType": "address",
                    "name": "owner",
                    "type": "address"
                }
            ],
            "name": "balanceOf",
            "outputs": [
                {
                    "internalType": "uint256",
                    "name": "",
                    "type": "uint256"
                }
            ],
            "stateMutability": "view",
            "type": "function"
        },
        {
            "inputs": [],
            "name": "checkIfUserHasNFT",
            "outputs": [
                {
                    "components": [
                        {
                            "internalType": "uint256",
                            "name": "playerIndex",
                            "type": "uint256"
                        },
                        {
                            "internalType": "string",
                            "name": "clan",
                            "type": "string"
                        },
                        {
                            "internalType": "string",
                            "name": "color",
                            "type": "string"
                        },
                        {
                            "internalType": "string",
                            "name": "imageURI",
                            "type": "string"
                        },
                        {
                            "internalType": "uint256",
                            "name": "class",
                            "type": "uint256"
                        },
                        {
                            "internalType": "uint256",
                            "name": "stealsLeft",
                            "type": "uint256"
                        },
                        {
                            "internalType": "uint256",
                            "name": "maxSteals",
                            "type": "uint256"
                        },
                        {
                            "internalType": "uint256",
                            "name": "totalStealsAttempted",
                            "type": "uint256"
                        },
                        {
                            "internalType": "uint256",
                            "name": "daggerCount",
                            "type": "uint256"
                        },
                        {
                            "internalType": "uint256",
                            "name": "shieldCount",
                            "type": "uint256"
                        },
                        {
                            "internalType": "uint256",
                            "name": "level",
                            "type": "uint256"
                        }
                    ],
                    "internalType": "struct Thief.PlayerAttributes",
                    "name": "",
                    "type": "tuple"
                }
            ],
            "stateMutability": "view",
            "type": "function"
        },
        {
            "inputs": [
                {
                    "internalType": "uint256",
                    "name": "tokenId",
                    "type": "uint256"
                }
            ],
            "name": "getApproved",
            "outputs": [
                {
                    "internalType": "address",
                    "name": "",
                    "type": "address"
                }
            ],
            "stateMutability": "view",
            "type": "function"
        },
        {
            "inputs": [],
            "name": "getPlayers",
            "outputs": [
                {
                    "internalType": "address[]",
                    "name": "",
                    "type": "address[]"
                }
            ],
            "stateMutability": "view",
            "type": "function"
        },
        {
            "inputs": [
                {
                    "internalType": "address",
                    "name": "owner",
                    "type": "address"
                },
                {
                    "internalType": "address",
                    "name": "operator",
                    "type": "address"
                }
            ],
            "name": "isApprovedForAll",
            "outputs": [
                {
                    "internalType": "bool",
                    "name": "",
                    "type": "bool"
                }
            ],
            "stateMutability": "view",
            "type": "function"
        },
        {
            "inputs": [],
            "name": "manager",
            "outputs": [
                {
                    "internalType": "address",
                    "name": "",
                    "type": "address"
                }
            ],
            "stateMutability": "view",
            "type": "function"
        },
        {
            "inputs": [],
            "name": "managerCallResetSteals",
            "outputs": [],
            "stateMutability": "nonpayable",
            "type": "function"
        },
        {
            "inputs": [
                {
                    "internalType": "uint256",
                    "name": "_playerIndex",
                    "type": "uint256"
                }
            ],
            "name": "mintThiefNFT",
            "outputs": [],
            "stateMutability": "nonpayable",
            "type": "function"
        },
        {
            "inputs": [],
            "name": "name",
            "outputs": [
                {
                    "internalType": "string",
                    "name": "",
                    "type": "string"
                }
            ],
            "stateMutability": "view",
            "type": "function"
        },
        {
            "inputs": [
                {
                    "internalType": "uint256",
                    "name": "",
                    "type": "uint256"
                }
            ],
            "name": "nftHolderAttributes",
            "outputs": [
                {
                    "internalType": "uint256",
                    "name": "playerIndex",
                    "type": "uint256"
                },
                {
                    "internalType": "string",
                    "name": "clan",
                    "type": "string"
                },
                {
                    "internalType": "string",
                    "name": "color",
                    "type": "string"
                },
                {
                    "internalType": "string",
                    "name": "imageURI",
                    "type": "string"
                },
                {
                    "internalType": "uint256",
                    "name": "class",
                    "type": "uint256"
                },
                {
                    "internalType": "uint256",
                    "name": "stealsLeft",
                    "type": "uint256"
                },
                {
                    "internalType": "uint256",
                    "name": "maxSteals",
                    "type": "uint256"
                },
                {
                    "internalType": "uint256",
                    "name": "totalStealsAttempted",
                    "type": "uint256"
                },
                {
                    "internalType": "uint256",
                    "name": "daggerCount",
                    "type": "uint256"
                },
                {
                    "internalType": "uint256",
                    "name": "shieldCount",
                    "type": "uint256"
                },
                {
                    "internalType": "uint256",
                    "name": "level",
                    "type": "uint256"
                }
            ],
            "stateMutability": "view",
            "type": "function"
        },
        {
            "inputs": [
                {
                    "internalType": "address",
                    "name": "",
                    "type": "address"
                }
            ],
            "name": "nftHolders",
            "outputs": [
                {
                    "internalType": "uint256",
                    "name": "",
                    "type": "uint256"
                }
            ],
            "stateMutability": "view",
            "type": "function"
        },
        {
            "inputs": [
                {
                    "internalType": "uint256",
                    "name": "tokenId",
                    "type": "uint256"
                }
            ],
            "name": "ownerOf",
            "outputs": [
                {
                    "internalType": "address",
                    "name": "",
                    "type": "address"
                }
            ],
            "stateMutability": "view",
            "type": "function"
        },
        {
            "inputs": [
                {
                    "internalType": "uint256",
                    "name": "",
                    "type": "uint256"
                }
            ],
            "name": "players",
            "outputs": [
                {
                    "internalType": "address",
                    "name": "",
                    "type": "address"
                }
            ],
            "stateMutability": "view",
            "type": "function"
        },
        {
            "inputs": [
                {
                    "internalType": "address",
                    "name": "from",
                    "type": "address"
                },
                {
                    "internalType": "address",
                    "name": "to",
                    "type": "address"
                },
                {
                    "internalType": "uint256",
                    "name": "tokenId",
                    "type": "uint256"
                }
            ],
            "name": "safeTransferFrom",
            "outputs": [],
            "stateMutability": "nonpayable",
            "type": "function"
        },
        {
            "inputs": [
                {
                    "internalType": "address",
                    "name": "from",
                    "type": "address"
                },
                {
                    "internalType": "address",
                    "name": "to",
                    "type": "address"
                },
                {
                    "internalType": "uint256",
                    "name": "tokenId",
                    "type": "uint256"
                },
                {
                    "internalType": "bytes",
                    "name": "_data",
                    "type": "bytes"
                }
            ],
            "name": "safeTransferFrom",
            "outputs": [],
            "stateMutability": "nonpayable",
            "type": "function"
        },
        {
            "inputs": [],
            "name": "sendShieldOnNumber",
            "outputs": [
                {
                    "internalType": "uint256",
                    "name": "",
                    "type": "uint256"
                }
            ],
            "stateMutability": "view",
            "type": "function"
        },
        {
            "inputs": [
                {
                    "internalType": "address",
                    "name": "operator",
                    "type": "address"
                },
                {
                    "internalType": "bool",
                    "name": "approved",
                    "type": "bool"
                }
            ],
            "name": "setApprovalForAll",
            "outputs": [],
            "stateMutability": "nonpayable",
            "type": "function"
        },
        {
            "inputs": [
                {
                    "internalType": "address",
                    "name": "addressToStealFrom",
                    "type": "address"
                }
            ],
            "name": "steal",
            "outputs": [],
            "stateMutability": "nonpayable",
            "type": "function"
        },
        {
            "inputs": [
                {
                    "internalType": "bytes4",
                    "name": "interfaceId",
                    "type": "bytes4"
                }
            ],
            "name": "supportsInterface",
            "outputs": [
                {
                    "internalType": "bool",
                    "name": "",
                    "type": "bool"
                }
            ],
            "stateMutability": "view",
            "type": "function"
        },
        {
            "inputs": [],
            "name": "symbol",
            "outputs": [
                {
                    "internalType": "string",
                    "name": "",
                    "type": "string"
                }
            ],
            "stateMutability": "view",
            "type": "function"
        },
        {
            "inputs": [
                {
                    "internalType": "uint256",
                    "name": "_tokenId",
                    "type": "uint256"
                }
            ],
            "name": "tokenURI",
            "outputs": [
                {
                    "internalType": "string",
                    "name": "",
                    "type": "string"
                }
            ],
            "stateMutability": "view",
            "type": "function"
        },
        {
            "inputs": [
                {
                    "internalType": "address",
                    "name": "from",
                    "type": "address"
                },
                {
                    "internalType": "address",
                    "name": "to",
                    "type": "address"
                },
                {
                    "internalType": "uint256",
                    "name": "tokenId",
                    "type": "uint256"
                }
            ],
            "name": "transferFrom",
            "outputs": [],
            "stateMutability": "nonpayable",
            "type": "function"
        },
        {
            "inputs": [
                {
                    "internalType": "uint256",
                    "name": "count",
                    "type": "uint256"
                }
            ],
            "name": "updateSendShieldOnNumber",
            "outputs": [],
            "stateMutability": "nonpayable",
            "type": "function"
        }
    ],
    "bytecode": "0x60806040523480156200001157600080fd5b5060405162005403380380620054038339818101604052810190620000379190620004e5565b6040518060400160405280600881526020017f54686569766172790000000000000000000000000000000000000000000000008152506040518060400160405280600581526020017f54484945460000000000000000000000000000000000000000000000000000008152508160009080519060200190620000bb92919062000306565b508060019080519060200190620000d492919062000306565b50505060005b8351811015620002f457600060405180610160016040528083815260200186848151811062000132577f4e487b7100000000000000000000000000000000000000000000000000000000600052603260045260246000fd5b6020026020010151815260200185848151811062000179577f4e487b7100000000000000000000000000000000000000000000000000000000600052603260045260246000fd5b60200260200101518152602001848481518110620001c0577f4e487b7100000000000000000000000000000000000000000000000000000000600052603260045260246000fd5b6020026020010151815260200160008152602001600281526020016002815260200160008152602001600181526020016000815260200160008152509050600a8190806001815401808255809150506001900390600052602060002090600b02016000909190919091506000820151816000015560208201518160010190805190602001906200025292919062000306565b5060408201518160020190805190602001906200027192919062000306565b5060608201518160030190805190602001906200029092919062000306565b506080820151816004015560a0820151816005015560c0820151816006015560e082015181600701556101008201518160080155610120820151816009015561014082015181600a0155505050600181620002ec919062000614565b9050620000da565b506003600781905550505050620007bb565b8280546200031490620006b1565b90600052602060002090601f01602090048101928262000338576000855562000384565b82601f106200035357805160ff191683800117855562000384565b8280016001018555821562000384579182015b828111156200038357825182559160200191906001019062000366565b5b50905062000393919062000397565b5090565b5b80821115620003b257600081600090555060010162000398565b5090565b6000620003cd620003c784620005af565b62000586565b90508083825260208201905082856020860282011115620003ed57600080fd5b60005b858110156200043c57815167ffffffffffffffff8111156200041157600080fd5b808601620004208982620004b8565b85526020850194506020840193505050600181019050620003f0565b5050509392505050565b60006200045d6200045784620005de565b62000586565b9050828152602081018484840111156200047657600080fd5b620004838482856200067b565b509392505050565b600082601f8301126200049d57600080fd5b8151620004af848260208601620003b6565b91505092915050565b600082601f830112620004ca57600080fd5b8151620004dc84826020860162000446565b91505092915050565b600080600060608486031215620004fb57600080fd5b600084015167ffffffffffffffff8111156200051657600080fd5b62000524868287016200048b565b935050602084015167ffffffffffffffff8111156200054257600080fd5b62000550868287016200048b565b925050604084015167ffffffffffffffff8111156200056e57600080fd5b6200057c868287016200048b565b9150509250925092565b600062000592620005a5565b9050620005a08282620006e7565b919050565b6000604051905090565b600067ffffffffffffffff821115620005cd57620005cc6200077b565b5b602082029050602081019050919050565b600067ffffffffffffffff821115620005fc57620005fb6200077b565b5b6200060782620007aa565b9050602081019050919050565b6000620006218262000671565b91506200062e8362000671565b9250827fffffffffffffffffffffffffffffffffffffffffffffffffffffffffffffffff038211156200066657620006656200071d565b5b828201905092915050565b6000819050919050565b60005b838110156200069b5780820151818401526020810190506200067e565b83811115620006ab576000848401525b50505050565b60006002820490506001821680620006ca57607f821691505b60208210811415620006e157620006e06200074c565b5b50919050565b620006f282620007aa565b810181811067ffffffffffffffff821117156200071457620007136200077b565b5b80604052505050565b7f4e487b7100000000000000000000000000000000000000000000000000000000600052601160045260246000fd5b7f4e487b7100000000000000000000000000000000000000000000000000000000600052602260045260246000fd5b7f4e487b7100000000000000000000000000000000000000000000000000000000600052604160045260246000fd5b6000601f19601f8301169050919050565b614c3880620007cb6000396000f3fe608060405234801561001057600080fd5b50600436106101585760003560e01c80637df124a1116100c3578063c87b56dd1161007c578063c87b56dd146103cf578063c8cf27f4146103ff578063d7f15aaa1461041d578063e985e9c514610439578063f71d96cb14610469578063ff0e292c1461049957610158565b80637df124a1146102f15780638b5b9ccc1461032157806395d89b411461033f57806398da4c951461035d578063a22cb46514610397578063b88d4fde146103b357610158565b8063481c6a7511610115578063481c6a751461022f57806356771b101461024d578063572692471461026b5780635dc8abb2146102755780636352211e1461029157806370a08231146102c157610158565b806301ffc9a71461015d57806306fdde031461018d578063081812fc146101ab578063095ea7b3146101db57806323b872dd146101f757806342842e0e14610213575b600080fd5b610177600480360381019061017291906132be565b6104b5565b6040516101849190613bfa565b60405180910390f35b610195610597565b6040516101a29190613c15565b60405180910390f35b6101c560048036038101906101c09190613310565b610629565b6040516101d29190613b3a565b60405180910390f35b6101f560048036038101906101f09190613282565b6106ae565b005b610211600480360381019061020c919061317c565b6107c6565b005b61022d6004803603810190610228919061317c565b610826565b005b610237610846565b6040516102449190613b3a565b60405180910390f35b61025561086c565b6040516102629190613e69565b60405180910390f35b610273610872565b005b61028f600480360381019061028a9190613117565b6108d6565b005b6102ab60048036038101906102a69190613310565b610b35565b6040516102b89190613b3a565b60405180910390f35b6102db60048036038101906102d69190613117565b610be7565b6040516102e89190613e69565b60405180910390f35b61030b60048036038101906103069190613117565b610c9f565b6040516103189190613e69565b60405180910390f35b610329610cb7565b6040516103369190613bd8565b60405180910390f35b610347610d45565b6040516103549190613c15565b60405180910390f35b61037760048036038101906103729190613310565b610dd7565b60405161038e9b9a99989796959493929190613e84565b60405180910390f35b6103b160048036038101906103ac9190613246565b610fc9565b005b6103cd60048036038101906103c891906131cb565b610fdf565b005b6103e960048036038101906103e49190613310565b611041565b6040516103f69190613c15565b60405180910390f35b610407611370565b6040516104149190613e47565b60405180910390f35b61043760048036038101906104329190613310565b611603565b005b610453600480360381019061044e9190613140565b611667565b6040516104609190613bfa565b60405180910390f35b610483600480360381019061047e9190613310565b6116fb565b6040516104909190613b3a565b60405180910390f35b6104b360048036038101906104ae9190613310565b61173a565b005b60007f80ac58cd000000000000000000000000000000000000000000000000000000007bffffffffffffffffffffffffffffffffffffffffffffffffffffffff1916827bffffffffffffffffffffffffffffffffffffffffffffffffffffffff1916148061058057507f5b5e139f000000000000000000000000000000000000000000000000000000007bffffffffffffffffffffffffffffffffffffffffffffffffffffffff1916827bffffffffffffffffffffffffffffffffffffffffffffffffffffffff1916145b80610590575061058f82611e0e565b5b9050919050565b6060600080546105a6906141f2565b80601f01602080910402602001604051908101604052809291908181526020018280546105d2906141f2565b801561061f5780601f106105f45761010080835404028352916020019161061f565b820191906000526020600020905b81548152906001019060200180831161060257829003601f168201915b5050505050905090565b600061063482611e78565b610673576040517f08c379a000000000000000000000000000000000000000000000000000000000815260040161066a90613dc7565b60405180910390fd5b6004600083815260200190815260200160002060009054906101000a900473ffffffffffffffffffffffffffffffffffffffff169050919050565b60006106b982610b35565b90508073ffffffffffffffffffffffffffffffffffffffff168373ffffffffffffffffffffffffffffffffffffffff16141561072a576040517f08c379a000000000000000000000000000000000000000000000000000000000815260040161072190613de7565b60405180910390fd5b8073ffffffffffffffffffffffffffffffffffffffff16610749611ee4565b73ffffffffffffffffffffffffffffffffffffffff161480610778575061077781610772611ee4565b611667565b5b6107b7576040517f08c379a00000000000000000000000000000000000000000000000000000000081526004016107ae90613d47565b60405180910390fd5b6107c18383611eec565b505050565b6107d76107d1611ee4565b82611fa5565b610816576040517f08c379a000000000000000000000000000000000000000000000000000000000815260040161080d90613e27565b60405180910390fd5b610821838383612083565b505050565b61084183838360405180602001604052806000815250610fdf565b505050565b600660009054906101000a900473ffffffffffffffffffffffffffffffffffffffff1681565b60075481565b600660009054906101000a900473ffffffffffffffffffffffffffffffffffffffff1673ffffffffffffffffffffffffffffffffffffffff163373ffffffffffffffffffffffffffffffffffffffff16146108cc57600080fd5b6108d46122ea565b565b6000600c60003373ffffffffffffffffffffffffffffffffffffffff1673ffffffffffffffffffffffffffffffffffffffff1681526020019081526020016000205490506000600b600083815260200190815260200160002090506000816005015411610978576040517f08c379a000000000000000000000000000000000000000000000000000000000815260040161096f90613ce7565b60405180910390fd5b6000600c60008573ffffffffffffffffffffffffffffffffffffffff1673ffffffffffffffffffffffffffffffffffffffff1681526020019081526020016000205490506000600b600083815260200190815260200160002090506000816008015411806109ea575060008160090154115b610a29576040517f08c379a0000000000000000000000000000000000000000000000000000000008152600401610a2090613e07565b60405180910390fd5b600081600901541115610a8f576001836009016000828254610a4b9190614027565b925050819055506001836005016000828254610a679190614108565b925050819055506001816009016000828254610a839190614108565b92505081905550610ae4565b6001836008016000828254610aa49190614027565b925050819055506001836005016000828254610ac09190614108565b925050819055506001816008016000828254610adc9190614108565b925050819055505b60018360070154610af59190614027565b8360070181905550610b076009612406565b60006019610b15600961241c565b610b1f91906142a8565b1415610b2e57610b2d6122ea565b5b5050505050565b6000806002600084815260200190815260200160002060009054906101000a900473ffffffffffffffffffffffffffffffffffffffff169050600073ffffffffffffffffffffffffffffffffffffffff168173ffffffffffffffffffffffffffffffffffffffff161415610bde576040517f08c379a0000000000000000000000000000000000000000000000000000000008152600401610bd590613d87565b60405180910390fd5b80915050919050565b60008073ffffffffffffffffffffffffffffffffffffffff168273ffffffffffffffffffffffffffffffffffffffff161415610c58576040517f08c379a0000000000000000000000000000000000000000000000000000000008152600401610c4f90613d67565b60405180910390fd5b600360008373ffffffffffffffffffffffffffffffffffffffff1673ffffffffffffffffffffffffffffffffffffffff168152602001908152602001600020549050919050565b600c6020528060005260406000206000915090505481565b6060600d805480602002602001604051908101604052809291908181526020018280548015610d3b57602002820191906000526020600020905b8160009054906101000a900473ffffffffffffffffffffffffffffffffffffffff1673ffffffffffffffffffffffffffffffffffffffff1681526020019060010190808311610cf1575b5050505050905090565b606060018054610d54906141f2565b80601f0160208091040260200160405190810160405280929190818152602001828054610d80906141f2565b8015610dcd5780601f10610da257610100808354040283529160200191610dcd565b820191906000526020600020905b815481529060010190602001808311610db057829003601f168201915b5050505050905090565b600b602052806000526040600020600091509050806000015490806001018054610e00906141f2565b80601f0160208091040260200160405190810160405280929190818152602001828054610e2c906141f2565b8015610e795780601f10610e4e57610100808354040283529160200191610e79565b820191906000526020600020905b815481529060010190602001808311610e5c57829003601f168201915b505050505090806002018054610e8e906141f2565b80601f0160208091040260200160405190810160405280929190818152602001828054610eba906141f2565b8015610f075780601f10610edc57610100808354040283529160200191610f07565b820191906000526020600020905b815481529060010190602001808311610eea57829003601f168201915b505050505090806003018054610f1c906141f2565b80601f0160208091040260200160405190810160405280929190818152602001828054610f48906141f2565b8015610f955780601f10610f6a57610100808354040283529160200191610f95565b820191906000526020600020905b815481529060010190602001808311610f7857829003601f168201915b50505050509080600401549080600501549080600601549080600701549080600801549080600901549080600a015490508b565b610fdb610fd4611ee4565b838361242a565b5050565b610ff0610fea611ee4565b83611fa5565b61102f576040517f08c379a000000000000000000000000000000000000000000000000000000000815260040161102690613e27565b60405180910390fd5b61103b84848484612597565b50505050565b60606000600b6000848152602001908152602001600020604051806101600160405290816000820154815260200160018201805461107e906141f2565b80601f01602080910402602001604051908101604052809291908181526020018280546110aa906141f2565b80156110f75780601f106110cc576101008083540402835291602001916110f7565b820191906000526020600020905b8154815290600101906020018083116110da57829003601f168201915b50505050508152602001600282018054611110906141f2565b80601f016020809104026020016040519081016040528092919081815260200182805461113c906141f2565b80156111895780601f1061115e57610100808354040283529160200191611189565b820191906000526020600020905b81548152906001019060200180831161116c57829003601f168201915b505050505081526020016003820180546111a2906141f2565b80601f01602080910402602001604051908101604052809291908181526020018280546111ce906141f2565b801561121b5780601f106111f05761010080835404028352916020019161121b565b820191906000526020600020905b8154815290600101906020018083116111fe57829003601f168201915b50505050508152602001600482015481526020016005820154815260200160068201548152602001600782015481526020016008820154815260200160098201548152602001600a820154815250509050600061127b82608001516125f3565b9050600061128c8360a001516125f3565b9050600061129d8460c001516125f3565b905060006112ae8560e001516125f3565b905060006112c08661010001516125f3565b905060006112d28761012001516125f3565b905060006112e48861014001516125f3565b905060006113386112f48c6125f3565b8a606001518b602001518c604001518c8c8c8c8c8c8c6040516020016113249b9a999897969594939291906139be565b6040516020818303038152906040526127a0565b905060008160405160200161134d9190613adb565b6040516020818303038152906040529050809a5050505050505050505050919050565b611378612f49565b6000600c60003373ffffffffffffffffffffffffffffffffffffffff1673ffffffffffffffffffffffffffffffffffffffff16815260200190815260200160002054905060008111156115f257600b600082815260200190815260200160002060405180610160016040529081600082015481526020016001820180546113fe906141f2565b80601f016020809104026020016040519081016040528092919081815260200182805461142a906141f2565b80156114775780601f1061144c57610100808354040283529160200191611477565b820191906000526020600020905b81548152906001019060200180831161145a57829003601f168201915b50505050508152602001600282018054611490906141f2565b80601f01602080910402602001604051908101604052809291908181526020018280546114bc906141f2565b80156115095780601f106114de57610100808354040283529160200191611509565b820191906000526020600020905b8154815290600101906020018083116114ec57829003601f168201915b50505050508152602001600382018054611522906141f2565b80601f016020809104026020016040519081016040528092919081815260200182805461154e906141f2565b801561159b5780601f106115705761010080835404028352916020019161159b565b820191906000526020600020905b81548152906001019060200180831161157e57829003601f168201915b50505050508152602001600482015481526020016005820154815260200160068201548152602001600782015481526020016008820154815260200160098201548152602001600a82015481525050915050611600565b6115fa612f49565b80925050505b90565b600660009054906101000a900473ffffffffffffffffffffffffffffffffffffffff1673ffffffffffffffffffffffffffffffffffffffff163373ffffffffffffffffffffffffffffffffffffffff161461165d57600080fd5b8060078190555050565b6000600560008473ffffffffffffffffffffffffffffffffffffffff1673ffffffffffffffffffffffffffffffffffffffff16815260200190815260200160002060008373ffffffffffffffffffffffffffffffffffffffff1673ffffffffffffffffffffffffffffffffffffffff16815260200190815260200160002060009054906101000a900460ff16905092915050565b600d818154811061170b57600080fd5b906000526020600020016000915054906101000a900473ffffffffffffffffffffffffffffffffffffffff1681565b6000611746600861241c565b9050611752338261292a565b60006001606483611763919061407d565b61176d9190614027565b9050604051806101600160405280848152602001600a85815481106117bb577f4e487b7100000000000000000000000000000000000000000000000000000000600052603260045260246000fd5b90600052602060002090600b020160010180546117d7906141f2565b80601f0160208091040260200160405190810160405280929190818152602001828054611803906141f2565b80156118505780601f1061182557610100808354040283529160200191611850565b820191906000526020600020905b81548152906001019060200180831161183357829003601f168201915b50505050508152602001600a8581548110611894577f4e487b7100000000000000000000000000000000000000000000000000000000600052603260045260246000fd5b90600052602060002090600b020160020180546118b0906141f2565b80601f01602080910402602001604051908101604052809291908181526020018280546118dc906141f2565b80156119295780601f106118fe57610100808354040283529160200191611929565b820191906000526020600020905b81548152906001019060200180831161190c57829003601f168201915b50505050508152602001600a858154811061196d577f4e487b7100000000000000000000000000000000000000000000000000000000600052603260045260246000fd5b90600052602060002090600b02016003018054611989906141f2565b80601f01602080910402602001604051908101604052809291908181526020018280546119b5906141f2565b8015611a025780601f106119d757610100808354040283529160200191611a02565b820191906000526020600020905b8154815290600101906020018083116119e557829003601f168201915b50505050508152602001828152602001600a8581548110611a4c577f4e487b7100000000000000000000000000000000000000000000000000000000600052603260045260246000fd5b90600052602060002090600b0201600501548152602001600a8581548110611a9d577f4e487b7100000000000000000000000000000000000000000000000000000000600052603260045260246000fd5b90600052602060002090600b0201600601548152602001600a8581548110611aee577f4e487b7100000000000000000000000000000000000000000000000000000000600052603260045260246000fd5b90600052602060002090600b0201600701548152602001600a8581548110611b3f577f4e487b7100000000000000000000000000000000000000000000000000000000600052603260045260246000fd5b90600052602060002090600b0201600801548152602001600a8581548110611b90577f4e487b7100000000000000000000000000000000000000000000000000000000600052603260045260246000fd5b90600052602060002090600b0201600901548152602001600a8581548110611be1577f4e487b7100000000000000000000000000000000000000000000000000000000600052603260045260246000fd5b90600052602060002090600b0201600a0154815250600b6000848152602001908152602001600020600082015181600001556020820151816001019080519060200190611c2f929190612fa3565b506040820151816002019080519060200190611c4c929190612fa3565b506060820151816003019080519060200190611c69929190612fa3565b506080820151816004015560a0820151816005015560c0820151816006015560e082015181600701556101008201518160080155610120820151816009015561014082015181600a015590505081600c60003373ffffffffffffffffffffffffffffffffffffffff1673ffffffffffffffffffffffffffffffffffffffff16815260200190815260200160002081905550600d339080600181540180825580915050600190039060005260206000200160009091909190916101000a81548173ffffffffffffffffffffffffffffffffffffffff021916908373ffffffffffffffffffffffffffffffffffffffff160217905550611d676008612406565b611daf6040518060400160405280601981526020017f6d696e746564207375636365737366756c6c20776974683a2000000000000000815250611daa600861241c565b612948565b7f0519bf630ad944dce720bc3e1864c7a4405f2ce5c7eba2fff70d975d7cf5c298338385604051611de293929190613ba1565b60405180910390a1600060075483611dfa91906142a8565b1415611e0957611e086129e4565b5b505050565b60007f01ffc9a7000000000000000000000000000000000000000000000000000000007bffffffffffffffffffffffffffffffffffffffffffffffffffffffff1916827bffffffffffffffffffffffffffffffffffffffffffffffffffffffff1916149050919050565b60008073ffffffffffffffffffffffffffffffffffffffff166002600084815260200190815260200160002060009054906101000a900473ffffffffffffffffffffffffffffffffffffffff1673ffffffffffffffffffffffffffffffffffffffff1614159050919050565b600033905090565b816004600083815260200190815260200160002060006101000a81548173ffffffffffffffffffffffffffffffffffffffff021916908373ffffffffffffffffffffffffffffffffffffffff160217905550808273ffffffffffffffffffffffffffffffffffffffff16611f5f83610b35565b73ffffffffffffffffffffffffffffffffffffffff167f8c5be1e5ebec7d5bd14f71427d1e84f3dd0314c0f7b2291e5b200ac8c7c3b92560405160405180910390a45050565b6000611fb082611e78565b611fef576040517f08c379a0000000000000000000000000000000000000000000000000000000008152600401611fe690613d27565b60405180910390fd5b6000611ffa83610b35565b90508073ffffffffffffffffffffffffffffffffffffffff168473ffffffffffffffffffffffffffffffffffffffff16148061203c575061203b8185611667565b5b8061207a57508373ffffffffffffffffffffffffffffffffffffffff1661206284610629565b73ffffffffffffffffffffffffffffffffffffffff16145b91505092915050565b8273ffffffffffffffffffffffffffffffffffffffff166120a382610b35565b73ffffffffffffffffffffffffffffffffffffffff16146120f9576040517f08c379a00000000000000000000000000000000000000000000000000000000081526004016120f090613c87565b60405180910390fd5b600073ffffffffffffffffffffffffffffffffffffffff168273ffffffffffffffffffffffffffffffffffffffff161415612169576040517f08c379a000000000000000000000000000000000000000000000000000000000815260040161216090613cc7565b60405180910390fd5b612174838383612ae7565b61217f600082611eec565b6001600360008573ffffffffffffffffffffffffffffffffffffffff1673ffffffffffffffffffffffffffffffffffffffff16815260200190815260200160002060008282546121cf9190614108565b925050819055506001600360008473ffffffffffffffffffffffffffffffffffffffff1673ffffffffffffffffffffffffffffffffffffffff16815260200190815260200160002060008282546122269190614027565b92505081905550816002600083815260200190815260200160002060006101000a81548173ffffffffffffffffffffffffffffffffffffffff021916908373ffffffffffffffffffffffffffffffffffffffff160217905550808273ffffffffffffffffffffffffffffffffffffffff168473ffffffffffffffffffffffffffffffffffffffff167fddf252ad1be2c89b69c2b068fc378daa952ba7f163c4a11628f55a4df523b3ef60405160405180910390a46122e5838383612aec565b505050565b60005b600d80549050811015612403576000600c6000600d848154811061233a577f4e487b7100000000000000000000000000000000000000000000000000000000600052603260045260246000fd5b9060005260206000200160009054906101000a900473ffffffffffffffffffffffffffffffffffffffff1673ffffffffffffffffffffffffffffffffffffffff1673ffffffffffffffffffffffffffffffffffffffff1681526020019081526020016000205490506000600b600083815260200190815260200160002090506002816008015411156123e357600181600a0160008282546123db9190614027565b925050819055505b6002816005018190555050506001816123fc9190614027565b90506122ed565b50565b6001816000016000828254019250508190555050565b600081600001549050919050565b8173ffffffffffffffffffffffffffffffffffffffff168373ffffffffffffffffffffffffffffffffffffffff161415612499576040517f08c379a000000000000000000000000000000000000000000000000000000000815260040161249090613d07565b60405180910390fd5b80600560008573ffffffffffffffffffffffffffffffffffffffff1673ffffffffffffffffffffffffffffffffffffffff16815260200190815260200160002060008473ffffffffffffffffffffffffffffffffffffffff1673ffffffffffffffffffffffffffffffffffffffff16815260200190815260200160002060006101000a81548160ff0219169083151502179055508173ffffffffffffffffffffffffffffffffffffffff168373ffffffffffffffffffffffffffffffffffffffff167f17307eab39ab6107e8899845ad3d59bd9653f200f220920489ca2b5937696c318360405161258a9190613bfa565b60405180910390a3505050565b6125a2848484612083565b6125ae84848484612af1565b6125ed576040517f08c379a00000000000000000000000000000000000000000000000000000000081526004016125e490613c67565b60405180910390fd5b50505050565b6060600082141561263b576040518060400160405280600181526020017f3000000000000000000000000000000000000000000000000000000000000000815250905061279b565b600082905060005b6000821461266d57808061265690614255565b915050600a82612666919061407d565b9150612643565b60008167ffffffffffffffff8111156126af577f4e487b7100000000000000000000000000000000000000000000000000000000600052604160045260246000fd5b6040519080825280601f01601f1916602001820160405280156126e15781602001600182028036833780820191505090505b5090505b60008514612794576001826126fa9190614108565b9150600a8561270991906142a8565b60306127159190614027565b60f81b818381518110612751577f4e487b7100000000000000000000000000000000000000000000000000000000600052603260045260246000fd5b60200101907effffffffffffffffffffffffffffffffffffffffffffffffffffffffffffff1916908160001a905350600a8561278d919061407d565b94506126e5565b8093505050505b919050565b60606000825114156127c357604051806020016040528060008152509050612925565b6000604051806060016040528060408152602001614bc360409139905060006003600285516127f29190614027565b6127fc919061407d565b600461280891906140ae565b67ffffffffffffffff811115612847577f4e487b7100000000000000000000000000000000000000000000000000000000600052604160045260246000fd5b6040519080825280601f01601f1916602001820160405280156128795781602001600182028036833780820191505090505b509050600182016020820185865187015b808210156128e5576003820191508151603f8160121c168501518453600184019350603f81600c1c168501518453600184019350603f8160061c168501518453600184019350603f811685015184536001840193505061288a565b505060038651066001811461290157600281146129145761291c565b603d6001830353603d600283035361291c565b603d60018303535b50505080925050505b919050565b612944828260405180602001604052806000815250612c88565b5050565b6129e0828260405160240161295e929190613c37565b6040516020818303038152906040527f9710a9d0000000000000000000000000000000000000000000000000000000007bffffffffffffffffffffffffffffffffffffffffffffffffffffffff19166020820180517bffffffffffffffffffffffffffffffffffffffffffffffffffffffff8381831617835250505050612ce3565b5050565b60006129f0600861241c565b6129f8612d0c565b612a0291906142a8565b90506000600d8281548110612a40577f4e487b7100000000000000000000000000000000000000000000000000000000600052603260045260246000fd5b9060005260206000200160009054906101000a900473ffffffffffffffffffffffffffffffffffffffff1690506000600c60008373ffffffffffffffffffffffffffffffffffffffff1673ffffffffffffffffffffffffffffffffffffffff1681526020019081526020016000205490506000600b6000838152602001908152602001600020905060018160090154612ad99190614027565b816009018190555050505050565b505050565b505050565b6000612b128473ffffffffffffffffffffffffffffffffffffffff16612d4c565b15612c7b578373ffffffffffffffffffffffffffffffffffffffff1663150b7a02612b3b611ee4565b8786866040518563ffffffff1660e01b8152600401612b5d9493929190613b55565b602060405180830381600087803b158015612b7757600080fd5b505af1925050508015612ba857506040513d601f19601f82011682018060405250810190612ba591906132e7565b60015b612c2b573d8060008114612bd8576040519150601f19603f3d011682016040523d82523d6000602084013e612bdd565b606091505b50600081511415612c23576040517f08c379a0000000000000000000000000000000000000000000000000000000008152600401612c1a90613c67565b60405180910390fd5b805181602001fd5b63150b7a0260e01b7bffffffffffffffffffffffffffffffffffffffffffffffffffffffff1916817bffffffffffffffffffffffffffffffffffffffffffffffffffffffff191614915050612c80565b600190505b949350505050565b612c928383612d6f565b612c9f6000848484612af1565b612cde576040517f08c379a0000000000000000000000000000000000000000000000000000000008152600401612cd590613c67565b60405180910390fd5b505050565b60008151905060006a636f6e736f6c652e6c6f679050602083016000808483855afa5050505050565b600044424442612d1c91906140ae565b604051602001612d2e93929190613afd565b6040516020818303038152906040528051906020012060001c905090565b6000808273ffffffffffffffffffffffffffffffffffffffff163b119050919050565b600073ffffffffffffffffffffffffffffffffffffffff168273ffffffffffffffffffffffffffffffffffffffff161415612ddf576040517f08c379a0000000000000000000000000000000000000000000000000000000008152600401612dd690613da7565b60405180910390fd5b612de881611e78565b15612e28576040517f08c379a0000000000000000000000000000000000000000000000000000000008152600401612e1f90613ca7565b60405180910390fd5b612e3460008383612ae7565b6001600360008473ffffffffffffffffffffffffffffffffffffffff1673ffffffffffffffffffffffffffffffffffffffff1681526020019081526020016000206000828254612e849190614027565b92505081905550816002600083815260200190815260200160002060006101000a81548173ffffffffffffffffffffffffffffffffffffffff021916908373ffffffffffffffffffffffffffffffffffffffff160217905550808273ffffffffffffffffffffffffffffffffffffffff16600073ffffffffffffffffffffffffffffffffffffffff167fddf252ad1be2c89b69c2b068fc378daa952ba7f163c4a11628f55a4df523b3ef60405160405180910390a4612f4560008383612aec565b5050565b60405180610160016040528060008152602001606081526020016060815260200160608152602001600081526020016000815260200160008152602001600081526020016000815260200160008152602001600081525090565b828054612faf906141f2565b90600052602060002090601f016020900481019282612fd15760008555613018565b82601f10612fea57805160ff1916838001178555613018565b82800160010185558215613018579182015b82811115613017578251825591602001919060010190612ffc565b5b5090506130259190613029565b5090565b5b8082111561304257600081600090555060010161302a565b5090565b600061305961305484613f69565b613f44565b90508281526020810184848401111561307157600080fd5b61307c8482856141b0565b509392505050565b60008135905061309381614b66565b92915050565b6000813590506130a881614b7d565b92915050565b6000813590506130bd81614b94565b92915050565b6000815190506130d281614b94565b92915050565b600082601f8301126130e957600080fd5b81356130f9848260208601613046565b91505092915050565b60008135905061311181614bab565b92915050565b60006020828403121561312957600080fd5b600061313784828501613084565b91505092915050565b6000806040838503121561315357600080fd5b600061316185828601613084565b925050602061317285828601613084565b9150509250929050565b60008060006060848603121561319157600080fd5b600061319f86828701613084565b93505060206131b086828701613084565b92505060406131c186828701613102565b9150509250925092565b600080600080608085870312156131e157600080fd5b60006131ef87828801613084565b945050602061320087828801613084565b935050604061321187828801613102565b925050606085013567ffffffffffffffff81111561322e57600080fd5b61323a878288016130d8565b91505092959194509250565b6000806040838503121561325957600080fd5b600061326785828601613084565b925050602061327885828601613099565b9150509250929050565b6000806040838503121561329557600080fd5b60006132a385828601613084565b92505060206132b485828601613102565b9150509250929050565b6000602082840312156132d057600080fd5b60006132de848285016130ae565b91505092915050565b6000602082840312156132f957600080fd5b6000613307848285016130c3565b91505092915050565b60006020828403121561332257600080fd5b600061333084828501613102565b91505092915050565b60006133458383613351565b60208301905092915050565b61335a8161413c565b82525050565b6133698161413c565b82525050565b600061337a82613faa565b6133848185613fd8565b935061338f83613f9a565b8060005b838110156133c05781516133a78882613339565b97506133b283613fcb565b925050600181019050613393565b5085935050505092915050565b6133d68161414e565b82525050565b60006133e782613fb5565b6133f18185613fe9565b93506134018185602086016141bf565b61340a81614395565b840191505092915050565b600061342082613fc0565b61342a8185613ffa565b935061343a8185602086016141bf565b61344381614395565b840191505092915050565b600061345982613fc0565b613463818561400b565b93506134738185602086016141bf565b61347c81614395565b840191505092915050565b600061349282613fc0565b61349c818561401c565b93506134ac8185602086016141bf565b80840191505092915050565b60006134c560328361400b565b91506134d0826143a6565b604082019050919050565b60006134e860258361400b565b91506134f3826143f5565b604082019050919050565b600061350b601c8361400b565b915061351682614444565b602082019050919050565b600061352e60268361401c565b91506135398261446d565b602682019050919050565b600061355160248361400b565b915061355c826144bc565b604082019050919050565b6000613574603a8361400b565b915061357f8261450b565b604082019050919050565b600061359760198361400b565b91506135a28261455a565b602082019050919050565b60006135ba605a8361401c565b91506135c582614583565b605a82019050919050565b60006135dd600f8361401c565b91506135e8826145f8565b600f82019050919050565b600061360060168361401c565b915061360b82614621565b601682019050919050565b6000613623602c8361400b565b915061362e8261464a565b604082019050919050565b600061364660278361401c565b915061365182614699565b602782019050919050565b600061366960388361400b565b9150613674826146e8565b604082019050919050565b600061368c602a8361400b565b915061369782614737565b604082019050919050565b60006136af60298361400b565b91506136ba82614786565b604082019050919050565b60006136d2602b8361401c565b91506136dd826147d5565b602b82019050919050565b60006136f560048361401c565b915061370082614824565b600482019050919050565b600061371860248361401c565b91506137238261484d565b602482019050919050565b600061373b60208361400b565b91506137468261489c565b602082019050919050565b600061375e602c8361400b565b9150613769826148c5565b604082019050919050565b600061378160348361401c565b915061378c82614914565b603482019050919050565b60006137a4602b8361401c565b91506137af82614963565b602b82019050919050565b60006137c760218361400b565b91506137d2826149b2565b604082019050919050565b60006137ea601d8361401c565b91506137f582614a01565b601d82019050919050565b600061380d603c8361400b565b915061381882614a2a565b604082019050919050565b600061383060318361400b565b915061383b82614a79565b604082019050919050565b6000613853602c8361401c565b915061385e82614ac8565b602c82019050919050565b600061387660358361401c565b915061388182614b17565b603582019050919050565b6000610160830160008301516138a56000860182613989565b50602083015184820360208601526138bd8282613415565b915050604083015184820360408601526138d78282613415565b915050606083015184820360608601526138f18282613415565b91505060808301516139066080860182613989565b5060a083015161391960a0860182613989565b5060c083015161392c60c0860182613989565b5060e083015161393f60e0860182613989565b50610100830151613954610100860182613989565b50610120830151613969610120860182613989565b5061014083015161397e610140860182613989565b508091505092915050565b613992816141a6565b82525050565b6139a1816141a6565b82525050565b6139b86139b3826141a6565b61429e565b82525050565b60006139c9826135f3565b91506139d5828e613487565b91506139e0826135ad565b91506139ec828d613487565b91506139f782613774565b9150613a03828c613487565b9150613a0e82613521565b9150613a1a828b613487565b9150613a2582613639565b9150613a31828a613487565b9150613a3c82613846565b9150613a488289613487565b9150613a53826135d0565b9150613a5f8288613487565b9150613a6a82613869565b9150613a768287613487565b9150613a81826136c5565b9150613a8d8286613487565b9150613a9882613797565b9150613aa48285613487565b9150613aaf8261370b565b9150613abb8284613487565b9150613ac6826136e8565b91508190509c9b505050505050505050505050565b6000613ae6826137dd565b9150613af28284613487565b915081905092915050565b6000613b0982866139a7565b602082019150613b1982856139a7565b602082019150613b2982846139a7565b602082019150819050949350505050565b6000602082019050613b4f6000830184613360565b92915050565b6000608082019050613b6a6000830187613360565b613b776020830186613360565b613b846040830185613998565b8181036060830152613b9681846133dc565b905095945050505050565b6000606082019050613bb66000830186613360565b613bc36020830185613998565b613bd06040830184613998565b949350505050565b60006020820190508181036000830152613bf2818461336f565b905092915050565b6000602082019050613c0f60008301846133cd565b92915050565b60006020820190508181036000830152613c2f818461344e565b905092915050565b60006040820190508181036000830152613c51818561344e565b9050613c606020830184613998565b9392505050565b60006020820190508181036000830152613c80816134b8565b9050919050565b60006020820190508181036000830152613ca0816134db565b9050919050565b60006020820190508181036000830152613cc0816134fe565b9050919050565b60006020820190508181036000830152613ce081613544565b9050919050565b60006020820190508181036000830152613d0081613567565b9050919050565b60006020820190508181036000830152613d208161358a565b9050919050565b60006020820190508181036000830152613d4081613616565b9050919050565b60006020820190508181036000830152613d608161365c565b9050919050565b60006020820190508181036000830152613d808161367f565b9050919050565b60006020820190508181036000830152613da0816136a2565b9050919050565b60006020820190508181036000830152613dc08161372e565b9050919050565b60006020820190508181036000830152613de081613751565b9050919050565b60006020820190508181036000830152613e00816137ba565b9050919050565b60006020820190508181036000830152613e2081613800565b9050919050565b60006020820190508181036000830152613e4081613823565b9050919050565b60006020820190508181036000830152613e61818461388c565b905092915050565b6000602082019050613e7e6000830184613998565b92915050565b600061016082019050613e9a600083018e613998565b8181036020830152613eac818d61344e565b90508181036040830152613ec0818c61344e565b90508181036060830152613ed4818b61344e565b9050613ee3608083018a613998565b613ef060a0830189613998565b613efd60c0830188613998565b613f0a60e0830187613998565b613f18610100830186613998565b613f26610120830185613998565b613f34610140830184613998565b9c9b505050505050505050505050565b6000613f4e613f5f565b9050613f5a8282614224565b919050565b6000604051905090565b600067ffffffffffffffff821115613f8457613f83614366565b5b613f8d82614395565b9050602081019050919050565b6000819050602082019050919050565b600081519050919050565b600081519050919050565b600081519050919050565b6000602082019050919050565b600082825260208201905092915050565b600082825260208201905092915050565b600082825260208201905092915050565b600082825260208201905092915050565b600081905092915050565b6000614032826141a6565b915061403d836141a6565b9250827fffffffffffffffffffffffffffffffffffffffffffffffffffffffffffffffff03821115614072576140716142d9565b5b828201905092915050565b6000614088826141a6565b9150614093836141a6565b9250826140a3576140a2614308565b5b828204905092915050565b60006140b9826141a6565b91506140c4836141a6565b9250817fffffffffffffffffffffffffffffffffffffffffffffffffffffffffffffffff04831182151516156140fd576140fc6142d9565b5b828202905092915050565b6000614113826141a6565b915061411e836141a6565b925082821015614131576141306142d9565b5b828203905092915050565b600061414782614186565b9050919050565b60008115159050919050565b60007fffffffff0000000000000000000000000000000000000000000000000000000082169050919050565b600073ffffffffffffffffffffffffffffffffffffffff82169050919050565b6000819050919050565b82818337600083830152505050565b60005b838110156141dd5780820151818401526020810190506141c2565b838111156141ec576000848401525b50505050565b6000600282049050600182168061420a57607f821691505b6020821081141561421e5761421d614337565b5b50919050565b61422d82614395565b810181811067ffffffffffffffff8211171561424c5761424b614366565b5b80604052505050565b6000614260826141a6565b91507fffffffffffffffffffffffffffffffffffffffffffffffffffffffffffffffff821415614293576142926142d9565b5b600182019050919050565b6000819050919050565b60006142b3826141a6565b91506142be836141a6565b9250826142ce576142cd614308565b5b828206905092915050565b7f4e487b7100000000000000000000000000000000000000000000000000000000600052601160045260246000fd5b7f4e487b7100000000000000000000000000000000000000000000000000000000600052601260045260246000fd5b7f4e487b7100000000000000000000000000000000000000000000000000000000600052602260045260246000fd5b7f4e487b7100000000000000000000000000000000000000000000000000000000600052604160045260246000fd5b6000601f19601f8301169050919050565b7f4552433732313a207472616e7366657220746f206e6f6e20455243373231526560008201527f63656976657220696d706c656d656e7465720000000000000000000000000000602082015250565b7f4552433732313a207472616e736665722066726f6d20696e636f72726563742060008201527f6f776e6572000000000000000000000000000000000000000000000000000000602082015250565b7f4552433732313a20746f6b656e20616c7265616479206d696e74656400000000600082015250565b7f227d2c207b2274726169745f74797065223a2022436f6c6f72222c202276616c60008201527f7565223a20220000000000000000000000000000000000000000000000000000602082015250565b7f4552433732313a207472616e7366657220746f20746865207a65726f2061646460008201527f7265737300000000000000000000000000000000000000000000000000000000602082015250565b7f4572726f723a20706c61796572207468696566206d757374206861766520617460008201527f206c65617374206f6e6520737465616c20746f20737465616c2e000000000000602082015250565b7f4552433732313a20617070726f766520746f2063616c6c657200000000000000600082015250565b7f222c20226465736372697074696f6e223a20225468697320697320616e204e4660008201527f542074686174206c6574732070656f706c6520706c617920696e20746865206760208201527f616d6520546869657661727921222c2022696d616765223a2022000000000000604082015250565b7f2c20226d61785f76616c7565223a200000000000000000000000000000000000600082015250565b7f7b226e616d65223a2022546869657661727920233a2000000000000000000000600082015250565b7f4552433732313a206f70657261746f7220717565727920666f72206e6f6e657860008201527f697374656e7420746f6b656e0000000000000000000000000000000000000000602082015250565b7f227d2c207b2274726169745f74797065223a2022436c617373222c202276616c60008201527f7565223a20222300000000000000000000000000000000000000000000000000602082015250565b7f4552433732313a20617070726f76652063616c6c6572206973206e6f74206f7760008201527f6e6572206e6f7220617070726f76656420666f7220616c6c0000000000000000602082015250565b7f4552433732313a2062616c616e636520717565727920666f7220746865207a6560008201527f726f206164647265737300000000000000000000000000000000000000000000602082015250565b7f4552433732313a206f776e657220717565727920666f72206e6f6e657869737460008201527f656e7420746f6b656e0000000000000000000000000000000000000000000000602082015250565b7f7d2c207b2274726169745f74797065223a202244616767657220436f756e742260008201527f2c202276616c7565223a20000000000000000000000000000000000000000000602082015250565b7f7d205d7d00000000000000000000000000000000000000000000000000000000600082015250565b7f7d2c207b2274726169745f74797065223a20224c6576656c222c202276616c7560008201527f65223a2000000000000000000000000000000000000000000000000000000000602082015250565b7f4552433732313a206d696e7420746f20746865207a65726f2061646472657373600082015250565b7f4552433732313a20617070726f76656420717565727920666f72206e6f6e657860008201527f697374656e7420746f6b656e0000000000000000000000000000000000000000602082015250565b7f222c202261747472696275746573223a205b207b2274726169745f747970652260008201527f3a2022436c616e222c202276616c7565223a2022000000000000000000000000602082015250565b7f7d2c207b2274726169745f74797065223a2022536869656c6420436f756e742260008201527f2c202276616c7565223a20000000000000000000000000000000000000000000602082015250565b7f4552433732313a20617070726f76616c20746f2063757272656e74206f776e6560008201527f7200000000000000000000000000000000000000000000000000000000000000602082015250565b7f646174613a6170706c69636174696f6e2f6a736f6e3b6261736536342c000000600082015250565b7f4572726f723a20706c617965722076696374696d206d7573742068617665206160008201527f74206c65617374206f6e652064616767657220746f20737465616c2e00000000602082015250565b7f4552433732313a207472616e736665722063616c6c6572206973206e6f74206f60008201527f776e6572206e6f7220617070726f766564000000000000000000000000000000602082015250565b7f227d2c207b202274726169745f74797065223a2022537465616c73204c65667460008201527f222c202276616c7565223a200000000000000000000000000000000000000000602082015250565b7f7d2c207b202274726169745f74797065223a2022546f74616c204c696665746960008201527f6d6520537465616c73222c202276616c7565223a200000000000000000000000602082015250565b614b6f8161413c565b8114614b7a57600080fd5b50565b614b868161414e565b8114614b9157600080fd5b50565b614b9d8161415a565b8114614ba857600080fd5b50565b614bb4816141a6565b8114614bbf57600080fd5b5056fe4142434445464748494a4b4c4d4e4f505152535455565758595a6162636465666768696a6b6c6d6e6f707172737475767778797a303132333435363738392b2fa26469706673582212201b21a9a1a88ddc970eaef2cf23506083515ce3c11547131f21ab9f1a7be3d64464736f6c63430008040033",
    "linkReferences": {},
    "deployedLinkReferences": {}
}